:020000040000FA
:0400000A9901C0DEBA
:1000000000400020918C0100CD8C0100CF8C0100BC
:1000100000000000000000000000000000000000E0
:10002000000000000000000000000000D18C010072
:100030000000000000000000D38C0100D58C0100FE
:10004000D78C0100F53F0000D9930100D78C010047
:10005000D78C010000000000918D0100D78C0100B9
:100060007DEF0000399901004D920100D78C01000D
:10007000D78C0100D78C0100D78C0100D78C0100F0
:10008000D78C0100D78C0100D78C0100D78C0100E0
:10009000D78C01007188010031890100F1F0000066
:1000A00001F10000D78C01000000000000000000FA
:1000B0000000000000000000000000000000000040
:1000C00010B5064C2378002B07D1054B002B02D02E
:1000D000044800E000BF0123237010BD2001002070
:1000E00000000000B4850300044B10B5002B03D0C2
:1000F0000349044800E000BF10BDC04600000000F6
:1001000024010020B4850300402292029A1A9246EC
:100110007047C046174B002B00D1134B9D46FFF78D
:10012000F3FF00218B460F461348144A121A28F099
:10013000BFFC0E4B002B00D098470D4B002B00D07E
:1001400098470020002104000D000D48002802D02F
:100150000C4800E000BF20F0F5F82000290028F04E
:1001600041FA20F00DF8C046000008000000000031
:10017000000000000040002018010020E02F0020B7
:100180000000000000000000032130B5040003005F
:1001900001220C40084204D109491D6810008D421B
:1001A0000CD0190001201140134207D10800002C87
:1001B00004D11868034BC01A4342584130BDC046B1
:1001C000E4E3020060B6020010B50400FFF7DCFFB4
:1001D00003000120002B0AD1032218002240022A2A
:1001E00005D103480440063C2000431E984110BD41
:1001F000070080FF044B88600B60044B08004B60D5
:100200000023CB607047C0466896020017120200B8
:1002100010B502F067FB084B42680848D3185942F2
:100220004B41B0215B428B4305495B18054908F0FF
:1002300077F90CF0B7FDC0463AFDFFFFE4A50200D8
:10024000C60200007AF90200F7B504000D00019320
:1002500001208B180A0000210093009B934212D8C2
:100260002726002900D0053E224F32003900200009
:1002700026F0EDFB009B9D4214D332003900200094
:1002800026F0E5FBF7BD1378272B08D0223B5E4212
:100290007341DBB20132002BDFD02726E4E70023D5
:1002A0000100F7E72A78B24205D132001249200056
:1002B00026F0CDFB1AE011495C2A14D01F2A09D977
:1002C0007F2A15D0019B002B02D053B2002B0FDBED
:1002D0003900ECE70A490A2A05D00A490D2A02D05A
:1002E000092A05D10849200026F0EBFA0135C1E7BB
:1002F0000649DCE7A6F90200A5F90200A9F9020007
:10030000ACF90200AFF90200B2F90200B5F902003F
:10031000194B70B506000C0098420FD14968A068CF
:1003200011F06EF8051E09D0200026F029FD0023EB
:100330000620ED0023600543280070BD102025F045
:100340006BFD6168050081600660A06811F03AF8F5
:1003500063686860591C2368994208D1A368EB6000
:100360000023EA68A9685354A3602360E4E7A06807
:1003700025F070FDE860F3E7309A020070B50400E4
:100380000D00002A05D011F071F8C30006201843B3
:1003900070BD11F035F80028F7D12A00210002487D
:1003A00020F015FEF4E7C046309A020010B50A00AE
:1003B0000100024820F00BFE10BDC046508D020027
:1003C000094B10B50340062B01D1C00810BD8307AF
:1003D00008D1064B02689A4204D18168C06811F0C6
:1003E00045F8F3E7FFF714FF070080FF309A02009B
:1003F000064B10B50340062B03D1C00825F031F998
:1004000010BD8368C0680B60FAE7C046070080FF34
:10041000F0B50D00002789B0110006001C0028006F
:1004200003233A00009711F073FF0E20BD420FD056
:10043000012D0FD1102102AA04A815F073FC216828
:1004400002A83A0002F066FA300004A9FFF760FF44
:1004500009B0F0BD2068830722D1164B02689A428A
:100460001ED104A9FFF7C4FF134B05002068034009
:10047000062B13D1C00825F0E5F80400002C04D1A8
:100480002800049910F09EFF04001020049F25F01E
:10049000C3FC06608760C5604460D9E74468EDE747
:1004A00004A9012202F0BCFC002205990498FFF780
:1004B00065FFCDE7508D0200070080FFF0B58DB0DD
:1004C0000400039102F00EFA04A906002000FFF7D1
:1004D0008FFF039B01902F489A0705D11B68834229
:1004E0000AD02D4A934207D0C3680022029301210B
:1004F000029C03ABA04703900024039806AA05A919
:1005000002F078FB2500059BA3420ED829000025A8
:1005100008A826F024FC0A9C059BAB4221D8300099
:1005200008A9FFF7F5FE0DB0F0BD069BA700D8594E
:1005300002F0D8F9864202D018480DF067FC002C72
:1005400001D0049BED18069BD859154B0340062B90
:1005500005D1C00825F07BF82D180134D3E7806859
:10056000FAE7002D06D02000049A019928F084FAB9
:10057000049BE418069AAB00985807A9FFF738FFC8
:10058000079A0100200028F077FA079B0135E4184C
:10059000C2E7C04698E3020090C10200BCF9020025
:1005A000070080FFF0B58BB0049008680C0006923D
:1005B000079302F097F90600606802F093F986420B
:1005C00002D06068FFF724FE08A92068FFF710FF3B
:1005D000050009A96068FFF70BFF089A2F00AB1808
:1005E0000393049B0590022B19D9A3681D498B42E4
:1005F00006D0012130000091290005F0A1FB070081
:10060000049B032B0BD0E368164A934207D00122C8
:10061000290000923000089A05F092FB0390039B9A
:100620003800D91B069B059A0093099B20F0B0FC6B
:10063000011E07D10120079B4042002B0BD00A4826
:100640000DF01EFA094B9E4207D1280022F096F8C1
:100650004100012008430BB0F0BD401B01214000C8
:10066000F8E7C04610B1020001FA0200309A020019
:10067000F0B587B0039008680D0002F033F904A9C3
:1006800007002868FFF7B4FE05A904006868FFF7B3
:10069000AFFE039B06002000022B07D90123210097
:1006A00000933800AB68049A05F04AFB059A041BD6
:1006B0000499A418064B8C4206D8310028F0CEF9D4
:1006C000034B002800D1034B180007B0F0BDC04613
:1006D000D4E30200DCE3020073B50D0006006946B6
:1006E0002868FFF785FE01A904006868FFF780FE0F
:1006F0000100022E02D908480DF0B6FB019A0098BD
:10070000064D824206D8801A201828F0A7F9002842
:1007100000D1034D280076BD15FA0200D4E3020093
:10072000DCE30200F0B58FB0079010680C001600F3
:1007300002F0D8F80690012C31D0706802F0D2F89F
:10074000069B834202D07068FFF762FD70680DA9B6
:10075000FFF74EFE0D9B0890099330680DA9FFF737
:1007600047FE0D9B0B900493079B012B1CD1049B10
:100770005D1E01235B420A9300242700049B03941F
:100780000593059B002B13D1039B002B23D1214BF9
:10079000069A0E209A4200D01F480FB0F0BD0723E2
:1007A00009931E4B0893D8E7012300250A93E3E73A
:1007B0000B9B09995A1901230898009320F0E8FB34
:1007C000002816D1039B002B19D1079B002B09D1C0
:1007D0002F00049B5C1E049B0134E21B934212D148
:1007E0003068DAE7079B2C00012B0AD001232F0089
:1007F00003930A9BED18059B013B0593C1E72C0071
:10080000F7E7039FE7E70B9B0698D91920F0DFFB7A
:10081000C3E7C046309A0200408D020049FE020044
:10082000F0B589B0049008680D0002F05BF807008D
:10083000686802F057F8874202D06868FFF7E8FC62
:1008400006A92868FFF7D4FD060007A96868FFF726
:10085000CFFD069A3400B3180393049B0590022B36
:1008600019D9AB681D498B4206D00121380000918F
:10087000310005F065FA0400049B032B0BD0EB68F4
:10088000164A934207D00122310000923800069A9E
:1008900005F056FA03900025079BAB4212D1039B4B
:1008A0002000191B21F079FF013045000120284369
:1008B00009B0F0BD2000059928F0D0F8002808D133
:1008C00001353400079A039BA6189E42F2D96D00A9
:1008D000ECE7200021F049FF0600F2E710B102002A
:1008E00010B50100014820F061FC10BDBB270200DB
:1008F00010B50100014820F059FC10BDCD270200C1
:10090000F7B50600080001A9FFF772FD019B07007B
:10091000002B01D11248FEBD124B9E420DD0124B4E
:1009200000249E420AD0385DB0470028F2D0019BD7
:100930000134A342F7D80D48EDE700242500385DC7
:1009400004F020F9002803D0385DB047051EE1D03F
:10095000019B0134A342F2D8002DECD1DAE7C04666
:10096000D4E30200ED4B0000054C0000DCE3020084
:1009700010B501000148FFF7C3FF10BD6D4B00002B
:1009800010B501000148FFF7BBFF10BD854B00000B
:1009900010B501000148FFF7B3FF10BD9D4B0000EB
:1009A00010B501000148FFF7ABFF10BDED4B000093
:1009B00010B501000148FFF7A3FF10BD054C000072
:1009C000F0B585B005000C00170001F08BFF6946FB
:1009D00006002800FFF70CFD0500042F23D1009826
:1009E000A30715D1114B22689A4211D1210001AA07
:1009F00010F062FF002802D10D480DF035FA019980
:100A0000029A3000521A691820F0E1FA05B0F0BDE0
:100A1000002301002200300002F022F92B5C0120AB
:100A20005B001843F2E70020F0E7C0463C9E02005E
:100A300027FA020070B50A001C008EB0002900D110
:100A400076E018683B4E03003340062B05D0830741
:100A500026D1394B0168994222D1023A012A64D841
:100A60000AA9FFF7C5FC050020680640062E15D12F
:100A7000C00824F0E7FD0400002C04D128000A99E6
:100A800010F0A0FC040010200A9E25F0C5F92B4BA5
:100A900086600360C56044600EB070BD4468EBE7DB
:100AA000012A42D103001340DBB2002B10D04410C6
:100AB00021000AA826F053F90C9B002122001800FF
:100AC000019327F0F5FF0AA91C48FFF721FCE3E793
:100AD00003A921F03AFB002805D0049A039917488E
:100AE00020F075FAD8E7206802F0FAF81021002803
:100AF00000D0411006A826F022F920680AA90CF0BF
:100B000099FB040020000CF0F7FB002801D106A996
:100B1000DAE701F0CBFFFF2802D909480CF0B0FF5B
:100B2000C1B206A826F069F9ECE706480DF06EF9A7
:100B30000548B1E7070080FF309A0200508D02009F
:100B400058FA020071FA0200408D020073B50400E9
:100B5000080001A91600FFF74BFC0500042E06D182
:100B60000300019A2000074925F071FF73BD2000A2
:100B7000054925F0A6FE012329002000019AFFF770
:100B800063FBF3E78BFA0200CE6A03000A001A4BFC
:100B900073B51A4005000C000340062B08D1401A1B
:100BA000062A24D0E80824F04DFD0600606805E020
:100BB0004668062AFAD1C80824F044FD002E05D064
:100BC000002803D0B04201D0002076BD694628003D
:100BD000FFF70EFC01A905002000FFF709FC009AB1
:100BE000019B01009A42EFD1280027F037FF4342D2
:100BF0005841C0B2E9E7C046070080FF084B07B57F
:100C00000340062B08D0830704D10268054B926984
:100C10009A4201D0FFF7FCFA01A9FFF7E9FB0EBDEC
:100C2000070080FFD11100000A4B13B503400C00F0
:100C3000062B08D0830704D10268074B92699A42B9
:100C400001D0FFF7E5FA01A9FFF7D2FB019B236072
:100C500016BDC046070080FFD1110000F0B59BB063
:100C60000B900591089210210EAA12A8099315F075
:100C700059F8059B089A934208D30B9A12AB13CBF1
:100C800013C21B6813600B981BB0F0BD059B19784D
:100C90005F1C7D290ED1089BBB4208D9059B597862
:100CA0007D2904D112A826F0A8F8059707E0B148DD
:100CB0000CF0E6FE7B2906D012A826F09EF8059BD4
:100CC00001330593D5E7089BBB422ED9059B597884
:100CD0007B29E7D03B007D2903D0212901D03A2987
:100CE00025D100273C0000211A780691212A0BD13A
:100CF00008995A1C914223D95A780692723A012ACD
:100D00001ED80233994210D900211A7805913A2A47
:100D100026D15A1C5B7805927D2B25D00122059B9C
:100D200015E0089A01339A4201D19348C0E71A7836
:100D30007D2A03D0212A01D03A2AF2D11C00D2E721
:100D40008E48B5E719787B2905D10132013308991E
:100D50008B42F7D3E9E77D29F8D1013A002AF5D192
:100D6000059A0593079205E0089B059A9342DCD902
:100D700000230793059B1B787D2B01D0804897E7C4
:100D8000002F48D000233878169303F007FF00287F
:100D90003DD0099B1B680A93002B01DD794887E74A
:100DA00016AA2100380020F0DBF8209A169B013AA1
:100DB00006009A4203D87449744823F09EFC219A95
:100DC00001339B009D580122099B52421A60A642A2
:100DD00031D26F480DF048F80136A64204D233787C
:100DE0002E2B01D05B2BF7D1F11B01223800FFF72E
:100DF000C5FA002207000100229807F0B3FE002880
:100E000007D13900634822F053F80BF0CBFF3E00C6
:100E1000E3E74568DBE7099B1B68002B01DA5E48C6
:100E200046E7209A013A9342C5D2013321999A00AC
:100E30005558099A1360079B002B18D1069B002B6D
:100E400005D0069B733B5A1E9341DBB206931021DB
:100E500010AA16A814F066FF2900069A10A801F03F
:100E600059FD4E4816A9FFF753FA050002E0069B0C
:100E7000002BE6D101235B420D931093079B002BBF
:100E800000D1ACE00BF032FD229B059A0293219B2E
:100E900007990193209B16A80093099BFFF7DEFE9C
:100EA00016A825F098FF0027179B0400C3180A9383
:100EB00003780693BB4208D0394E1900300027F062
:100EC00033FEB84200D16DE1013423782B2B4ED094
:100ED00000262D2B02D0202B01D10436013423789B
:100EE000232B02D1133B1E4301342378302B07D12F
:100EF000069A002A01D13D320692002F00D11F0030
:100F000020000A990DAA20F02BF8037807902C2BCB
:100F100004D10C3B1E43030001330793079B1B784E
:100F20002E2B06D107980A99013010AA20F018F844
:100F30000790079B1C78002C38D02100194827F017
:100F4000F3FD002803D0079B5B78002B2ED01648BA
:100F5000AEE63900300027F0E7FD002804D03B0062
:100F60000234069F0693B0E707000690ADE702261D
:100F7000B4E7C04690FA0200D1FA0200B8FA0200C3
:100F8000E9FA02000DFB020057FB0200D8A20200A2
:100F900070FB020014A302008DFB0200309A0200D5
:100FA000D7FB0200DCFB0200ECFB020016A825F0D8
:100FB000E7FE069B002B08D12800FFF705F93E232A
:100FC0000693002801D1023B0693002F00D1203761
:100FD00006231E420BD0732C05D1754868E6079E88
:100FE00034003700E8E7632C01D1724860E6069BC5
:100FF0003D2B20D05E2B20D03C2B01D13B3B1E4310
:101000002800FFF7C1F8002869D0782C09D8612C96
:1010100015D8472C25D8442C61D8002C48D0252C35
:101020005DD0280021F07AF822000300624963486D
:1010300007F076FAE9E64023E1E78023DFE72000C6
:1010400062381628EDD818F087FD1825334A4A4A29
:10105000ECECECECECEC333CECECECECECECECEC39
:101060000E00582CDDD10022230003920D9A173B6D
:10107000029201971022009607E0002303930D9B34
:101080000222029361230197009629000EA813F013
:101090003DFE14E6280001F009FD0D9B16A908701D
:1010A00001220193330000970EA813F0CFFD06E64E
:1010B000002303930D9B0A2202930197612300965C
:1010C000E3E7F30602D580239B001E43002303932E
:1010D0000D9B08220293019761230096D5E7280013
:1010E000FFF772F8002839D0002C23D06E2C21D0C5
:1010F000252C21D0242C16D9472C10D8442C12D9B9
:10110000280001F039FD109B220002930D9B011C69
:101110000193330000970EA825F04EFCCFE5230085
:10112000653B022BECD9280020F0F8FF22000300D9
:1011300023497CE76724E3E72800802401F01CFDB5
:10114000204919F07FFB109B640002930D9B3443F0
:10115000019366222300011C0097DCE7069B3D2BD0
:1011600001D11948A4E5002C01D0732C13D116A984
:101170002800FFF759FD109B0100169A002B00DA9A
:101180001092109B9A4200D916930D9B169A0193C8
:101190000097330088E7280020F0C0FF22000300FA
:1011A0000A4944E76778002F00D0D2E606978CE61C
:1011B00005FC020031FC020064FC02005CA6020097
:1011C00095FC02000000C842C9FC0200FEFC0200BF
:1011D000F0B5A1B005000C000D920A2800D0F7E18F
:1011E0000DAB0F93012315001093032305921D40AF
:1011F0001A423CD11368B24A934206D105980FAA0D
:1012000010A924F0C2F9059502E0AE4A9342FAD142
:10121000109B200007930F9B11A90893FFF7E8F894
:10122000002309900A93A30705D1A74A23689B1AB4
:101230005A425A410A9214AA102118A814F072FDB9
:10124000119A00279446099B099C63440493049BCC
:10125000A3420FD8079B9D48BB4229D10A9B9A48BD
:10126000002B00D19A4818A9FFF752F8C9E10023D2
:101270000593CDE72178252904D018A825F0BDFDD8
:101280000134E4E7049B661CB34202D891480CF099
:10129000F7FB6178252904D118A825F0AEFD3400AC
:1012A000EEE70025282915D1059BAB4202D18A48DB
:1012B0000CF0ACFDA01C06003378292B23D1311A89
:1012C0000122FFF75BF8010005980FF0AFFA012744
:1012D000050001360023340040220026302104207E
:1012E0000B9320330693049BA34213D8002312933D
:1012F000049BA34231D923782A2B6DD1079BBB4293
:1013000021D87648D4E7049BB34201D17448BEE7A4
:101310000136D1E723782D2B03D12C3B1E4301341A
:10132000E1E72B2B01D1293BF8E7202B01D1064324
:10133000F5E7232B04D0302BD8D116430691EEE7E6
:1013400010230B93EBE77B1C0C93089BBF00F85812
:1013500001F0ACFB0C9F1290013401235B4213930C
:10136000049BA34292D923782E2B17D1049B601C97
:1013700083428BD963782A2B35D1079BBB42C0D9D6
:101380007B1C0C93089BBF00F85801F08FFB0C9F4F
:1013900013900234049BA34200D877E7002D06D1B6
:1013A000079BBB42ADD9089ABB009D5801372278F4
:1013B000472A45D8442A48D9280001F0DDFB139B71
:1013C00022780293129B011C0193069B14A80093A0
:1013D000330025F0F1FA53E72000049912AA1FF018
:1013E000BFFD0400B9E70023049913AA13931FF06B
:1013F000B7FD0400CEE7202827D818F0C1FBDC0099
:1014000026002600260026002600260026002600AC
:101410002600260030007D00DDFFDDFFDDFF260019
:101420007D00260026002600260026009B002600C0
:101430002600AB00AB0026007D0026002600DC0065
:1014400010005838C3B2202BD5D9099B2549E41A7E
:1014500025481300009407F063F80BF0A3FC234B1E
:101460002B40062B05D0AB0716D1194B2A689A42A0
:1014700012D11CA92800FFF7D7FB1C9A0100012AF2
:1014800001D01B4814E7129B0193202300933300E3
:1014900014A813F0DBFBF3E62800FEF775FE002826
:1014A0000BD0280001F002FB129B1CA908700193CD
:1014B0002023012200933300EAE70E48F8E6C046F5
:1014C00090C1020010C10200508D0200F5FD020023
:1014D000309A020030FD020042FD02006FFD020062
:1014E00059FD0200C0FD02005CA60200070080FF5B
:1014F00096FD0200AFFD020003222B001340022BD9
:101500000AD17C4B2B40062B06D0FF23DB05E818C5
:1015100090430BF089FA0500139B0A220393129B58
:1015200000960293069B01936123290014A813F0EF
:10153000EDFBA5E60B9B002B02D084239B001E43F2
:10154000139B08220393129B00960293069B019320
:101550006123EAE7102116AA1CA814F0E3FB237804
:101560001A00723A51424A41D2B2722B09D00A9BF8
:10157000002B06D0AB0704D15F4B2968994200D1FC
:101580000422290016A801F0C5F9139A1D9B002A10
:1015900000DA1393139A9A4200D91A00129B1E99EB
:1015A0000193202314A80093330013F04FFB1CA8D1
:1015B00025F0E6FB64E61300139A173B0392129A98
:1015C0000292069A01920B9A164300961022ACE7FB
:1015D000080001F087F916A906002000FEF708FFB1
:1015E0000590072D20D10D9818A901F09DFA00282B
:1015F00007D01899002906DC404B0E209E4200D0EF
:101600003F4821B0F0BD169B1CA8594325F0A7FB0D
:101610001E9B0121059804930093169A189B24F0B1
:1016200078F830001CA91FE60D9801F05BF986429E
:101630000FD10D981CA9FEF7DBFE1C9F04901D2DF9
:1016400017D8182D4ED8052D21D0122D1FD00020CF
:10165000D7E7294B0D989E4209D101221CA920F001
:1016600074FD0028CDD01C9B1D9F0493E7E7FEF777
:10167000CFFD1F2DEBD10123049A009316993B0057
:1016800005981FF085FC00282AD11E48B9E7169B53
:10169000002B07D10D9801F025F9864202D10D9C4F
:1016A0002000AEE7002FFBD0169B1CA8F91825F0F0
:1016B00056FB1E9B169A18000599069327F0DCF935
:1016C0001E9B3A0018000593169B04999C466044A3
:1016D00027F0D2F930001CA9FEF71AFE0400DFE75C
:1016E00009488EE72800049B169A0599009724F074
:1016F00046F8C8E7070080FF508D0200309A0200CC
:10170000408D0200D4E30200DCE30200F0B50500E6
:1017100087B008680C0001F0E5F80090012D28D989
:101720006668022D26D0A06801F0C0F905000021EE
:10173000080024F0A7FF04A901902068FEF758FED6
:10174000049B0400C7183E4B9E4241D1BC422AD2A2
:10175000207803F00BFA00280FD1002D0FD12100C3
:1017600000983A1B1FF033FC0100019812F03AFA7E
:1017700019E0334E01256D42D9E70134E6E7260032
:10178000307803F0F3F9002802D10136B742F7D8D8
:1017900021000098321B1FF01AFC0100019812F082
:1017A00021FAB74208D8019807B0F0BD0136B74218
:1017B00002D1002D07DCF6E7307803F0D7F90028D6
:1017C000F4D1002D00DD013DB742ECD93400C4E76F
:1017D000300001F087F8009B834202D03000FEF712
:1017E00017FD300005A9FFF71FFA059B0390002B9A
:1017F00013D114480CF044F93E0021000098321B2C
:101800001FF0E5FB0100019812F0ECF9BE42CAD2CC
:10181000059BF418002D00DD013D2600059B029379
:10182000002DE9D0029BF3189F42E5D33000029AC5
:10183000039927F013F90028DFD00136F0E7C046FE
:1018400010B102002AFE0200F0B507000C0089B0BA
:10185000022807D821003800FFF758FF04002000B5
:1018600009B0F0BD086801F03DF806A902902068B3
:101870006568FEF7BDFD0090A06801F017F9061E2F
:10188000E8DB431C18000021039324F0FBFE2C4BE3
:1018900004009D4202D12B480CF0E6FA280007A96B
:1018A000FFF7C2F9079B0490002B02D126480CF0E9
:1018B000E7F8069A35009446009B63440193079F1E
:1018C000019BDE1B002D0BD0009BB34208D83A00D1
:1018D0003000049927F0C2F8002821D0013EF1E73A
:1018E000E368AE00009A9F19019B009902989A1A2A
:1018F0001FF06DFB3860002DB1D0039B5D1BE368CA
:10190000AF0099193A00180027F0BFF8636800216A
:101910005A1BE3689200D81927F0CAF8A5609EE721
:10192000E268AB00D3180593019B02989A1BD21B67
:10193000F1191FF04CFB059B013D18600196BEE7B5
:1019400010B102003AFE02002AFE020070B50C003F
:101950008AB0050004A920681600FEF749FD00239F
:101960000593049B0100C218029605AB06A80194DA
:101970000095FFF773F906A90248FEF7C9FC0AB003
:1019800070BDC046309A02000A0093685268C96868
:101990009B1A5B1810B50400581C002900DD581E66
:1019A00018F082F90300002C08D00020012C09D186
:1019B000D843C01718404000204303E00248002BE2
:1019C00000DC024810BDC046DCE30200D4E30200A4
:1019D0000300080010B5044C04330ECB04604160D2
:1019E0008260C36010BDC046708F0200F0B50E006B
:1019F000002785B011001D000122032303900097EA
:101A0000300010F085FC102024F006FA039B04003F
:101A1000036001234760C36028689E4205D101F03E
:101A200045F8A060200005B0F0BD01F03FF860600F
:101A3000686801F03BF8A060032EF3D1A86801F0BC
:101A400035F8E0600028EDD101480CF019F8C046E7
:101A500050FE020070B50D004A688B68084904000A
:101A600024F0F5FFEA68012A04D12000054924F09A
:101A700028FF70BD2000044924F0E9FFF9E7C046C3
:101A80005AFE02006600030067FE0200136810B5EC
:101A90001400002B05D1A52904D1406823F076FC61
:101AA000206010BD7423FF33994201D18068F5E7AF
:101AB000024B9942F5D1C068F0E7C046C50200006C
:101AC00030B504000D00002087B0042A30D1A3688F
:101AD0006268E1689B1A5B18581C002900DD581EDB
:101AE00018F0E2F8C343DB171840AB0722D1184BBC
:101AF0002A689A421ED1290003AA0FF0DDFE1020A9
:101B000024F08AF9134BE2680360039B6168534336
:101B10005B184360049B6168019353435B1805990C
:101B200083604A43C260002902DAE2689B1A83603C
:101B300007B030BD002301002A00206801F090F8B2
:101B4000E36858436368C018012340001843EFE777
:101B50003C9E0200348F0200030000209A0708D147
:101B60001B68044A0130934203D00348181A4342C9
:101B700058417047E88F0200AC8F0200044B886028
:101B80000B60044B08004B600023CB607047C046DD
:101B9000689602005713020030B585B005000800B2
:101BA00069460BF047FB040020000BF0A5FB011E6B
:101BB00002D1054805B030BD0022281D21F07EFA73
:101BC0000028F1D00148F5E7DCE30200D4E302008D
:101BD00070B50500102024F01FF90400074B696858
:101BE00008C021F061FAAB68E968A3606B68E0683F
:101BF0009A0026F041FF200070BDC046E88F020029
:101C000010B5830707D1044B02689A4203D10349F8
:101C1000034822F072FD10BDAC8F02006DFE020081
:101C200034A1020070B50D000400FFF7E9FF2900A0
:101C30000122201D21F042FA004870BD10B10200BF
:101C400070B50D000400FFF7DBFF29000222201D04
:101C500021F034FA004870BD10B1020070B50600E2
:101C600008680C000125FFF7CBFFB54201D30448FB
:101C700070BDAB00E15820681FF004FB0135F4E7AC
:101C800010B1020070B50D000400FFF7B9FF280085
:101C900000210BF0CFFA050028000BF02DFB011EF0
:101CA00001D1034870BD0322201D21F007FAF3E79C
:101CB00010B1020010B50400FFF7A2FF201D21F0B3
:101CC000A9FA014810BDC04610B1020010B50122AA
:101CD0001FF008FB004810BD10B1020070B50400F1
:101CE0000D00FFF78DFF02222900201D21F0E6F9EB
:101CF000002804D1034821F0D5F80BF053F802482E
:101D000070BDC04614A3020010B1020010B504005B
:101D1000FFF776FF201D21F05EFA002803D102496B
:101D2000024822F0EAFC10BD8FFE020014A302005C
:101D3000F7B504000E0000258B0704D10B68214D78
:101D40005D1B6B425D41B368002B0AD1002D03D0AF
:101D500020001D4924F0B5FD1C49200024F0B1FDF0
:101D6000F7BD002D03D02000194924F0AAFD200062
:101D7000184924F0A6FD0123002701937368BB4294
:101D800007D82000144924F09CFD002DE8D0134909
:101D9000E3E73900F0681FF0D6FA00280FD0019B66
:101DA000002B03D120000E4924F08BFDF168BB000D
:101DB00059580122200000F0ADFD002301930137A6
:101DC000DCE7C046AC8F0200A5FE0200ACFE0200BC
:101DD000B2FE0200BDFE02005A04030066000300CA
:101DE000BFFE0200F7B503000C0001280AD002284C
:101DF0000CD00020834204D18B681648002B00D100
:101E00001548FEBD886840001843FAE703230E001A
:101E100000201E401942F4D1104B0D6830009D4245
:101E2000EFD14B680193019BB34203D101206D00B8
:101E30002843E6E7E768310038001FF084FA0028FD
:101E400006D0B3000220D9590BF08CF840102D18A1
:101E50000136E8E7DCE30200D4E30200AC8F0200C5
:101E6000F7B505001020019123F0D6FF07000A4BBB
:101E7000040008C72900380021F016F90026AE42F8
:101E800001D12000FEBD0199B30001223800C958DC
:101E900021F014F90136F2E7E88F0200F7B50500EA
:101EA0000E00171E2CD0FFF7ABFE194CB5422DD0FB
:101EB00000210800FFF7D4FF0021040030000BF0E0
:101EC000B9F9019001980BF017FA061E0CD1002FFA
:101ED0001CD0E86823F0CFFF63686B60A368AB6039
:101EE000E3680B4CEB6011E000223100281D21F06B
:101EF000E5F80028E6D031002000FFF793FEE1E787
:101F00008842D5D128001FF0CFF904002000FEBD83
:101F100010B10200F0B589B0040003900291019263
:101F20000027FFF719FEB84207D13A0001212248E5
:101F300003AB1FF039FA04000137029D0026280088
:101F4000FFF70AFEB04207D1320001211A4802AB66
:101F50001FF02AFA05000136019B002B05D0002353
:101F6000AA680193A36893420DD0144B069404937E
:101F7000134B05930023079304A81FF0ECF9011EEF
:101F800012D101230193002F02D02000FFF792FE0F
:101F9000002E02D02800FFF78DFE019B0948002B80
:101FA00000D1094809B0F0BD0022281D21F086F8B3
:101FB0000028E1D10190E6E7E88F02006896020070
:101FC00057130200DCE30200D4E3020073B5030000
:101FD0000C0015000026009101928A0704D10A68BE
:101FE000394E961B7242564132001F2B00D969E0D0
:101FF000180017F0BBFD2810176767671C67676735
:10200000676767212D346767673B67676767674066
:10201000464A5358675D290020001FF056F9040016
:10202000200076BD290020001FF0B3F9F7E76946CC
:1020300002201FF083F9F2E7002E04D06946022047
:10204000FFF70CFEECE7290020001FF034F9E6E76B
:1020500029002000002EE0D0FFF714FEE0E7290061
:102060002000FFF71BFF002EDAD1D8E769460220D7
:102070001FF038F9D3E7012229002000FFF74AFFBB
:10208000CDE7012221002800F8E72800FFF764FDD2
:10209000002815D0A368AA68934211D12900200016
:1020A0001FF0B3F9BBE7290020001FF0A6F9B6E73F
:1020B000201D0022290021F001F8044C0028AFD196
:1020C000034CADE70024ABE7E88F0200DCE302003D
:1020D000D4E30200F0B50E0049680500170085B092
:1020E000002901D0002A05D1310028001FF0A9FAEB
:1020F00005B0F0BD0F321309C91800930F241FF06B
:1021000014FA38007368AA68B16801932040274226
:1021100000D11020009C019BE718224C23003C19A1
:10212000640012191C00019B03921A1952008A18AC
:102130009446039A1024029219000022241A0029BE
:102140001FD1E2400124019B03985B00C31A1A804F
:10215000009AA41A64001C19013A2000520026F0CB
:10216000A7FC023C002F03D07B00E35A002B17D0C2
:1021700001216F6032782B780A408B4313432B7018
:10218000B6E760460088029B02431000E040023B35
:102190005880029302235B42120401399C44CEE72B
:1021A000013FDFE7FFFFFF7FF0B54B681500526886
:1021B00006000C0089B0934201D22C000D000121D1
:1021C000227863680A4201D12A781140C918300088
:1021D0001FF0ABF9B36822780193A368170002934C
:1021E000636829789C46AB684F400393012318002D
:1021F0001F408B436146904302000693019B04936A
:102200006B685B1A0793002917D163465900019B3D
:102210005918002F02D001230B80023101981FF0C2
:10222000F9F8012170602B7822785A4033780A40FF
:102230008B431343337009B0F0BD029B12481B88D7
:1022400001391B189B180593079B5B18994219D3FA
:10225000039B039A1B8802321B180392069A9B1851
:10226000059A5A4092B21B0CD7190693049A059B03
:1022700017801A0C049B3F0C02330493029B023319
:102280000293C0E7004BE9E7FFFF0000F0B505004F
:1022900000270C0093B0059353680492591C0093D7
:1022A0001FF043F9049B00215B68A8685A1C520088
:1022B000009326F0FDFB049B6F605B682000591CB7
:1022C00000931FF032F9200004991FF0BAF9A368B7
:1022D00066680193059B31009B6801980293059BFA
:1022E000029A5B680393AB680693039B1FF056F951
:1022F000B84223D10123069A606013806B60049B6F
:102300001A78059B1B785A4001231A4214D02A7868
:1023100013432B706368002B0ED001210FA8494294
:102320001FF0ADF9290028000FAA1FF0A1FB210022
:102330002000059A1FF09CFB13B0F0BD002801DAC5
:102340006F60DCE7824A039B00979B185B009C460A
:102350006246029B63440793029B9B5A1AB2002A6F
:1023600061DA0021019A7300D718721C1026398097
:1023700008926260019A0233D3180993009BF31A02
:102380000A93099B9A4255D3079B009A1B88934056
:102390000793039B012B0AD91022029B00996344E7
:1023A000023B1B88521AD340079A1A430792039A9A
:1023B000089B9B1A664A6B609B18069A5B00D318B1
:1023C0000A93634602330D9363680B930B9A039B46
:1023D00093423AD313005E4A102194460026019A94
:1023E00063445B00D318009A891A019A9A4200D874
:1023F000A0E06B68002B07D0554A06999A18520046
:10240000525A002A00D19FE06368002B00D176E782
:102410004F4A01999A185200525A002A00D06EE78A
:10242000013B6360F0E7009F5B000137BAB29BB2EB
:10243000009293E71088009E0300B34019430A9B63
:102440001180D840023281B29BE73888BB1E1B88BE
:1024500000041843079917F09DFB00220D9B84464A
:10246000FB1A18000C93029B09920893874212D81A
:102470003B889A4235D3D01A010C80B29B1A421E77
:1024800090413B80091800292DD0029B0C9808939D
:1024900000231E0043E0099B190C089B1E88009B2B
:1024A0009E406B460E430996998C634659430388B8
:1024B000994202D25E1A96420ED8D31ACB185942CC
:1024C0001A0C9BB25E1EB34189B2D218089B0180E0
:1024D000023302300893C9E79B1A591A002289B2C5
:1024E000F4E79B1A3B8062460A9B023F1A80023B3C
:1024F0000A930B9B013B636066E7320C0992089AD2
:10250000009E1288B240099E16430288D318B2B2C8
:10251000D318089A038002321B0C023008928742BB
:10252000EBD83A88D3183B801B0CC91A01235B42B5
:102530009C44A8E71A88009F100038418A40304325
:10254000188096B2023B50E7013B6B6051E7C046F2
:10255000FFFFFF7F10B54A68014924F078FA10BDEB
:10256000564E030010B50400002906D0044B8A6BB8
:1025700003600968002306F041F820000AF012FC0D
:102580006CA50200F0B5040087B01000039202931E
:102590006618002A06D00238222803D935480BF0E5
:1025A0006FFA0134B44229D2207802F0DFFA071E14
:1025B000F7D123782B2B1CD101342000311B03AA27
:1025C0001FF078FF23181C0000250193B44217D395
:1025D000002F00D06D42680001250543019B9C42FD
:1025E0002FD12549039A254805F09AFF0299FFF754
:1025F000B9FF2D2BE1D101270134DEE70027DCE70D
:1026000023781A00303A0092092A07D9202213436E
:102610001A00613A192ADBD8573B00930399009BB3
:102620009942D5D9280005F02BFC002816D1039B30
:102630005D43009BED186B006B400FD40134C5E780
:102640000134B44205D2207802F090FA0028F7D184
:10265000C7E7B442C5D1280007B0F0BD019B3A00DE
:102660000593F11A05A8039B22F0B6FE059C050010
:10267000B4E7C046C2FE0200E5FE02005CA602000E
:10268000F0B504008BB0079209934718BC4200D301
:1026900003E1207802F06AFA0290002837D123780B
:1026A0002B2B36D1030001340593BC4200D3F6E056
:1026B000202623783343692B32D1A31C9F4200D8B4
:1026C000E4E0637833436E2B00D0DFE0A37833433C
:1026D000662B00D0DAE0E31DE51C9F4214D9E378B5
:1026E0003343692B10D1237933436E2B0CD163799B
:1026F0003343692B08D1A3793343742B04D1E37995
:102700003343792B00D10535FF26F6051AE0013455
:10271000BCE7029A05922D2BCAD101342C3BC3E7AA
:102720006E2B1AD1A31C9F4200D8AFE063783343CD
:10273000612B00D0AAE0A37833436E2B00D0A5E034
:10274000614EE51C059B002B02D080231B06F6186A
:10275000AC4200D082E05D4992E0002308930393ED
:102760005B4B2500069300230193002304936B1C0D
:1027700000932B781800303809282BD8019B022BA6
:1027800009D1039A083353431B180393009B9F42BC
:102790004DD9009DEBE718F0ADFB019B051C012B0B
:1027A0000DD1069918F04EF8011C049817F0E4FCBE
:1027B00047490490069818F045F80690E6E7454921
:1027C000049818F03FF8291C17F0D6FC0023049059
:1027D0000193DBE7019A002A03D12E2B04D10123B8
:1027E000F6E7019A022A19D032001A43652A15D158
:1027F000009B9F4259D96B782B2B06D1AB1C0093C1
:10280000009BBB42A7D00223E2E7022201922D2BBC
:10281000BFD1AB18009301230893F1E7079A002A70
:1028200007D0202213436A2B05D1079B0293009DFA
:1028300001E0079B0293089B002B02D0039B5B42A5
:102840000393039818F008FB011C22481AF0B0FE0D
:10285000049917F0F7FF061C74E70135BD4205D255
:10286000287802F083F90028F7D174E7BD4200D040
:1028700071E7099B002B02D1029B002B1BD016494C
:10288000164820F01CFB1099FFF76CFE059B002BEF
:1028900000D160E72500002657E7002305930023B9
:1028A0000493002325000293CAE7009B1D009F426A
:1028B00000D150E7BFE7032302209E43084B30437B
:1028C000C0180BB0F0BDC0460000C07F2AFF020058
:1028D000CDCCCC3D000020410DFF02005CA60200E3
:1028E0000000808003000748DA070AD4064A074838
:1028F0001A40062A05D0032205481A40022A00D0B1
:102900001868704760B60200070080FF309A020026
:10291000DCA9020070B50D000400160009F0E6FF06
:102920002800FFF7DFFF8368002B04D03200290066
:102930002000984770BD42680249200024F087F8C3
:10294000F8E7C04644FF020010B50A000100024843
:10295000FFF7E0FF10BDC0462CE60200F7B504000B
:1029600008000E0020F0AFFA00280FD069463000B2
:1029700001AA05F077FE009B002B07D02000154927
:1029800023F09FFF009BDD1E002D09DA310002229B
:102990002000FFF7BFFF20000F4923F092FFF7BD93
:1029A000019AAF00D3195B68D25920000B4924F07B
:1029B0004EF8019BDF19BA68002A05D120000649AC
:1029C00023F07FFF033DDFE72000054924F03FF8B7
:1029D000F8E7C04649FF0200596003006DFF02009E
:1029E00082FF020010B50400FFF77CFF054B006971
:1029F000984203D0431E9841C0B210BD200021F080
:102A0000B3FDFAE711C1000070B505000C0001200C
:102A10008D4203D0214B9D4201D1002070BD9942CF
:102A2000FBD001231D4204D01942F6D12B000D002A
:102A30001C002A001A4B1A40062A05D0AA0711D1F9
:102A4000184A296891420DD12340062B05D0A307CF
:102A5000E3D1144B22689A42DFD121002800FEF70F
:102A600095F8DBE72340062BD7D0A30703D10D4B06
:102A700022689A42D1D02800FFF734FF8369002BE7
:102A8000CBD0220029001B2098470028C5D0064B38
:102A9000C01A43425841C0B2C0E7C04610B102005C
:102AA000070080FF309A0200DCE30200104B10B5F3
:102AB000984219D00F4A0123904217D0184201D0F2
:102AC000184110BD830706D10B4B02689A4202D110
:102AD0000DF05CFBF5E71FF021FB084902000848F8
:102AE00005F01EFD0AF05EF90020EAE71800E8E7AD
:102AF000D4E30200DCE3020060B602008BFF0200B8
:102B0000E4A5020010B5C30705D4830706D1054B21
:102B100002689A4202D122F076FC10BDFFF7C6FF90
:102B2000FBE7C04660B60200104B70B50D000124F3
:102B3000984203D100230B6022000AE00C4B98421C
:102B400001D10C60F8E702002240204203D040107F
:102B50000860100070BD8307FBD1064B01689942E5
:102B6000F7D10DF013FB2860E6E7C046D4E302007E
:102B7000DCE3020060B60200184B10B5984228D082
:102B8000174B984227D0C30703D5401018F064F9BB
:102B900010BD0323184206D1124A0168914202D1A6
:102BA00022F03AFCF4E702001A40022A08D10E4A49
:102BB0000240062A04D0FF22D20580189843E7E796
:102BC0001FF0ACFA09490200094805F0A9FC0AF017
:102BD000E9F80020DCE7FE208005D9E7D4E3020015
:102BE000DCE3020060B60200070080FFA3FF0200E2
:102BF000E4A5020010B583070CD103680A4CA34278
:102C000002D122F0C2FC10BD084CA34202D123F035
:102C100050FDF8E71FF082FA05490200054805F06B
:102C20007FFC0AF0BFF8C04690C1020098E30200A2
:102C3000BDFF0200E4A5020013B50C0001A9FFF7D7
:102C4000D9FF019BA34206D022000349034805F0A7
:102C500067FC0AF0A7F813BDE0FF02005CA60200C3
:102C6000F7B506000D0014001F00D3070FD5541050
:102C70000194019B002B01DA5B190193019B002F4A
:102C80001BD0002B15DA002301930198FEBD100024
:102C900001A9FFF749FF0028EBD1200075681FF05C
:102CA0003DFA2A0003000A490A4805F039FC0AF0F7
:102CB00079F8AB42E9D90195E7E7002B01DBAB429C
:102CC000E3D372680449054805F02AFCEFE7C046E3
:102CD0000D000300E4A5020031000300D8A20200A9
:102CE00010B50400830710D10D4B02689A420CD135
:102CF0000C4B0340062B06D1C00822F0A8FC430071
:102D00000120184310BD8068F9E72000FFF7EAFDB5
:102D10004369181EF6D0210001209847F2E7C0460B
:102D2000508D0200070080FF164B70B50400002094
:102D30009C4203D0144DAC4201D1012070BD134B15
:102D400000209C42FAD00123260060101E401C4245
:102D500015D12000FFF7C6FD4369002B09D02100E3
:102D600030009847002804D0401B43425841C0B26D
:102D7000E4E72000FFF7B4FF0028DED00138431E4F
:102D80009841F4E7D4E30200DCE3020010B1020052
:102D900010B50400FFF7A4FF002809D120001FF0A0
:102DA000BDF904490200044805F0BAFB09F0FAFF36
:102DB00010BDC04647000300E4A5020070B5040042
:102DC0000E001500FFF78EFD036A002B05D02A00C8
:102DD000310020009847002818D120000C4E002D0B
:102DE00008D11FF09BF902000A49300005F098FB5A
:102DF00009F0D8FF042D04D11FF090F90649020014
:102E0000F3E71FF08BF905490200EEE770BDC046FD
:102E1000E4A502006800030093000300B40003006F
:102E200010B51FF092F9002802D102480AF0EEFF17
:102E300010BDC046E100030070B5050000291ADB93
:102E4000032912DC00240D4B5E5CB5210902280029
:102E500031431FF094F9002C04D009492800214384
:102E60001FF08DF9AE61EC6170BD01230239994309
:102E70000C00FE26E9E70024F226E6E7060103003F
:102E800080B0000010B50D4C206824F0A4FA002892
:102E900007D00B4B1B78002B03D1206803685B68BD
:102EA00098470023074A1370074A13700CF0BEF9C5
:102EB0000CF082FE11F0E2FD10BDC0465C2900203E
:102EC000332F0020322F0020A12F002070B50500E5
:102ED00094B0002804D13F481DF0E4FA14B070BD4E
:102EE00008A809F039FF041E19D12E68290004A88A
:102EF00001220EF0D3FE23002200310004A808F0C6
:102F000087FC0400032001F0B9F9200021F0A9FB9F
:102F10000120404201F0B2F909F03CFFDEE7012058
:102F2000404201F0ABF909992B48FFF717FD0998CA
:102F3000FFF7D8FC2949040009F0DCF90028CDD1BD
:102F40002000274909F0D6F90028C7D1099C694615
:102F5000200001AA05F086FB322102AA04A812F083
:102F6000E1FE009B022B05D9019B1E495A6802A86D
:102F700023F06DFD2000FFF7B5FC1B4BC2689A42A1
:102F800010D1236819495A6802A823F060FDE3684C
:102F9000002B07D05A68002A04D00022996802A8A2
:102FA000FFF7B8FC032001F069F904A823F013FF30
:102FB00006F036FF04A823F0E3FE0120404201F0B2
:102FC0005DF90B4B9A6C002A00D187E700229A64C6
:102FD00084E7C0460A0103002CE60200A8A502000F
:102FE00050A3020037010300DD830000400103000D
:102FF000102A0020F8B54E4C1321200025F0C9FA04
:103000002000032125F077FB4A4C012313212000E7
:10301000494A15F037FF01220221200015F062FF16
:10302000464C200013F00CF9454F3860200013F097
:1030300027FB444D2860102025F0AFFC04002968D0
:103040000025414E3A68330013F00CFD3F4B1C60E5
:103050003F4809F02BFCE120C00009F037FC3D4956
:103060003D480BF0B9FA09F0BDFE06F055FE02F03E
:10307000F5FB12F04BFF300024F0ECFD22F099F844
:1030800000F068FA02F07EFB01F0BCF90BF0FCF8EE
:10309000324C3348230088331D600BF01FFF0BF0C8
:1030A000FBFE0BF003F92F4F3B78012B0ED10023D1
:1030B00007211A002C4800F0ABFB031E1DD00100B5
:1030C000F820400000F0F8FCFFF700FF3B78002BF1
:1030D0002AD112F0F9F80028F8D0244820F056F947
:1030E0000BF0EAFE08220021214825F0E1FC230034
:1030F00098348C331D602560AAE7F822920211787B
:103100004D2909D15178502906D1F8205288194902
:1031100040001FF0D5FDD7E70122174917200AF01C
:10312000E7FB21F0C9FAD1E712F01EF9D3E7C04658
:103130003C2900205429002003230200DC29002020
:10314000582900205C2900206429002060290020E3
:10315000004000203C2900203C010020102A0020D3
:10316000852E0000EA000020440103004C0103000A
:10317000902A002004E0030088C1020010B5084C2A
:1031800006212000074A13F081FE2000064A074965
:1031900025F0F8FB00221E21054824F065FD10BD36
:1031A00064290020A4910200000000203D6E01006F
:1031B000DC29002010B5010083880120A02298405E
:1031C000054BD205D0500A7ACB8809315A4392B2C6
:1031D00023F0C6FE014810BD0C05000010B102002E
:1031E000F0B50C000500C18816000023220000681D
:1031F00085B0FFF735FD2F7A78430400002E18D0F4
:10320000042E19D101232C18A27A694652001A43C0
:103210000092627A38009A401A430192E27A9A4008
:103220001A430292227B9A40134303930DF0F2FB60
:103230000600300005B0F0BD30006A463900FFF7E7
:10324000FBFC00262B7AB34213D9009BB700F85839
:10325000FFF72CFCFF2802D907480AF011FC074BA6
:103260000F223B4113402A19D31801365872F6B287
:10327000E8E7034EDDE7C04690010300013200009D
:1032800010B10200F0B5080087B011001A001B4B06
:1032900003AC00930194032322F065FD03981FF013
:1032A000CEFA049F46B2059D1548002F03DDEB1EA4
:1032B000012B02D913480AF0E3FB280078430C30B5
:1032C00022F0AAFD104BBAB204006A430360868064
:1032D000C78005720021093025F0EAFB3300A022E7
:1032E0000321C133FF33D2059B00995001232000F5
:1032F000B3400649535007B0F0BDC0460C920200DF
:103300009F010300B80103002C9202000C0500008D
:1033100010B50400037AC28800215A43093025F011
:10332000C7FB2000FFF746FF004810BD10B10200A8
:1033300070B505000C200C0022F06EFD024B4560BC
:103340000360846070BDC0466892020010B523F02F
:103350002EFE014810BDC04610B1020010B5C307D3
:1033600008D483070ED10368094A934202D0094A60
:10337000934207D1FFF79AFB002801DD20F013F8F4
:10338000054810BDFFF7F8FB17F046FDF4E7C0460F
:1033900060B60200E4E3020010B1020001220B4B10
:1033A00010B51A600A4A51680029FCD0002151600A
:1033B000A1220131D2009A5859600323D017184036
:1033C0008018801021F0E2FF10BDC04600C0004010
:1033D000FCC0004010B5002804D1044812F0C4FC21
:1033E000034810BD0868FFF761FBF7E7E70300003B
:1033F00010B10200F0B5334B8BB007AC01940093D1
:1034000003230EF0B5FF0221089805AAFFF714FC6C
:1034100006AA02210998FFF70FFC0798FFF7ACFBFB
:10342000059B061C1868FFF7A7FB059B051C586841
:10343000FFF7A2FB069B071C1868FFF79DFB069B86
:10344000041C5868FFF798FB291C0390301C17F0E8
:103450001FFB291C061C381C17F01AFB011C301C12
:1034600017F028F8211C051C039817F011FB011C0C
:10347000281C17F0E7F9211C16F07EFE032206999E
:103480000B681A40022A03D10F4A1340062B10D1B1
:1034900003224B681A40022A03D10B4A1340062B21
:1034A00007D119F077FE17F0B7FC21F06FFF0BB0D2
:1034B000F0BD0323020002209A43044B1043C018BE
:1034C000F5E7C046E0930200070080FF000080801F
:1034D00080235B051869034B1B7843438020C0029F
:1034E000C01A70472F2F002080235B051869034BFB
:1034F0001B7843438020C002C01A7047302F002041
:1035000070B5084DC4012B680021181922F098FBF2
:103510002868054B00197F3000781B788342F0D271
:1035200070BDC046F42900202E2F002010B5C379AD
:103530000400002B08D0064A037981791068DB016A
:10354000C018013022F07CFB0023237210BDC0465E
:10355000F429002070B5F8248025A40223786D0595
:103560004D2B4CD12B698020E41A2B69C002E41A40
:103570002969001B16F00EFB2B4B2C4918702B6988
:10358000E21852185D421540294B2A4A9B1A2A4AD2
:103590009B188022520511699D4234D38020C002BD
:1035A000401B16F0F7FA254B01211870641B244BC1
:1035B000E4111C70A1240025224AE400116018784F
:1035C00021494D604B68002BFCD01359DBB283427C
:1035D000F7D21E4901330B7001235360FFF778FFC8
:1035E000037805001A4CFD2B0FD180235B05186969
:1035F000184BC009C018C0012818206070BD802475
:103600002B69E402AFE76D18C5E7FFF76DFF03789C
:10361000803DFD2B01D12560F0E7FFF765FFFD211F
:1036200022F00EFBF7E7C046302F0020FF87FFFF98
:103630001401002000000020C08503002F2F00206F
:103640002E2F002000D00040FCD00040312F002061
:10365000F4290020FFFFFF01F7B5254B254E1A780E
:10366000254B14001B7831680133E001405CFF28D2
:1036700028D00134E4B29C4200D101249442F4D118
:10368000802300255B051B69DB0901933368E70193
:10369000DA19DB5D00925A4253410098ED1822F08E
:1036A000E5FA002810D0002305E00099DA018A5CD1
:1036B000002A09D10133019A9342F6D13068C0192A
:1036C00022F0CAFA2000FEBD0B4B01341B78E4B295
:1036D00001339C4200D10124054B1B78A342D5D174
:1036E000002D02D01EF06EFEB7E7FF24EAE7C046C9
:1036F000312F0020F42900202E2F002070B583796F
:1037000004005B18DBB200257E2B02D08371002001
:103710000CE08571002A19D0FFF79EFF0600FF28F4
:1037200005D12079FFF7ECFE1C20257270BD0C4DF1
:1037300060792B68C001181831007F3022F080FAC0
:10374000F0012E686179301822F07AFA044B627920
:103750001B68D2019B187F331B786371D7E7C04683
:10376000F429002010B50F4B1A684379DB01D318F8
:1037700019007F310978FF2908D10179C901521850
:103780005278FF2A0BD08179914208D082790121A9
:103790009B1800225C78FFF7B1FF200010BD0124C8
:1037A0006442FAE7F4290020F7B506000D00012471
:1037B0000E4B1B7801930E4B1F68019BA34202D254
:1037C000FF242000FEBDE301F918FB5CFE2B09D1AC
:1037D0008B78AB4206D12A003000033125F03EF948
:1037E0000028EED00134E4B2E7E7C0462E2F0020D7
:1037F000F429002010B5054A03791068DB01C018D0
:10380000817800220330FCF7B9FD10BDF4290020B7
:10381000F0B585B006000D0002920393782948D8D0
:10382000FFF7C2FF029A03000400002A3CD0FF28E1
:1038300001D0FFF765FEFFF70FFF0400FF2803D15B
:103840001D491E4820F059FF1D4FC0013B68FE2155
:103850000190181822F0F4F93B68019AE9B298181F
:10386000023022F0EDF93868019B2A00C0183100BF
:1038700003300EF0F5FC0C2022F0CEFA039A114B27
:10388000002A00D0104B03600D4B04711B6844717B
:10389000E4011C19A37802338371029BC3710123D5
:1038A0000372039B437202E00298FF2BE3D105B041
:1038B000F0BD0020FBE7C046C40103007CA4020069
:1038C000F4290020ACB9020000B9020007B501A933
:1038D000FDF7AAF90199FFF767FFFF2803D1044913
:1038E000044820F00AFFFFF70BFE03480EBDC04658
:1038F000DA0103007CA4020010B10200F7B50192C6
:10390000027A05000091002A02D120480AF0B8F896
:10391000C479002C07D11E4902790968D201525C92
:103920007E27002A05D1092201241A606442200062
:10393000FEBD1749AB7908686979FA1AC9014118BF
:103940000E007F363678FF2E09D12E79F6018019C8
:103950004078FF2818D0C01A824200D9020001988E
:10396000061B964200D91600002EE0D0009A0133C3
:103970001019C918320025F07FF800223100280004
:10398000FFF7BCFEA419D4E70022E8E7E901030031
:10399000F4290020F7B50193037A04001500009183
:1039A000002B02D11A480AF06BF8C379002B07D01C
:1039B000184A03791268DB019B5C2F00002B0AD1A7
:1039C0000923019A136001256D422800FEBD009B6A
:1039D000BF1B9B190093002FF7D07E23A2799E1A5C
:1039E000BE4200D93E0060790A4B01321B68C0011B
:1039F00080180099320018180EF032FC01223100B4
:103A00002000FFF77BFE0028E1D0019B1860DAE779
:103A1000E9010300F4290020002170B5080022F01C
:103A200031FE012405000C4B1B78A34201D2280073
:103A300070BD0A4AE3011268D018D35CFE2B08D18E
:103A4000817800220330FCF799FC0100280010F077
:103A5000C9F80134E4B2E6E72E2F0020F429002053
:103A600073B501A9FDF7E0F80199FFF79DFEFF2866
:103A700003D10E490E4820F040FE00257E260D4B56
:103A80001C68C301E31859789B780233DBB2C2018A
:103A9000A2187F321078FF2804D1C81A401921F0EB
:103AA00075FC76BDF31AED180023F0E7DA01030088
:103AB0007CA40200F42900201FB5034A034B1FF029
:103AC000C2F805B000BDC046653700002D350000C6
:103AD000044B054A05481A60054A5A6000221A81BB
:103AE0007047C046FC2900202003070010B10200E7
:103AF00074696275F7B51600324A0B008832156892
:103B0000002D02D1304809F0BBFF02222F49304C72
:103B1000CA67A321C90064582E4FE4B2063439683D
:103B20002C19A14205D12C4B1A602C4B0193019802
:103B3000FEBD2578002832D1601C002B04D129005D
:103B4000FCF734FC01900BE05A68AA4200D92A0025
:103B50000100186824F099FF0123680003430193D2
:103B6000002E0ED0621953785B423360D3781179FE
:103B70001B0209040B43917852790B43120613433D
:103B800073603E68A91D6118721A200024F07DFF41
:103B90000223114A761B063E3E601360C7E7022DE2
:103BA00006D80023037043708370C3700E33D6E7CA
:103BB0002100042224F060FF0022E91E201DFCF7F2
:103BC000DDFBBFE7102A00200602030004E100E04D
:103BD00000100040082A002000E100E010B10200BF
:103BE0007FB5002101AA0800FFF784FF0A4B984225
:103BF0000FD00121019B03905A00029B0A438B4086
:103C00000492064A032013400B4303A905930CF0CA
:103C100001FF07B000BDC04610B10200FEFFFF7FEC
:103C2000002213B501AC11002000FFF763FF094B20
:103C300098420ED02378022B08D96378012B05D146
:103C4000A378002B02D1E378012B02D0024809F0BF
:103C500017FF16BD10B102001B02030002220B4B1E
:103C600010B5DA6700220121094B5A61094A116136
:103C70005A69002AFCD0084C88342068002803D0F8
:103C800022F0F9F80023236010BDC04604E100E0F3
:103C9000FC10004000100040102A002010B5FFF773
:103CA000DDFF014810BDC04610B10200F8B5FFF7B6
:103CB000D5FF364C267865780636013575432800E1
:103CC00022F0AAF8324A861916600022314B4519B3
:103CD00088331860304B01211D60304B5A608022C0
:103CE000D20511605A68002AFCD003212C4B615682
:103CF0002C4A00259950A178043A9950617A0832EB
:103D000099506168284A08269950217A274A284FF5
:103D100099500121274A9D5004329950264A9E50BD
:103D20008122247892042243A324E4001A5102241D
:103D3000224A9C50224A9F50224F043A9F501827F3
:103D4000214A9F50214AC0279850C12292009E507C
:103D50001F4ABF00D0591F4E0640C020000230430A
:103D6000D051C020400014501460102280301C58E4
:103D700022431A50184A5560596051680029FCD0F6
:103D80000021116101229A60F8BDC046FC29002083
:103D9000082A0020102A0020F8290020FC000040FA
:103DA000001000400C0500001C0500002405000068
:103DB000FFFF00002C050000140500003405000082
:103DC0003C0500002110010054050000040500001E
:103DD00000E100E0FF00FFFFFC10004010B5FFF71E
:103DE00065FF014810BDC04610B1020010B5FFF7D5
:103DF0006FFEFFF75BFF014810BDC04610B1020027
:103E0000F0B58DB016000490002802D06A4809F081
:103E1000FDFF6A4B09AA190031C931C203251A787E
:103E200006925A7805929A7803925A685D570192E1
:103E30001F7A5B7A02937368049A93424DD9D30038
:103E40000793079AB3689B181A68002A1BD0042AA4
:103E500019D05868FEF756FE079AB36804009858C0
:103E6000FCF7AEFA0200B538FF3806282FD815F057
:103E70007DFE040E151B21272900631EFA2B00D995
:103E800098E0E3B20693049B01330493D3E7631EE7
:103E9000FD2B00D98EE0E3B20593F4E7532C00D953
:103EA00088E0E3B20393EEE7072C00D982E0444BAD
:103EB0001D57E8E7022C00D97CE0E3B20293E2E769
:103EC0000194E0E7FF2C00D974E0E7B2DBE73D495D
:103ED0003D4804F025FB08F065FF3C4B09AC8833F6
:103EE0001B68002B11D1069BE5702370059B277280
:103EF0006370039BA370019B6360029B63722F4BF3
:103F000007CC07C332480DB0F0BD069B2B4E237083
:103F1000059B6370228833889A420ED0FFF79EFE7D
:103F2000039BE570A370019B27726360029B637221
:103F30000ECC0EC6FFF7BAFEE4E70222254BDA6785
:103F4000254B264A9C46002361464B610133136191
:103F500063465B69002BFBD0039809AB987001980E
:103F6000DD700A9002981F725872144852CB52C0EA
:103F70001B4B0398D550043BD05002980833D050C7
:103F80000198184B6146D050174BD75000234B6017
:103F90000133536063465B68002BFBD0002361460E
:103FA0000B610133C02193600222104B49005A502B
:103FB0001A60A7E70E498BE73B020300FC290020AB
:103FC00095020300560203005CA60200102A00209E
:103FD00010B1020004E100E0FC10004000100040BD
:103FE0000C0500001C0500002405000000E100E0B5
:103FF0006C020300214BF7B55A68214D002A03D00B
:1040000000225A600132AA601A69002A34D00022C4
:104010001A61A323DB00E8581A4BC2B2883319682F
:104020000C78A24201D2140008708023DB00EB5808
:10403000012B1FD1144E154A3768A31D1268019336
:10404000FB189A4216D3621C380024F015FDA923F0
:10405000DB00EB58621CBB5415F0DCFC3368020A31
:104060001C19E270020C2271019AA0709B18000EBC
:10407000607133600123AB60F7BDC046FC100040A7
:1040800000100040102A0020082A0020F8290020F3
:10409000F7B5314F00933B00883301921A680D0049
:1040A000002A02D12D4809F0EBFC02212C4B2D4CAB
:1040B000D96700232C4E6361013333616369002BA0
:1040C000FCD0A323DB00F3580099DBB269189942B6
:1040D00003D9AB423DD35B1B0093009B8837EB18A1
:1040E00013703B680100013318002A0024F0C4FC5F
:1040F000009B002B06D0386801351A000199401941
:1041000024F0BAFC00236360013333606368002B42
:10411000FCD00123B360002323612369002BFCD072
:1041200000236361013333616369002BFCD00023FA
:104130006360013373606368002BFCD00023C021EF
:10414000022223610133B360084B49005A501A60C0
:10415000F7BD1D000023BFE7102A00200602030060
:1041600004E100E0FC1000400010004000E100E02D
:1041700007B501A9FCF758FD020003210248019B85
:10418000FFF786FF01480EBD9102030010B1020047
:104190001FB5012201A9FEF743FE002301981A0072
:1041A0000299FFF775FF014805B000BD10B102008C
:1041B000F0B5802787B02B4D02907F422C78002CE1
:1041C0001CD063B2002B12DA6E787C40E4B2002E71
:1041D00014D0013CE4B2FF2C02D101350135EDE7EA
:1041E00004ABD81D0121067005F0DCFDF1E704AB3E
:1041F000D81D0121047005F0D5FDEFE705270298D1
:104200001FF0D1F80124A74227DD0025164E220019
:10421000290030000BF0B0FE6B4601901B79002B9B
:1042200015D0631E1A002900300003930BF0A4FE82
:10423000031E0CD12200290030000BF069FEFF2282
:10424000019B290013403000621E0BF061FE013516
:10425000052DDBD10134E4B2D5E7013F002FCED1EB
:1042600007B0F0BD9D0203001C00002010B5C8205F
:10427000FFF79EFF004810BD10B1020010B504000A
:10428000431C02D0024804F0ABF9024B1C6010BD85
:10429000382A00200C2A0020014B024A9A647047F9
:1042A000102A0020382A0020054B10B5186823F08A
:1042B0008EF8044B002800D1034B180010BDC046F7
:1042C0005C290020DCE30200D4E3020010B5034BBC
:1042D000186823F084F8024810BDC0465C2900200D
:1042E00010B1020010B5034B186823F0E6F821F076
:1042F0004DF810BD5C29002010B5034B186823F061
:10430000E3F821F043F810BD5C29002010B5034B01
:10431000186823F0E0F821F039F810BD5C2900207E
:1043200010B5034B186823F08BF821F02FF810BD5F
:104330005C29002030B593B00AF0BEFD184C200077
:1043400023F083FC174D286812F04AFA200023F06E
:1043500081FC0AF0A1FD20F02CFF1EF07CF9040086
:10436000296803A823F029F80F4B20000A93039B28
:104370000B93049B0C93059B0D93069B0E93079B3D
:104380000F93089B1093099B0193119321F064FCF8
:10439000200020220AA90DF063FF044813B030BDAD
:1043A000642900205C29002055BA11C010B1020018
:1043B000F7B5114C0500206823F009F8002802D158
:1043C0002800FFF7B7FF0D4E3378002B0ED10C4DB0
:1043D0002B78DAB20192002B08D1012720682F70C8
:1043E00003685B689847019B2B703770206812F058
:1043F000D3FA20F0CBFFFEBD5C290020322F002035
:10440000332F0020F0B58DB01EF025F90E4B026859
:104410009A4217D10469826808944469C368416864
:1044200009948469C0690A9484466C460591069291
:10443000079308A8E0C8E0C460462060034800680D
:1044400022F0A5FF0DB0F0BD55BA11C05C290020C7
:10445000F0B5040085B00D00100003A9A26A1E008B
:1044600021F036FB002809D12A000B490B4804F043
:1044700057F8636A1860002005B0F0BD0398FEF796
:1044800041FB0300B343F7D003002A000449009620
:10449000024804F045F8ECE73B0303006CA502007A
:1044A0005303030070B5137804000A3B1000DAB21E
:1044B0000F2A09D90A001148114904F031F80025E2
:1044C000636A1860280070BD00251A0243781A43F9
:1044D000E36A9D420AD1238C0025042BF2D10949BD
:1044E000064804F01DF8636A1860EBE7206BA9002A
:1044F00009589142E6D00135EBE7C0466CA50200B1
:104500007F0303009403030010B5040002481EF06B
:10451000D6FC206010BDC0466CA50200F7B50D00AA
:1045200007001100280021F0EDFA002604001449CC
:10453000042807D8A64209D028780A38C3B20F2B1E
:1045400006D91049786AFFF7DFFF00242000FEBD7E
:104550006B780002184321F07FF80235019024F0B7
:10456000FBFA0228EDD1019B1B78722BE9D1019B4C
:104570005A78330030339A42E3D10136DAE7C04645
:10458000AB030300DE030300F8B51E0013780D0033
:104590000A3BD9B204001B480F2904D818025378EB
:1045A000184321F059F80378174A1F000023517867
:1045B000B9421DD141788C4691788C4518D18178CB
:1045C0008C46D178614513D100290ED10E4A9B004B
:1045D000D05CB04208D933002A000C490C4803F0E3
:1045E0009FFF636A18600020F8BDC1780029EDD0F4
:1045F00001330432152BDAD12A000649044803F0AE
:104600008FFFEEE755810300360503001004030019
:104610006CA5020029040300F0B5137805000E0014
:10462000100085B0462B46D101A921F081FA019BEB
:10463000834240D003781A000A3A0F2A0AD80200AF
:104640000F2331002800FFF79FFF01248440200042
:1046500005B0F0BDB32B2ED121F065FA040021F096
:104660005DFA02900378B62B25D12200A73B3100DA
:104670002800FFF789FF012403A98440029821F054
:1046800057FA039B0290984203D09D2102A821F083
:104690005EFA0127029A039B9A42D8D00F23310079
:1046A0002800FFF771FF3B00834002981C4321F074
:1046B00035FA0290EEE732000349044803F030FF78
:1046C0006B6A00241860C2E7410403006CA5020075
:1046D000F0B50F0087B0040004A938001E00019255
:1046E00020F0BFFF019B0500002B0FD1A5239B00ED
:1046F0009F4205D1BF21090220001DF040FDBCE012
:10470000BC4B9F4200D082E0BB49F5E7019B012BE7
:1047100000D094E00A33FF339F4210D10100326889
:104720002000FFF7BFFE010020001DF071FD0028F2
:1047300000D0A2E0B149606AFFF7E6FE9DE0B04B11
:104740009F4209D1010032682000FFF7ABFE010053
:1047500020001DF0B4FDEAE7AA4B9F420AD10100F8
:104760000F2320003268FFF70FFF8E21C000C90120
:104770000143C1E70378622B31D1049B032B07D09F
:10478000052B2CD1C3785F2B29D103796E2B26D131
:104790000127002269789C4B7F425878884205D1D6
:1047A000A87884469878844500D11F780132033375
:1047B0000E2AF2D17B1C2AD0290032682000FFF794
:1047C00071FE049902000023052903D12B79773B60
:1047D00059424B41390020001DF037FDA7E78923DE
:1047E0009B009F4201D1894986E7894B9F4201D1B5
:1047F000884981E7884B9F4212D129002000326806
:10480000FFF70AFFFF231B02B421184215D0019BBA
:104810002A008249824803F083FE636A18602CE014
:10482000804B9F42F3D1290020003268FFF7F4FE4D
:10483000FF231B021842EAD1BC21090298E7019B21
:10484000022B00D025E17368774A1B780A3B0F2BB7
:104850004BD8974213D101000F2332682000FFF795
:1048600093FE2900070072680F232000FFF78CFEDB
:104870003900020020001DF0B5FC07B0F0BD6B4B05
:104880009F4215D18027FF012900326807232000AD
:10489000FFF77AFE29007268019007232000FFF7D6
:1048A00073FE39000300019A20001DF094FCE4E738
:1048B00000275F4B0133029303222800029924F062
:1048C00052F900280AD1EB78002B07D1584BBF00D2
:1048D000DF5D80233F01DB011F43D5E7029B0137EA
:1048E000043302930F2FE7D191E7974219D1802724
:1048F0000723290032682000FFF746FEFF23290026
:10490000019072682000FFF7A3FD019BBF010743E0
:1049100019023943F0E6A027EAE7C027E8E7E027D5
:10492000E6E7444B9F42F6D01E3B9F42F5D0424BF8
:104930009F42F4D0414B9F4251D0414B9F4250D0B7
:10494000404B9F424FD0404B9F424ED03F4B9F42E7
:104950004DD03F4B9F4200D059E705233D4A9B0075
:104960009B5A29003268029320000723FFF70CFEB0
:10497000766803903378452B6ED1300021F013F91F
:10498000002869D1300021F0CEF80378A62B63D13E
:1049900005A921F0CDF80599060021F0B3F8022809
:1049A0005AD1300021F0BAF807233200070029005D
:1049B0002000FFF7E9FD029B0600DB0454D51F230E
:1049C0003A0029002000FFF743FDF100039B029EFF
:1049D00080011E433143F826F6003040C8E600232C
:1049E000BCE70123BAE7019BB8E70323B6E704233A
:1049F000B4E7C046ED02000030BF0000BC04030075
:104A00000D02000011020000D004030072B6000085
:104A10002502000062B60000A30200008704030024
:104A20006CA502009E0200008D020000030200003F
:104A3000FA0403001E020000CB0200007202000014
:104A40007302000075020000C6020000C7020000E9
:104A5000C90200003CF402002A003F493F4803F02D
:104A60005FFD636A1860D2E66B4608229B5E002BEE
:104A700007DA3E233A0029002000FFF7E9FC40084E
:104A8000A3E77C233A0029002000FFF7E1FC80081F
:104A90009BE7019B032B00D0B9E69F239B009F421D
:104AA00021D100270723290032682000FFF76CFD81
:104AB00007232900726802902000FFF765FD1F237D
:104AC00029000190B2682000FFF7C2FC029B81011F
:104AD0003B431943019BD8004AE680273F01E1E7A9
:104AE00080277F01DEE71E4B9F42F6D01D4B9F4281
:104AF000F6D0093B9F4229D1C027072329003268FD
:104B00002000FFF741FD0723726801902900200073
:104B1000FFF73AFDB2687F01137802900A3B0F2B32
:104B20000BD8072329002000FFF72EFD029BD90098
:104B3000019B19430F438101EBE68023DB001F43F8
:104B4000290007232000FFF783FCEFE7064B9F4275
:104B500000D05CE6D027D0E75C0403006CA502001F
:104B60007D02000009020000CB02000003000020CB
:104B70007F2B03D8024AD05C8007C00F7047C04625
:104B80008A050300030000207F2B03D8024AD05C73
:104B90000007C00F7047C0468A05030003000020CD
:104BA0007F2B03D8024AD05C4007C00F7047C04635
:104BB0008A050300030000207F2B03D8024AD05C43
:104BC0004006C00F7047C0468A05030000237F28B7
:104BD00008D80C22044B195C0123114202D15F3822
:104BE00043424341180070478A0503000300002038
:104BF0007F2B03D8024AD05CC006C00F7047C04666
:104C00008A050300030000207F2B03D8024AD05CF2
:104C10008006C00F7047C0468A050300F0B58FB00C
:104C200007924268089394460368040003939B68C4
:104C300004300093634403600D001DF0D7FD06901F
:104C400060681DF0E9FD431C63600378A14A01938D
:104C5000831C6360437800210093C31C63608378E6
:104C60000493031D6360C378200002932300103374
:104C7000A360069B14309A1893000593C318E36051
:104C8000059B0C331A00099323F012FF009A069B30
:104C90009B1A049A0A939E1A371D009ABF0001239B
:104CA000E719AA4200D36EE0019A1A4207D12B00FD
:104CB000009A8949894803F033FC08F073F8009B97
:104CC00003369900089BB6005918009BA619E81AEC
:104CD0000BF0A0FE009B043F7060089A09999B00AE
:104CE00061189B1804399A4200D079E0079B002B89
:104CF00003D1019B1B0700D4D1E00223019A0026B7
:104D00001A400B92019A1A4204D0079820F0DDFB5A
:104D1000060038600027039BAD00DB680993089B01
:104D20005D19079B9F425ED10A9D029B0535039941
:104D3000AD00033362199B00CB181100029E002EB8
:104D400000D07DE0059B029920338900E3185218BA
:104D5000934200D97DE0009B143D9F00099B65199B
:104D6000DF19049B9E4200D27DE065680DA80D9579
:104D70001DF03CFD28180378451CFF2B00D09DE05A
:104D800065600FB0F0BD019A1A4205D00336544B4E
:104D9000B600A619043F7360079B002B16D1019B38
:104DA0001B0713D4009B029A9A1AAA4216D8029B98
:104DB000009A5B199B1A039A9B00D3182A00059945
:104DC0001C31611800980433824201D32B0084E720
:104DD0009000DE6840420E500132F3E72B0068E796
:104DE00001CA48617EE7009B049800221B189C467C
:104DF0002968944505D80B9B002B1CD1CA0839495A
:104E00000EE0099B90001858884212D1069B013B86
:104E10009B1A9B00E3185A69002A05D0CA08324938
:104E20002E4803F07DFB48E76A685A610137083570
:104E300077E70132DDE730006A6820F06FFBF5E7C5
:104E40000868002801D118680860013E0431043B5D
:104E500075E70432111F0968002900D078E79A1A13
:104E600022499210DCE72A69002A10D10820019B10
:104E7000396803420FD0029B039804339B001858F3
:104E8000043003F06FFE002805D043682B61013623
:104E9000043D043765E73A681549D208C0E7049B2A
:104EA000002B02D0134808F0B1FF019B9B0700D4F0
:104EB0005BE7049820F009FB386056E7069A561E17
:104EC000F61AB600A61970690BF0F0F870612800A8
:104ED00051E7C046FDFFFF3F0A060300E4A50200BC
:104EE00088C1020072060300430603009306030014
:104EF000C5060300F50603000139C9B2054B401889
:104F00008030054A197003781370044AD25C044B50
:104F10001A707047352F0020362F0020DB18030051
:104F2000342F00200131C9B2054B40188030054AAA
:104F3000197003781370044AD25C044B1A707047DE
:104F4000352F0020362F0020DB180300342F0020DF
:104F5000074A0B00904206D906490918C918064BA2
:104F6000C9180878704705490918C918044BF7E7AC
:104F7000A49200001C1703005B6DFFFF30070300C5
:104F80000083FFFF030020228033F0B51A707F25D5
:104F900000234F265F27040089B08130E15C0A00BE
:104FA0002A406F2A23D90A003A40C25401337F2B8A
:104FB000F4D1C04A137023001B22FF331A70FF2361
:104FC0000093BD4D5A1CD2B203922A70A2188032AF
:104FD0001278BA490A705B2A0ED1009B4032013325
:104FE000DBB22B700A70E254012009B0F0BD5F2AD9
:104FF000DBD90A003240D8E72E2A13D10233DBB2C4
:105000002B70E31880331B78AA480370AC48C35C4C
:10501000012003400B7005D1009B1B18DBB20093ED
:10502000E254DCE102200226A24B1A70A44B9B5CE6
:105030001840334200D097E0002B0AD01E007F2595
:105040005BB2AE430E70002B18DB9E4B9E4A1A607B
:10505000CBE720222B780A70E31880331A70009B6C
:105060000133DBB200932B70782B05D99B23009A78
:10507000A354039B0B70B7E7009BD1E7934B413AD6
:10508000D2B293499B5C8A5C1B021A430192019B3A
:10509000002101339BB218000193FFF759FF03066B
:1050A000F5D5012300271D00824E33702900019899
:1050B000FFF74EFF2B0005950135EDB2282859D199
:1050C000002F00D0337033780493049E0198731C32
:1050D000DBB219000493FFF73BFF2928F5D17F27A6
:1050E000049B0293029B019807930133DBB21900E2
:1050F0000293FFF72DFF38403D28F3D16E4B039A02
:105100001A706C4B06921D70069B2900E3188033C1
:1051100001981F78FFF71CFFB84228D16B1CDBB247
:10512000B54229D1654B039D1870059B0198013B41
:10513000DBB20593059A5F4B11001A70FFF708FF69
:10514000030600D5F9E05E4B5B4F1B5C38707F2B8C
:1051500018D9013DEDB2631980331B78574A3D7071
:1051600013709842E1D092E75A4B01938FE7534B6B
:1051700018708CE7012799E7069A1D000132D2B218
:105180000692C1E74D4E307020280FD12900200033
:10519000FFF7B2FE33787F2219005BB29143317082
:1051A000002B00DA73E7444B1D78BEE7232809D1B2
:1051B00029002000FFF7A0FE40223378134033700F
:1051C000F1D164E72E2806D129002000FFF794FED4
:1051D00008223378F2E726281CD129002000FFF7A7
:1051E0008BFE102233781342DDD13B78E2188032F7
:1051F00012783270482A00D049E7013BDBB23B709D
:10520000E31880331B78383A33709343432B00D034
:105210003DE7C8E7402806D129002000FFF76CFED3
:1052200004223378CAE75E2806D129002000FFF760
:1052300063FE20223378C1E72B280ED1013DEDB269
:105240003D70651980352B783370452BABD010221B
:105250009343492B00D01AE7A5E73A2804D0194B0D
:105260001D4A00201A60C0E629002000FFF744FE16
:105270002021124A13780B40137000D155E70E4BD2
:105280001D78F1E7492A00D001E7AA1CD2B2A21882
:10529000803212781A704E2A00D0F8E60335EDB24B
:1052A0000D70651980352A781A70472A00D112E1ED
:1052B000EDE6C046362F0020352F0020342F002089
:1052C000DB180300040000201C0703006119030021
:1052D00047190300A59200002607030060460870E6
:1052E000100052381A70012800D8F4E0442A00D186
:1052F000F1E04C2A16D0462A00D0C8E6EA1CD2B209
:10530000A218803212781A70552A00D0BFE60435F0
:10531000EDB20D70651980352A781A704C2A00D1CB
:10532000D9E0B4E60335EDB20D70651980352A7801
:105330001A70592A00D1CEE0A9E6069D28E0059909
:105340000198FFF705FE6E4B6E4F1B5C38707F2B8C
:1053500011D86D4E3070202843D129002000FFF76E
:10536000E1FD33787F211A005BB28A433270002B53
:1053700000DBB0E08BE60135EDB2631980331B78BA
:10538000614A3D701370984200D080E6059B0493FB
:10539000049B5E4E0133DBB205933370079A049B86
:1053A0009342CCD100257F27029B3370029901984C
:1053B000FFF7CEFD03003B403D2B04D0009A0132A5
:1053C000D2B20092A354029B0133DBB2020600D496
:1053D00092E0002D01D0029B3370069B0393039B48
:1053E000EFE5232809D129002000FFF79BFD40228B
:1053F0003378134033706ED149E62E2806D1290048
:105400002000FFF78FFD08223378F2E726281CD111
:1054100029002000FFF786FD1022337813403370F7
:1054200059D13B78E118803109783170482900D092
:105430002DE60133DBB23B70E31880331B78337009
:105440009343432B00D022E645E0402806D12900B3
:105450002000FFF767FD04223378CAE75E2806D1F3
:1054600029002000FFF75EFD20223378C1E72B28BA
:105470000ED10135EDB23D70651980352B78337052
:10548000452B28D010229343492B00D0FFE522E082
:105490003A2823D0252800D0E1E61A496B1CDBB25C
:1054A0000B70E31880331A78174B1A70452A00D016
:1054B000E8E6A81CC2B29446A21880321278134EB5
:1054C0007F2032700E4EB65C370076B287431F7075
:1054D000002E00DA02E70B4B1D7857E72900200069
:1054E000FFF720FD2021084A13780B40137000D1EC
:1054F0004CE7044B1D78F1E70125029356E7C046BF
:10550000DB180300352F0020342F0020362F002019
:1055100070B504000800FDF7C9FA0500431002D079
:105520000F4808F0ADFA20000E4903F057FC0028A0
:1055300007D0A02203216379D205C133FF339B003A
:105540009950012362799340A022D205002D04D006
:10555000A121C9000448535070BD0449FAE7C04670
:105560007B1903004CAB020010B102000C050000D7
:1055700070B505000800FDF799FA0B2303410400FC
:10558000DB0702D4094808F07BFA2800084903F039
:1055900025FCFF20A0226B798000C133A400FF33DB
:1055A00004409B00D20503489C5070BD9019030035
:1055B00044AB020010B1020010B50C49040003F026
:1055C0000DFCA022D205002805D004216379C13347
:1055D000FF339B00D150A223DB00D0586379D84021
:1055E000012318401FF0D2FE10BDC04644AB02009C
:1055F00010B5040003F0BEFB0A4B984205D00A4BDD
:10560000984202D0200003F0C3FBA0226379D205A8
:10561000C133FF339B0098580007800F1FF0B6FE80
:1056200010BDC04644AB02005CAB0200032370B562
:105630000B4005000800022B15D1194B0B40062B1F
:1056400011D0FDF799FA17F039FA0022154B15F031
:1056500093FC17F0CDF980230400DB00984205D3BA
:10566000114808F00DFAFDF721FAF4E728000F4978
:1056700003F0B4FB002807D0A02203216B79D205E8
:10568000C133FF339B0099502100687908F03CFE3C
:10569000002C03D12800064903F0A0FB054870BD8B
:1056A000070080FF0000E03F9D1903008CAB020063
:1056B0003CAB020010B1020013B50A49040003F02C
:1056C0008DFB05216846615613F006FB684613F012
:1056D00029FBA0230021044ADB00D1501FF056FE15
:1056E00016BDC0463CAB02000070004010B508007B
:1056F000FDF7DCF9FA239B00584308F0E1FD002890
:1057000002D0024808F0BCF9014810BDBE190300E0
:1057100010B1020010B50800FDF7C8F908F0D0FD7F
:10572000002802D0024808F0ABF9024810BDC0467C
:10573000BE19030010B1020010B5040003F01AFBFB
:105740000C4988420DD00C4B98420AD0200003F03F
:1057500045FBA02200216379D205C133FF339B00B2
:105760009950200009F0ACFD044B002800D0044BF8
:10577000180010BD74AB02005CAB0200DCE3020059
:10578000D4E30200A0230C220249DB055A50243145
:105790005A5070474407000010B50400FDF7A2F806
:1057A000064B984208D0064B984205D0054B9842CC
:1057B00002D0054808F02AFB200010BD9C99020089
:1057C0005498020090980200CD190300F8B5214EBC
:1057D0003568696801292DD9AB684C1E1A5D0A2A03
:1057E00028D15A1E002C01DC220008E0105D0A2896
:1057F000FAD0013CF6E7985C202802D101329142B0
:10580000F9D8002C0BDD501C814208D1601E002805
:1058100005D001381F5C0A2F0CD0202FF7D05B1861
:10582000023B1B78141B3A3B5A425341A408E4182C
:10583000013C00D2F8BD084F04223900280021F0B5
:1058400062FA0421380004F09FFA336904333361AB
:10585000EEE7C046642B0020797F030010B52022BC
:105860000021024823F024F910BDC046702A002010
:1058700002000800002110B5074B1A6052689960B9
:10588000197501395A60D9601A6198611DF07EFD61
:10589000FFF79CFF10BDC046642B0020F8B50378CD
:1058A0000400002B1BD00E4F386E002804D02100BE
:1058B00023F048F9002812D0200023F04DF9461CAF
:1058C000300020F0B6FA051E09D03200210023F086
:1058D000D3F81C220349044823F0D7F83D66F8BDED
:1058E000102A0020702A0020742A0020F0B5B84C3D
:1058F00002002068A568436885B00193002D00D0A0
:10590000FDE0531E042B11D8636801998B4200D12E
:1059100095E0012A00D12DE1022A07D123696268AE
:10592000934200D95CE10122524288E0032A00D16F
:1059300085E0042A00D133E1052A00D107E1062AD7
:105940000ED12369019A9342AD416D42002DEADDEB
:105950002368290098682369C01804F015FA1FE02D
:105960000B2A21D1019B2269991A21F0DCFA2368C4
:10597000019A5B68934204D213002269981A04F0DA
:1059800039FA2268236951689068C91AC01804F06E
:10599000FBF9236858682369C01A401B04F018FA01
:1059A00023695D192561BEE70E2A13D1E368002B38
:1059B000B9DB013B6268E360019B991A21F0B3FAFD
:1059C000E368002B18DB834A16339B00D3189968D1
:1059D00020680FE0102A16D1E368062BA3DC7D4A6D
:1059E0005D1C17339B00D318996800299BD063680E
:1059F000E560436021F05CFA63682269D61A226888
:105A00005568ED1A0AE0152A0CD1236962686168AD
:105A10009A1A21F08FFA236962689E1A0127002ED4
:105A20002FDCA4E70D2A0DD16B481DF0AFFC2068D8
:105A300021F0D1F96368C018FFF730FF0022100091
:105A400005B0F0BD01231B2A62D0082A01D07F2AAD
:105A500020D121696368994200D864E701228668F1
:105A6000D21AF75C202F13D1D71801339942F8D8F6
:105A70000126032F00DD03363200891B21F05AFA7C
:105A80000127300004F0A4F923699E1B26617BE006
:105A90000126F1E7092A28D1636822698068D11AB2
:105AA000C0184E4A03AB01F083FC071E00D13AE751
:105AB0000026431C0BD1A0691DF068FC63682269B5
:105AC000D11A22689068C01804F05EF94FE7236984
:105AD0002068F118039B01365A1C03921A7821F0B2
:105AE00010FAB742F3D13D0041E71300203B5E2B93
:105AF00000D918E7216921F00DFA012537E7012DBA
:105B000008D104234F2A03D002235B2A00D00023AC
:105B1000A36008E7022D20D11300303B092B03D8E6
:105B200003232275A360FEE60023A360412A00D16F
:105B300052E7422A00D139E7432A00D101E7442A3B
:105B400000D1EBE6482A15D0462A00D0EBE6002724
:105B5000019B22693E009D1A11E00021032D2DD1E9
:105B60000D000F000E007E2A09D1237D312B01D0BC
:105B7000372B0DD100252F00236962689E1A002360
:105B8000A3609E4200DD7CE7002F00D1DEE6EEE65A
:105B90001A00FB25343A2A42D9D00D00332BEED11E
:105BA0002169019B994206D2012221F0C3F9002507
:105BB00001272E00E3E700252F00FAE7042D04D18A
:105BC000462AC4D0482AD5D0A1E7A160ABE6C0469A
:105BD000642B0020102A00207C1D03002CE602000C
:105BE000002501262F004CE7044B88600B60044B16
:105BF00008004B600023CB607047C04668960200E7
:105C00005D28020013B50400080001A9FAF7F0FBB3
:105C1000002C03D0012C07D0002016BD019B0548A5
:105C2000002BFAD10448F8E701991CF0B6FD4000BA
:105C30002043F2E7DCE30200D4E30200F0B585B0D4
:105C40000400080003A91500FAF7D2FB0600002D96
:105C500007D10300039A20002F4920F0F8FE05B079
:105C6000F0BD039B0200C318002101200193019B9A
:105C7000934206D82727002900D0053F3A0027493C
:105C80001AE01378272B08D0223B5D426B41DBB230
:105C90000132002BEBD02727F0E700230100F7E7C4
:105CA00030001CF046FD050030001CF05EFD0600D3
:105CB000AF4205D13A001A49200020F0C8FE14E096
:105CC00018495C2D0ED02B00203B5E2B01D82A00FA
:105CD000D5E715490A2D05D014490D2D02D0092DFF
:105CE0000CD11349200020F0ECFD019BB342D7D822
:105CF0003A002000094920F0AAFEB0E7FF2D02D8A3
:105D00002A000C49D8E780232A000B495B029D42F8
:105D1000D2D30A49D0E7C0468BFA0200A6F90200A6
:105D2000A5F90200A9F90200ACF90200AFF90200DE
:105D3000B2F90200B5F90200DD190300E41903000D
:105D4000F7B51E0008AB1D78294B0C0017009842D0
:105D500006D12B0032003900FCF782FF2018FEBD6F
:105D6000F30715D576100196019BE719002B2ADA67
:105D7000781E00213F260127844219D9002900D02E
:105D800001932000002DEAD11A491B481EF0B5FCF2
:105D9000300001A9FCF7C8FE0028E5D130001CF056
:105DA000BDF916490200164802F0BAFB06F0FAFFE8
:105DB0000278B243802A01D039000133421E002B01
:105DC000CDD01000D8E72000002101243F26B842A2
:105DD00004D3002900D001933800D3E7013BBED3A0
:105DE000210001300278B243802AF0D10130F9E776
:105DF000508D0200131A0300D8A20200EB19030011
:105E0000E4A50200F0B587B004000E001700FCF70F
:105E100069FD02A905002000FAF7EAFA0400042F40
:105E20004FD1B30734D1284B32689A4230D105ABF9
:105E3000300004AA03A91CF07FFF059B234FBB423F
:105E400004D0032B02D0224808F00EF8039B260052
:105E5000BB4207D00122210000922800029AFFF7DE
:105E60006FFF0600029A049BA118BB4206D00121D5
:105E7000280000912100FFF763FF01000E208E42F1
:105E800004D88A1B280031001BF0A1F807B0F0BD30
:105E900000232100029A009328003300FFF750FFEF
:105EA0000023C35601210278002B06DA402301218A
:105EB00001E001315B081342FBD10122FAF75EFADF
:105EC000E4E70020E2E7C0463C9E020010B1020079
:105ED00027FA020010B504000C201FF09DFF034BB1
:105EE0004460036001235B42836010BD2C9B020071
:105EF00001220020074B08495A600860A821DA6097
:105F0000064AC9005A5006495A5004315A500549A8
:105F10005A50704700A000400CAC0040FCFF00004D
:105F2000440500004C050000034B04481B78002B7F
:105F300000D103487047C046382F0020DCE3020040
:105F4000D4E30200F7B5A827A925324B042019682D
:105F50009C46314B314E1A68FF008A188918196027
:105F60002F4B00911B7812110193019C2D4B0911AD
:105F7000ED00002C47D0002A3ADA821AD8515A5143
:105F800081229200002937DA27481A50521A9A5172
:105F90000122264CDA602378002B23D03F212448AD
:105FA000244B02688C331B68013211405D5C019BFD
:105FB000002B01D0803D6D001C236B4301600099D4
:105FC00008335B1A61469B100B601F2311001940B8
:105FD0001A4207D1184B1A78002A03D017481970B3
:105FE00009F09EF801232278042053402370FEBD5F
:105FF00004325851DA51C3E79A518122920089182C
:10600000094A9950C4E70432D8519A51812292002A
:106010005A51F4E7902B0020802B0020440500000B
:10602000D800002000A000404C050000372F0020C1
:10603000842B0020102A0020D90000201B290200F8
:106040001FB501220400080001A9FCF7E9FE029A2D
:10605000202A00D92022002301980434934203D03F
:10606000C15CE1540133F9E7014804B010BDC046FA
:1060700010B1020070B5040008001500FCF716FD11
:106080001F2802D90C4807F0FBFC002D02D10B4859
:1060900007F0BCFE2418042D04D1012023795B00F5
:1060A000184370BD2800FCF701FDFF2801D9044802
:1060B000E9E720710348F4E72D1A0300411A0300B1
:1060C0005EFA020010B102000A4B8000C018A22341
:1060D000DB0010B5C258084C09022240F824C25017
:1060E000C258640121401143C02292021143C150A1
:1060F00010BDC04600600040FFE0ECFF0123A0227D
:10610000834010B50C000E49D20553500300C13333
:106110000C49FF339B00995001002000FFF7D4FF8A
:10612000094BA100C918A2230322DB00CC58074861
:1061300022432043C850C046C046C046CA5010BD86
:106140000C0500000303000000600040031F000076
:10615000A0221E21114BD20070B59C58104D8C43CB
:106160009C50A324E4001D510E4C0F4D0F4E5C516A
:1061700004355E510E4D80005C51A5240D4DE400A8
:106180001D51084C0C4D00190C4C185104341D5174
:106190000B4C185198580143995070BD00F00140C4
:1061A00040A10040006000401C05000044A10040E8
:1061B0002405000048A100404CA100402C0500002F
:1061C0003405000010B504000A4902F007FE0A4B2E
:1061D000A0211C6001236079084A8340C9058B50C7
:1061E0000021FFF78BFF0020FFF7B2FF0022044BD6
:1061F0001A7010BD6CAB0200882B00200C0500004B
:10620000D800002070B50C000500134E20003100AE
:1062100002F0E4FD3100280002F0E0FD0F4BA02267
:106220001D600F4BD2051C60687901252900814053
:106230002E000C4BD15061798E400021D650FFF7D3
:106240005DFF29006079FFF759FF2800FFF780FF05
:10625000054B1D7070BDC0466CAB0200882B002042
:106260008C2B00200C050000D8000020F8B500247D
:10627000FFF73EFE1D4B200090331C6008F01EFF10
:10628000A0221E2001251A4B1A491C701A4BD2005D
:106290001C601A4B1A4F1C608B58A02683438B50EE
:1062A00020001F21FFF710FFA2232A00DB00FC5073
:1062B000144BF605186843799A401300124AB350FC
:1062C00002F076FD114B1B78A3420DD028001F2150
:1062D000FFF7FAFE0E4BFC500E4B186843799D40B9
:1062E000094BF55002F064FDF8BDC046102A0020AD
:1062F000382F002000F00140802B0020902B002040
:1063000000600040882B00200C050000D800002011
:10631000140500008C2B0020F0B53E4E0500330024
:1063200090331B688DB0002B03D1FFF79FFF0DB09A
:10633000F0BD002801D008F079F9684606F00CFDA0
:10634000002822D133009033186806F0ADFF040016
:1063500006F020FD002D01D008F072F92E4B20220E
:106360001D6833006D118C3301351B686D011540BC
:106370005D19002C2DD1903621002800346022F0C8
:1063800097FB0122254B1A70D1E7002D01D008F0B0
:1063900057F9019B2249186805F0ACFF002405005D
:1063A000A042DBD1019F3800FCF79CFA1D4B8342D1
:1063B0000BD1290001200AF02DFB2A000400F8600F
:1063C0001F211948F9F7DAFFA060019B0024B3648C
:1063D000C4E72000FCF786FA144B834209D033004F
:1063E00000229033124913481A601CF068FDB06413
:1063F0009DE763682B60A3686B60E368AB6023690B
:10640000EB6063692B61A3696B61E369AB61236A2C
:10641000EB61B6E7102A0020842B0020D900002071
:1064200030A50200C8A30200661A0300109C0200F7
:10643000861A0300E4A5020010B5FFF717FF014814
:1064400010BDC04610B10200F0B589B00593754B80
:106450000D001B7814000490002B01D0FFF706FFFD
:10646000714E8C363368002B06D16F4A4020903233
:1064700013601FF0D1FC3060802201276B4BD200EB
:106480006B4EDA676B4BF750FFF732FD00236A4A19
:10649000F021B3500432B3500832B350C222090382
:1064A0009200B150093AFF3AB350644B9D4200D07C
:1064B000A6E0AC4200D0A0E0614D07AC280002F09D
:1064C00081FC002804D028005E49277002F086FC79
:1064D0005D4D280002F076FC002805D0012328003D
:1064E0005849637002F07AFC584D280002F06AFCAB
:1064F000002805D0012328005249A37002F06EFC49
:10650000534B019300235A1C039207AA9B5C002B58
:106510003BD1019B039A043301930123022AF2D158
:106520004748FFF739F9FFF74DFE0021049806F0C0
:1065300081FE002501243F223B4B802190331860CF
:10654000444B1D70444B1C70444B1A60364B12195F
:106550008C33186822F0ACFA2800FFF7DDFE404BC0
:1065600050221C6034602F4E28003E49347008F0E1
:1065700071FD059BAB4252D02B4B3278002A4ED096
:106580009A6C002A4BD120BFF7E7A0220321019B80
:10659000D2051C68039F6379C133FF339B00995078
:1065A00007ABFB5C002B24D0294BBA00D558042341
:1065B000029301226379A0219A40A123C905DB003F
:1065C0002800CA501CF07BF9012812D16379A02160
:1065D0009840254BC905C85028001CF070F90028C8
:1065E00007D1029B013B0293002BE2D1290020003E
:1065F00012E0022F8DD00227D2E71C4807F006FCDC
:106600002800FFF7C9F80D4B05009C428BD02000F5
:10661000FFF7C2F801002800FFF7F4FD85E709B095
:10662000F0BDC046382F0020102A002004E100E011
:1066300000A00040FC0F00000405000010B10200A3
:10664000CC9802003CAB020014990200249902008D
:10665000DC9B0200372F0020D9000020842B002073
:106660000CAC0040455F00000C050000981A0300C8
:1066700010B5084B86B002AC0093019404230BF0D4
:1066800077FE02982379059A0499FFF7DDFE024808
:1066900006B010BDE89B020010B10200014B187853
:1066A000C0B27047382F002010B524201FF0B4FB73
:1066B0000400044B2022802108C022F0F9F92000B8
:1066C00010BDC046109C0200F8B5060008000C0082
:1066D0001500FCF707F92D4B834255D1701F0F2889
:1066E00052D813F043FA08082F51515151515151CA
:1066F000515151111138FFF7D7FF0700211D2022FA
:10670000043022F0C2F93C002800FCF7EBF81F4BE4
:10671000834239D10121052E02D0122E00D0023938
:106720000422FF20AB5CA65C803B4B439B19FF2BF4
:1067300002D9DB1701334343A3540132242AF1D198
:106740002000F8BDFFF7B0FF0600211D2022043015
:1067500022F09BF934002800FCF70EFA0F211CF000
:10676000E1F82100FF25221D24311378803B4343AB
:10677000DB138033FF2B02D9DB1701336B4313701C
:1067800001328A42F1D1DBE70024D9E7109C0200F4
:10679000F0B585B00C00F9F713FE03AA050002A9B5
:1067A0002000FCF727FA029E039B30001030800087
:1067B00001931FF031FB04002C220021103022F045
:1067C00077F965600025114BE6632360104BA360E9
:1067D000104BE360104B6361104BA361104BE361FE
:1067E000104B2362104B6362104B6363AE4202D1C5
:1067F000200005B0F0BD019BAF00D859F9F7E0FDCE
:1068000023004033D8510135F0E7C0468CB5020073
:106810003168000095680000B9090100510A0100C3
:1068200055680000450B01004109010090C10200BC
:1068300070B50C0005000B6805495A6820F007F98F
:1068400021682800220040310BF034FD70BDC046A5
:10685000564E0300136870B5002B12D10468E56B27
:106860004034AB4205D09E00A659B14202D1591C1A
:1068700002D170BD0133F4E702339B001B58136053
:10688000F7E7024902481DF038FFC046BA1A030074
:1068900034A10200F0B585B003930B000292019180
:1068A0000299C26B5F180500974206D03B0026494B
:1068B000264801F035FE06F075FA002138000AF08E
:1068C000A9F8019B04009E0032000399056008307E
:1068D00022F0D2F83000029B08309A0000212018E4
:1068E00022F0E6F8029BFF18039B9E19019BBB4216
:1068F00002D3200005B0F0BD3068F9F761FDEB6B05
:106900000200029340239C460021AC44029B994222
:1069100006D060468B00C058824206D1013106D1B4
:106920000B490A4801F0FCFDC5E70131EEE7E31829
:106930009968002901D00749F3E7726808369A6020
:10694000019B02330193D1E70A060300E4A502008C
:1069500072060300430603000022104B10491A6020
:1069600003001233FF3341185A701A7004338B42FC
:10697000FAD101000300002209310833FF311A70F7
:106980009A705A70DA7004338B42F8D1C3237F2295
:106990009B00C254034B044A1A607047942B00209A
:1069A0001103000004000020CE1A030070B500217E
:1069B00040250D4C8B00C318FF335A7C7F2A12D020
:1069C000A25C0131C9B22A42F4D05A7D7F2AF1D0AB
:1069D000A25C7F2AEED917269E57DA7D002EE9DDCC
:1069E0000132DA74E6E770BD601B0300F7B50024DE
:1069F00006002500AB00F318FF335A7C7F2A2ED007
:106A00009B7C6F1CE418E4B2FFB2EF2C15D9002474
:106A10000235230022003900300001940094EDB2C9
:106A20001BF0E5FF23007E22290030000194009432
:106A30001BF0DDFF0135EDB2DCE77D2AFAD8084B0B
:106A40009B5C01221342F5D0002439002300300062
:106A5000019400947D321BF0CAFF3D00EAE7F7BDC8
:106A6000B11B03000300F7B500214C4A1333FF3379
:106A70008218197004339A42FBD1FC239C460025EE
:106A8000844463462A001B690093009B9D4207D300
:106A90007F234432920013540120FEBD0D00F4E721
:106AA0006346DF687C5D602C01D9203CE4B2691C40
:106AB000009EC9B200238E4204D07B5C602B01D9BA
:106AC000203BDBB20026232C21D1303B092B02D9FD
:106AD000334B344A0CE00235E9B2009C8C420AD8B0
:106AE000FF2BF5D8437053B2002BD7DA2C4B2E4A2C
:106AF00000201A60D1E77C5C2500303D092DEFD8DD
:106B00000A256B430131303BE318C9B2E5E7F7B220
:106B10000197264FF75DA74211D1254FF75D2A2F28
:106B20000DD0BB420BD193000199C318FF335974A8
:106B30004178013202351975D2B2E9B2D3E7013694
:106B4000512EE4D100231A4D5E5DDFB22A2E0CD106
:106B5000164E9E5DA64208D19300C318FF335F74A2
:106B6000447801321C75D2B2BDE70133512BEBD111
:106B7000104D493B2E7AA64208D0013D002B02D190
:106B8000074B0D4AB4E7013BDBB2F3E7002BF7D02C
:106B900014004334A4000419A370A4E712030000F6
:106BA00004000020E31A0300D11A03009F1C030015
:106BB000F01C0300411D0300F11A030010B5113051
:106BC000084A0949FF3003787F2B00D110BD022409
:106BD0000457002C03DCCB5C43700430F3E7D35C38
:106BE000FAE7C0464F1C0300FF1B0300F0B5060088
:106BF000002785B0BD007519FF356C7C7F2C01D155
:106C000005B0F0BD0222204B791C9C461B5DC9B229
:106C100013421FD001203A0003421DD11B4B221802
:106C20001B1903935B78287DD2B20190E87C023473
:106C3000009030001BF0DBFE287D039B0190E87C78
:106C4000B91CC9B200909B783000E2B203371BF048
:106C5000CEFEF9B20F00CDE70132D2B213004433B9
:106C60009B009B5D002BF7D07F2B06D06246D25C49
:106C70001207EFD4243B012BECD9044B621C1B19E7
:106C800003935B78CFE7C046601B0300FF1B030044
:106C9000F0B50600002585B0AC003419FF34637CE4
:106CA000002B03D10135EFB23D00F5E77F2B00D17A
:106CB000DCE010216E4A6F1CD25CFFB20A420BD19D
:106CC0004E2B20D118220D21E37C6174217D00938D
:106CD0000023019139003FE0E37C217D9206D20F31
:106CE0000191009339000023300014321BF07FFE25
:106CF000637C352B00D097E0637B5E4AD35C5B07F7
:106D0000D2D5102362E04F2B03D11B22DBE71C22DC
:106D1000D9E7502BFBD052B2002A21DAE27C002ABC
:106D20001ED03A0044329200925D002A18D1A91C6C
:106D3000C9B28A00B218FF32507C03927F280FD06C
:106D40004B4A105C7F280BD9039AD27C002A07D0CB
:106D500000231F220193009330001BF048FEA3E79D
:106D6000172B08D0182B33D1637B414AD35C7F2B80
:106D70009AD913232AE0637B013DEDB2452B1BD149
:106D80001B3B63732A0043329200394B925D9A5C3D
:106D90007F2A89D90135EDB2AD007519FF356A7CBE
:106DA000002A59D09B5C7F2B00D87DE7EB7C002B21
:106DB00000D079E71E3309E0392B01D10D3BE0E724
:106DC0002B4AD35C7F2B00D86EE7122363746BE7EA
:106DD000202B05D1637B3C2B00D065E7163BF5E704
:106DE000482B14D1637D7F2B02D14B23637403E0C6
:106DF0001F4AD35C9B06F8D5637C1D4AD25CD20740
:106E000000D475E7627B202A20D10C3BDEE73C2BC7
:106E1000F2D1637D7F2B00D146E7154AD35C9B06F8
:106E200000D541E73F23D1E72A2B06D1237D2B2232
:106E30000193E37C009300234CE72C2B06D1237DA8
:106E40002D220193E37C0093002343E7452B99D047
:106E5000392B00D028E795E76A7D7F2A00D123E708
:106E60009B5C7F2B00D81FE71E23AFE705B0F0BD6A
:106E7000601B0300B11B0300F0B5002485B0019036
:106E8000E3B2019A44339B009B5CE5B27F2B32D086
:106E90005C4EF35CDB072CD56A1ED2B2019B4432F8
:106EA00092009A182B00584F013BDBB2002B23D0E5
:106EB00011787F2903D0795C043A7F29F4D90199AC
:106EC0009A008A18FF32517C7F290ED02027705CEF
:106ED000384204D04C48415C0420014205D0917CEA
:106EE000480884460131614491740133DBB29D420C
:106EF000E5D10134C4E70023022712E0730708D468
:106F0000F3070DD5029AFF32937CD9085B1A93746C
:106F100006E0039B9B7B9A080133D318039A937373
:106F2000634601999A008A181400FF34617C02922A
:106F30007F2964D0344A5E1CF0B256568446555CB4
:106F4000002E1EDA8100019841264118FF314D7C48
:106F500003917F2D00D0565D505D0100402001421D
:106F6000CCD1123D012DDBD80233DBB20199443381
:106F70009B005B5CD35C0342D2D0A37C013BA37437
:106F8000CEE708201F4E715C01420FD06346019985
:106F90009B00CB18FF33597C7F29C1D0525C3A4209
:106FA000BED006229A74013A9A73B9E73D421CD0CA
:106FB0000133DBB21A00019944329200525C002A7C
:106FC000F6D07F2AACD010498A5C3A42A8D0019A08
:106FD0009B00D318FF339A7C520801329A74029AAC
:106FE000FF32937C5B08013391E71023194297D05D
:106FF000637BD35C3B4293D0A37C023BBFE705B0ED
:10700000F0BDC046B11B0300601B030070B5040057
:10701000FFF7A2FC2000FFF725FD23000022FC3330
:10702000DA601A61904226D02500224E113533686D
:10703000FF35934203D029001F4800F049F8200093
:10704000FFF726FE2000FFF7B1FC2000FFF7B6FD9A
:107050002000FFF711FF2000FFF7C8FDC4222B001E
:107060009200A1181A78502A06D97F2A07D000204A
:10707000124B134A1A6070BD04338B42F2D133684D
:10708000002B02D00F4819F00DFA2000FFF7AEFCDC
:107090003368002B03D029000B4800F019F82000BA
:1070A0001BF079FC054B0949186821F04BFD434260
:1070B0005841E0E7A82B0020081B03000400002033
:1070C000171B03003D1B03004D1B0300CE1A0300DA
:1070D000F7B50600194D0C00280019F0E3F931004E
:1070E000174819F053F9174819F0DCF9164819F048
:1070F000D9F9FF239B00E61821787F2901D0A64209
:1071000006D1280019F0CEF9104819F0CBF9F7BDD7
:107110006278A37850290CD80D48475C0D48405C34
:10712000019300923B0002000B4819F02FF9043440
:10713000E2E70A4819F02AF9F9E7C0464A1D0300B8
:10714000771D03007F1D0300551E0300731E0300FF
:10715000F01C03009F1C0300A01D0300C31D0300BF
:10716000F0B51D008BB007901B4808920E0019F077
:1071700099F92900194819F009F9194819F092F9F3
:10718000184819F08FF90024A54204DC124819F0C0
:1071900089F90BB0F0BD0898A300005D0799F718B6
:1071A000BA78095D04903868F35C0003400E0390E0
:1071B000F8789B069B0E0993030902933F8800070A
:1071C000FF04000F7F0E0090099B074812090197EA
:1071D00019F0DCF80134D7E74A1D0300E41D030071
:1071E000111E0300431E0300751E0300F0B50F00BF
:1071F000002585B011001E000222104B039000955F
:1072000038000BF085F8B81C80001EF005FE040065
:10721000039B013F0360336847608360AF4202D83D
:10722000200005B0F0BD0135AB00F058002106F09C
:1072300001F82300AA0008339850EFE7FFFF000091
:10724000F7B503780400002B01D10020FEBD402BD0
:1072500020D101230193002304221E001D001900E8
:1072600094462278002A3ED101200029EEDC002D30
:10727000ECDC002EEADC033B8342E7D9013C2378B7
:107280005C2BE3D0019A002ADFD00A3B5A1E9341BF
:10729000D8B2DBE73F491BF0F9FB0028D9D1200029
:1072A0003D491BF0F3FB0028D3D120003B491BF0E4
:1072B000EDFB0028CDD1200039491BF0E7FB002869
:1072C000C7D1200037491BF0E1FB0028C1D12000C5
:1072D00035491BF0DBFB0028BBD1200033491BF0F4
:1072E000D5FB0190B7E76078272A0AD1002B46D05A
:1072F000032B02D127284AD143E0012B47D8012292
:1073000044E0222A11D11A006746BA4309D1222843
:1073100005D1A278222A02D16246023436E0002B3F
:1073200001D0022B33D1022230E05C2A0AD1272877
:1073300003D0222801D05C2804D11A00501E8241BB
:10734000A41824E0002B22D15D2A14D008D8292AC1
:107350000DD05B2A0DD0283A50424241891816E0E0
:107360007B2A0AD07D3A50424241B61A0FE00139D9
:107370000DE001350BE0013D09E0013607E027286B
:10738000BDD1A278272AB8D10234243AD31A0134C5
:1073900067E7C046771F0300971E03009D1E03008A
:1073A000A11E030077750300AE850300CB4C0300DC
:1073B000F0B58BB0079343180490059201930093A6
:1073C000009B5C1E049BA34201D9009310E020782F
:1073D000FDF7D8FB002801D00094F1E72078FDF7F5
:1073E000DDFB0028F8D123785F2BF5D02E2BF3D0CE
:1073F000834B1D68009C019B9C4202D223782E2B5C
:1074000021D1009BE71A019B9C4245D300240194A3
:1074100003940294AB68A3425AD8029B002B00D07D
:107420008AE0009B049A934233D1764C3A002100C3
:10743000180021F013FB00282BD1079BE41907301B
:107440001C60C01B26E00134D5E70136AB68B342AF
:107450001FD9EB683100180002931BF031FB0028A4
:10746000F3D0F3000393029BF200985809A9F9F7AF
:10747000DBFB099B0100BB42E7D13A00009821F0F9
:1074800072FB0028E1D1EB68039A9B18586800282A
:1074900004D100200BB0F0BD0026D7E7032318422B
:1074A0000CD10368584A934205D11BF0A9FD050091
:1074B000631C00939EE7554A934201D0FBF712FAF2
:1074C000856B002DE5D0524B2A689A42F0D0E0E758
:1074D000EE68210030001BF0F3FA00281DD0E30015
:1074E000985909A9F9F7A0FB099B06000693BB422E
:1074F00013D301003A00009821F035FB00280CD18D
:10750000039B002B12D03B00019A9A4202D3069AA9
:107510009A4204D2029B0133029301347AE7039A20
:10752000D15CF25C914205D10133EDE7069B0396F5
:107530000193EFE70193EDE7029B012B02D0019B42
:10754000BB4258D9039B079ADB191360019BD81BD8
:10755000A0E7EC68019920001BF0B2FA00282DD0BA
:10756000019B09A9DB001859F9F75EFB099B039001
:107570000493BB4222D301003A00009821F0F3FAB1
:10758000029000281AD133000F220F33DC17144069
:10759000E41824112401A41B012C00DC1034049AEB
:1075A00033199B18402B1FD8029B9C4214DC039973
:1075B00005981FF086F9099BF6183619019B0133CF
:1075C0000193AB68019A9342C3D8124905981FF002
:1075D00078F9012040425DE70F4905981FF071F9E5
:1075E000029B01330293DFE7039A0C4905981FF0D1
:1075F0002EFA099EE2E7002340260193E1E7C04608
:10760000102A0020A91E0300ECAA02008CB502007B
:1076100010C10200596003007C7F0300A51E030017
:1076200073B51500174A0B0050CA01281AD94A68C9
:1076300015498A4207D0940711D1144C1668A64206
:107640000DD11400160002280CD09A688A4209D085
:10765000910704D10D4910681400884202D000201F
:1076600006F0D4FB01A91868F9F7DEFA0100019AC7
:10767000002310201BF024FB32002900230006F019
:10768000B7F976BD102A002010B1020010C1020027
:1076900073B501A9F9F7C8FA019B06001648502BEB
:1076A00017D8802040001EF0B7FB144D04002B00BB
:1076B000943318600023019A9A420CD15B23200076
:1076C000A354FDF75FFC0022904209D19435286055
:1076D0000B4806F0D5F9F15CE1540133ECE70132D7
:1076E000A35C9B2BFBD12100064819F070FC002302
:1076F00094352B6076BDC046B11E0300102A0020D1
:10770000BF1E0300309A0200F0B58BB006000800DF
:1077100011001A0010AB1F78324B05AD0195009394
:1077200005230AF025FE912000011EF075FB2E4B6B
:107730002E4A1860059B47604370069B04A903709E
:10774000079B04008370089BC3702B7C3000136080
:10775000F9F76AFA0026264B03900C201E601EF0F3
:107760005BFB244B05000360FEF79EFFA860FEF75D
:107770009BFF214B214F1860214B3A001E70214B7B
:1077800039001E70204B68601E6028003300FEF731
:107790005BFE2000049A03991BF0F9F82000FFF724
:1077A00035FC0400B04207D1FEF760FD0E4B1C60B3
:1077B000164B186806F064F90122154B1A70FEF793
:1077C0006DFF0028FBD1134B94331860074B1B68E7
:1077D000002B04D00C4B1048196818F0D7FD380066
:1077E0000BB0F0BD1C9D0200A42A0020A82B002095
:1077F0009C2B0020689D0200982B002010B10200F5
:107800003B2F0020392F0020A02B00200400002057
:107810003A2F0020102A0020D51E0300030000206C
:107820000C4910B50A78D4B2824210D10A4A1078B5
:10783000002802D0012008701470084A1278002A2B
:1078400006D0074A136820331360064B186810BD32
:107850009868FCE7392F00203A2F00203B2F0020AA
:107860009C2B0020982B0020F8B5D22464004443C0
:10787000134A240C1368A34206D912480368013343
:1078800003601368203B13601F23250001270E4E61
:107890009D431068854211D823401D1D2800202DCE
:1078A00000D920200022834200D8C21A074B186852
:1078B000401921F0FDF8064B1C60F8BD3770E8E771
:1078C0009C2B0020A02B00203B2F0020982B002079
:1078D000A42B00200021F0B5070087B081641BF0C5
:1078E00056F9FB693C6ABB637B6AFC63002B05DAD3
:1078F0003A00062140321170013306E0002B07D018
:107900003A00052140321170013B7B6207B0F0BDA7
:10791000002833D0BB6A002B30D13900043340310A
:107920000B703A6BA94B786BD3185B001B5A013C68
:107930009C42EBD017D9F96A8A4207D30831490033
:107940001EF088FAFB6A78630833FB623B6B5A1CB3
:107950003A637A6B5B009C527B6ACDE7013B3B63E9
:107960007B6A013B7B623B6B984A9A185200125A21
:107970009442F3D3CAD002230B70C7E73C69631C5F
:1079800003D1002340373B70C0E738001BF032F9C9
:107990000490002800D130E13B00403305930023E0
:1079A000059A13703B69752B5BD0622B4ED17B69B6
:1079B000722B5BD10224049B01930B2339004031CD
:1079C0000A78002A59D10B70002C07D038001BF020
:1079D000AEF8022C02D138001BF0A9F827223B692F
:1079E0000292222B00D1029338001BF0A0F8012351
:1079F000029A03933B6993420BD113007A69934235
:107A000007D138001BF093F838001BF090F80323DF
:107A1000039300263C69631C00D1E5E0039B012B26
:107A200002D10A2C00D1DFE0039B9E4228D338000C
:107A3000310044301FF077FA012138001BF0A7F81D
:107A400038001BF0D7F80028ACD15FE7722B10D1BB
:107A5000049B7A69019301240A23622AAED1241976
:107A6000ABE701240A2300220192A7E701240B239C
:107A7000F9E700240A230194A0E79A42A4D045E73D
:107A8000029BA34209D138001900443001361FF08F
:107A9000BDF938001BF04BF8BCE75C2C00D09DE032
:107AA00038001BF044F8019B3D69002B06D03800DC
:107AB0005C2144301FF0AAF92C006AE0782D07D829
:107AC0005B2D0BD8222D4BD02AD8019E0A2DE0D059
:107AD0002C00303C072CEAD803256FE028005C38E6
:107AE0001C28F5D812F038F83CF4F4F4F40F28F41C
:107AF000F4F430F4F4F4F4F4F4F42CF4F4F426F4A0
:107B00002A322EF4610007243B0040331B780A2BF5
:107B100060D13800210044301FF078F90026B8E722
:107B2000552D13D0D4D8272D1AD04E2DD0D128487A
:107B300006F09AF90D24E7E70824E5E70924E3E7CE
:107B40000A24E1E70B24DFE70C24DDE73B004033A8
:107B50001B780B2B06D138005C2144301FF056F9FE
:107B60002C00D1E70426752D00D0B61900240EE0B4
:107B700038001AF0DCFF3D692800FDF71BF80028EB
:107B800000D151E128001AF02AFE24012418013EF8
:107B9000EED20026631C00D17BE788235B039C4266
:107BA000B2D30122059B1A70B8E70226DEE738003F
:107BB0001AF0BDFF3969E40030390C197B69303B9C
:107BC000072BE6D8013D002DF1D1E2E7FFFFFF7F53
:107BD000251F0300FF2CE4D80B2BE2D13800E1B2C3
:107BE00044301FF00AF999E7039B9E4200D31EE739
:107BF0003B00032240331A7019E72000FCF7C2FF54
:107C0000041E04D138695F2801D07F2841D93E0085
:107C100007233C004036337044343B692000D9B21E
:107C20001FF0EBF838001AF082FF3869431C1BD1B3
:107C300020001FF0D0F8002405007E4FA30028008C
:107C4000F95820F07FFF00281CD10D34E4B23470C5
:107C5000102C00D05AE6784BA8331A680F23002A5C
:107C600000D0023B337051E6FCF78CFF0028D4D1E2
:107C700038695F28D1D07F28CFD8FCF78FFF002844
:107C8000CBD1D5E7002800DA40E60134222CD5D14B
:107C90003CE6FCF783FF00280FD03E0039694036F0
:107CA0002E2916D1092333703D00443528001FF0DA
:107CB000ADF838001AF03BFF32E03B692E2B04D1BF
:107CC0007869FCF76BFF0028E7D1002602235B4DA3
:107CD0004BE0082333703029E6D17A691833134317
:107CE000623B0120162B02D8554ADA40904301240A
:107CF0004440D9E7002C17D1030020229343452BA1
:107D000012D13C3B6521337028001FF07FF838000A
:107D10001AF00DFF396902220B002B3B9343C5D0AB
:107D20003869431CE6D1F1E5FCF72CFF002805D0AB
:107D300039692E290BD109233370B7E73869FCF76D
:107D40002DFF0028F4D13B692E2BF1D0DEE50B008E
:107D5000202293434A2BA9D1EDE7633C9C43E4B234
:107D6000624254412D19013601352C78002C02D085
:107D70003A69A242F1D138001AF0D9FE002C02D1A2
:107D800001234037FFE5212C08D13B693D2BF7D17A
:107D900038001AF0CCFE40374123F4E532000135BB
:107DA0002E2C1ED13C003B6940342E2B02D17B6926
:107DB0002E2B02D04A232370A8E538001AF0B7FE14
:107DC00038001AF0B4FE0C23F5E76B7839690136F8
:107DD00099420FD138001AF0AAFE3200652C0BD060
:107DE00002352C7802212300633B8B43DBB2002B4E
:107DF00002D1EAE7632CF3D1124B9B5C3A0040328C
:107E00001900137004229143422901D0442B03D15D
:107E1000BB6A0133BB6279E5432902D0452B00D010
:107E200074E5BB6A013BF5E70122059B04001A706B
:107E30006AE6C046B49D0200102A0020E41E03003A
:107E400001204000A61F03000F2310B5194001298F
:107E500005D0022909D000290AD1030003E0064B0E
:107E6000002800D1054B180010BD1DF08FFAF4E773
:107E70001DF0A7FAF1E7C046DCE30200D4E30200FC
:107E800070B506000D00002814DD002907DD154837
:107E900011F00AFF0124B04209DB002407E00100D1
:107EA000C020000611F000FF0124A842F5DDE4B275
:107EB000200070BD002907DDC020000611F0F4FE8F
:107EC0000124B042F3DCE8E70024A042F0D0010036
:107ED000044811F0E9FE0123A84200DC231CDCB2B7
:107EE000E6E7C046FFFFFF3F70B504000D001049F4
:107EF0001EF0E7FC696801222000FAF70BFD0D4E29
:107F0000200031001EF0DDFCA96801222000FAF7F4
:107F100001FD310020001EF0D4FCE96801222000A0
:107F2000FAF7F8FC200004491EF0CBFC70BDC046F7
:107F3000D01F0300BFFE02006600030070B50600FC
:107F400010200D0014001DF067FF034B4660856094
:107F50000360C46070BDC0463C9E020010B5FAF7D5
:107F60000BFE054912F06EFC0323020002209A4327
:107F7000024B1043C01810BDE02E65420000808007
:107F800010B5FAF7F9FD054912F05CFC0323020075
:107F900002209A43024B1043C01810BD35FA8E3CA4
:107FA0000000808010B5FAF7E7FD011C12F01EFFFB
:107FB000024B002800D1024B180010BDDCE3020088
:107FC000D4E3020010B5FAF7D7FD4400640808496D
:107FD000201C12F00BFF002805D10549201C11F0D0
:107FE000B3FF002801D0034810BD0348FCE7C0469A
:107FF000FFFF7F7FD4E30200DCE3020010B5FAF755
:10800000BBFD034B034002201843024BC01810BDB8
:10801000FCFFFF7F0000808010B5FAF7ADFD440043
:1080200064080849201C12F0E1FE002807D1054928
:10803000201C11F07FFF002801D1034810BD034828
:10804000FCE7C046FFFF7F7FDCE30200D4E30200D1
:108050001FB500230193FAF78FFD01A915F06CF805
:108060000322030002200749934303435B18029352
:10807000019B934303435B1802A9039308F0CAFCD6
:1080800005B000BD0000808070B50D00FAF774FDEA
:10809000041C2800FAF770FD12F0BEFE0100201C3F
:1080A00015F026F80323020002209A43014B1043E7
:1080B000C01870BD000080801FB500230193FAF73F
:1080C0005BFD01A914F0F0FF032302249843074B42
:1080D0002043C018029001981DF058F902A903909E
:1080E000200008F097FC04B010BDC046000080805E
:1080F00070B50D00FAF740FD041C2800FAF73CFDAE
:10810000011C201C15F00AFA0323020002209A43E6
:10811000014B1043C01870BD0000808070B50D0089
:10812000FAF72AFD041C2800FAF726FD6400C00FA8
:10813000C30760081843032302249843014B2043DC
:10814000C01870BD0000808070B50D00FAF714FDF6
:10815000041C2800FAF710FD011C201C15F0B0F9D2
:108160000323020002209A43014B1043C01870BD44
:108170000000808010B5FAF7FFFC14F099FD03238E
:10818000020002209A43024B1043C01810BDC046A3
:108190000000808010B5FAF7EFFC15F071F90323A9
:1081A000020002209A43024B1043C01810BDC04683
:1081B0000000808010B5FAF7DFFC15F041F90323C9
:1081C000020002209A43024B1043C01810BDC04663
:1081D0000000808010B5FAF7CFFC15F0C9F8032332
:1081E000020002209A43024B1043C01810BDC04643
:1081F0000000808010B5FAF7BFFC15F07BF8032370
:10820000020002209A43024B1043C01810BDC04622
:108210000000808010B5FAF7AFFC14F0B9FE03231C
:10822000020002209A43024B1043C01810BDC04602
:108230000000808010B5FAF79FFC15F045F9032384
:10824000020002209A43024B1043C01810BDC046E2
:108250000000808070B50D00FAF78EFC041C280029
:10826000FAF78AFC011C201C15F0A2F90323020076
:1082700002209A43014B1043C01870BD000080805B
:1082800010B5FAF779FC0021041C11F049FE002812
:1082900002D0074805F0F4FB201C15F0E1F9032398
:1082A000020002209A43034B1043C01810BDC04681
:1082B000D71F03000000808070B5060008680D001D
:1082C000FAF75AFC0021041C11F034FE002802D0F9
:1082D000184805F0D5FB201C15F03EF9041C012EB2
:1082E00006D1032302209C432043134BC01870BDCA
:1082F0006868FAF741FC0021051C11F01BFE0028FC
:10830000E6D1FE21281C890511F004FE002803D0C7
:108310000A490B481CF0F1F9281C15F01DF9011C45
:10832000201C12F0C7F80323020002209A431043D6
:10833000DBE7C046D71F030000008080E91F030071
:1083400098A60200F0B50E00002485B011000700C9
:1083500022003000039300940C4B09F0D9FFB01CAD
:1083600080001DF059FD050007604660B44202D14F
:10837000280005B0F0BD039BA700D859002104F0E8
:1083800059FF2B000833D8510134EFE7FFFF0000FD
:10839000F7B505002C200E00170001931DF04EFDCF
:1083A0000400057086608781072D01D0012D10D152
:1083B000337872780A3B1B0213439BB2E381019B23
:1083C00020206375042363841DF026FDA062200035
:1083D000FEBD014B5B5DF1E7FA1F0300F7B50D0031
:1083E000110000220600009228001F000B4B09F02C
:1083F0008FFF10201DF01DFD041E08D1084B094AF7
:10840000094C5A62002320002660A360FEBD39009B
:10841000280008F0FFFAE060F4E7C046FFFF000024
:10842000102A002088C10200282A002010B5013837
:1084300010C908F0EFFAE060004810BD10B102006A
:10844000F8B57F2553B204000E0017001540002B2D
:108450001BDB6B1E012B18D80B6858681DF0FCF84D
:10846000010020001EF02DFA022D12D1200010492B
:108470001EF027FAF368002B02D05A68002A0ED1AA
:1084800020000C491EF01DFAF8BD022DEED0002D83
:10849000F0D03A002000F16808F060FAF4E7012A11
:1084A000F7D1002220009968FAF734FAECE7C046C9
:1084B000C64B030055810300C36803485A68002A6D
:1084C00000D098687047C04610B10200136810B51C
:1084D0001400002B0BD0FE23FF33994206D10C4B26
:1084E00052689A4202D10023C380236010BD094B19
:1084F000994201D1C368F8E7074B02689A42F5D167
:10850000064B9942F2D1FFF7D7FF2060EEE7C04655
:1085100010B102000502000030A50200EA020000CE
:108520000EB4F0B5060086B010200B9D1DF081FC46
:10853000041E0BD11A4B1B4A1B4C9E6118625A62D7
:10854000200006B0F0BC08BC03B01847002106604C
:108550008160012008F05EFA2521E0600600280015
:1085600020F0E2FA071E09D1280020F0F5FA3A00BF
:1085700001002800F7F702FFB060E1E7102102A830
:108580001EF0DDFB29000CAA02A801920DF0D6FB1B
:10859000064802A9E568F7F7BBFEA860D0E7C04629
:1085A000102A002088C10200282A0020309A0200E8
:1085B00010B5830708D1074B02689A4204D1064AD6
:1085C000C1680123914203D0044903F093FE0300E4
:1085D000180010BD8CB50200DD83000070A1020000
:1085E00010B50400FAF77EF9034BC2689A4200D036
:1085F00024690023A36010BDDD830000F8B51600D8
:108600001D0004000F00FAF76DF9154BC2689A427D
:1086100000D02469A068002811D10C301DF009FC9D
:10862000A06000280AD003236360E288A168930059
:10863000CB180332E2801F605E609D60F8BDE38866
:10864000A18802338B42F0DB0331012289001DF047
:108650000EFC0028F2D0A388A0600333A380E4E7D7
:10866000DD83000070B5150004000E00FAF73AF93A
:10867000064BC2689A4200D02469A368002B02D13D
:1086800033602B6070BDE2883260FAE7DD83000062
:10869000F8B5050010200C001F0016001DF0BCFBF3
:1086A000054B44608460A4190760C4606B60034B91
:1086B0002860AB60F8BDC046F32E0200092F02000F
:1086C00070B50400FAF70EF900230C49DA005218CD
:1086D0001568A54205D1516809481EF0F2F801203D
:1086E00070BD0133612BF1D1064B9C4203D09842FF
:1086F00001D00020F4E70449EEE7C046D4A602000A
:108700002CE6020050E7020001200300FF230322B1
:10871000DB05CB1810B59343042804D811F026FAD2
:1087200006030F0416000021080010BD0021181CCC
:1087300011F0F0FB0A490028F6D00A49F4E7181CAA
:1087400012F06AFB012140000143EDE78021090698
:108750005B18022193431943034BC918E4E7C04651
:10876000DCE30200D4E3020000008080FF23DB058D
:1087700010B50400C81803239843002386B0019362
:1087800006331022009302A9613303F033FE02A9DD
:1087900020001EF096F82E2102A820F0C5F900282E
:1087A0000FD1652102A820F0BFF9002809D16E2160
:1087B00002A820F0B9F9002803D1200002491EF0D8
:1087C00080F806B010BDC0469951030030B50C00CA
:1087D0001100002285B01D0020000123009209F045
:1087E00097FD002C23D02868124B0340062B06D09F
:1087F000032420420ED1104B02689A420AD103A9E9
:10880000F8F712FA0022039913000092F9F738FFE3
:1088100005B030BD03002340022BF9D0FAF7ACF9C4
:1088200003000220A3431843044BC018F0E7044898
:10883000EEE7C046070080FF309A0200000080800B
:108840000200808070B5050086B010000191FAF733
:1088500093F9041C0390681F182800D9B9E011F09F
:1088600085F90D121F24333E6B7DB8B8B8B8B80D2A
:10887000121F24333E6B9BA4A9AEB3000198211CA8
:1088800011F07AFC03E00198211C12F001F901902B
:1088900003230198504A9843013B03439B1878E017
:1088A0000198211C11F0CEFFF1E70021201C11F0EE
:1088B00031FB002803D0494949481BF01EFF03A99A
:1088C00001A81AF02DFBE3E70021201C11F022FB88
:1088D0000028F0D10198211C11F0ECFDD7E7002110
:1088E000201C11F017FB0028E5D1211C019814F081
:1088F00015FE0021051C019011F00CFB002807D08B
:10890000039A0023002A01DA80231B060193BFE7A4
:108910000021281C11F004FB431E9841039E040013
:108920000021301C11F0FCFA431E9841E4B284424D
:10893000AED0311C281CA3E7019D0021281C11F09A
:10894000E9FA002805D00021201C11F0E9FA0028DE
:10895000B1D1211C281C14F02BFE98E70021201C0B
:1089600011F0D8FA0028A6D103A901A81AF0D8FA64
:1089700003220220019B1849934303435B1804938D
:10898000039B934303435B1804A9059308F042F843
:108990000300180006B070BD0199201C11F0D4FA34
:1089A000104B0028F5D1104BF3E70199201C11F072
:1089B000B7FAF5E70199201C11F0ACFAF0E701993C
:1089C000201C11F0CBFAEBE70199201C11F0B2FA50
:1089D000E6E70023DDE7C04600008080E91F0300D2
:1089E00098A60200DCE30200D4E3020070B5150093
:1089F00012680C004068002A0AD1CC00062104301D
:108A0000214300F0AFF8002801D043682B6070BD0F
:108A100003799B070BD50C4B9842F8D10B4EF36DA5
:108A2000002B03D101201CF050FDF065F06D0621F4
:108A30006A68E4002143002A03D11CF079FD002379
:108A4000E4E71CF06BFDFAE7D4AC0200102A00202A
:108A500010B50400486800220749043000F082F88D
:108A6000064A002803D04068F8F7C8F80200200042
:108A700003491DF0ECFF10BD960F00005581030067
:108A80000846030070B50626C000064301223100E7
:108A90000B4800F067F844680500002C0ED1082050
:108AA0001DF0BAF9074B0400036001201CF00DFD16
:108AB0003200054960601CF031FD6C60200070BD23
:108AC0004C2A0020ECAA0200960F000010B50C0002
:108AD0000621C00001430122024800F043F844602F
:108AE00010BDC0464C2A002073B50626C3001E43A5
:108AF000050000223100104800F034F8041E18D19F
:108B0000020031000D4800F02DF8041E12D0EC21B7
:108B10006A464068FF3104F00FFB009B002B08D031
:108B200000216A4608001BF0ABFD28006168FFF7D2
:108B3000CDFF6468200076BD4C2A002018AA0200F0
:108B40000300002206495000405A984206D20132E2
:108B5000222AF8D15808C318012018437047C0468C
:108B600054F40200F0B5037887B004000E000092C0
:108B70009A0702D5009A002A14D1DA07D10F029180
:108B8000002A12D0794A3240062A0ED00322310040
:108B90001140164203D1764A3068904204D0009AC0
:108BA000012A02D0002550E002915B075AD52368C4
:108BB000A568DF08FF00EF19BD422DD3009B012BF4
:108BC000F0D12368D9086368994210D104316160FB
:108BD000A068C9001DF03EF923686268DB08D21A5C
:108BE000DB00A0600021D200C0181FF061FF072148
:108BF0002368DD086A1C0B40D20013432360A3687E
:108C00005A49ED005D192E600E40062E1DD001223E
:108C100023789343237018E02868B04218D1009B52
:108C2000022B12D1290023687A1B083B6E682800AA
:108C30002360083A08311FF028FF2368DD08A36885
:108C4000ED005D1900236E602B60280007B0F0BDB9
:108C5000029B002B04D13100F9F7D6FE0028DED1AB
:108C60000835A9E76368002B05D1009B012B99D13A
:108C700020001AF0EEF93D4B33400593062B28D126
:108C8000F0081CF0DFFC04906168049811F008F80B
:108C900000270391039B0193019BDD00A3685D19ED
:108CA000286800281CD1009B012B00D07AE70721FF
:108CB0002368DA080132D2000B4013432360002FEF
:108CC00000D03D0000236B60059B2E60062B9ED1DB
:108CD000BBE73100022004F045F943100493D3E7C9
:108CE00004281ED1002F00D12F00019861680130A7
:108CF00010F0D6FF039B01918B42CDD1009B012B3D
:108D000000D04FE7002F2CD023683D0008332360AC
:108D100000237B60059B3E60062B96D02378009A4B
:108D200077E7B04212D1009B022B00D08DE7236879
:108D30000198083B23606168013010F0B1FFA3681F
:108D4000C900CB58002B0AD12B607EE7029B002B79
:108D5000CBD13100F9F758FE0028C6D0E3E7042351
:108D6000F2E720001AF075F98EE7C046070080FF91
:108D7000309A02000379044AD35C002B00D1837936
:108D8000D800024B181870473C2F002034AB02006B
:108D900010B50400FFF7EEFF22790368024903488B
:108DA000FFF7BEFB03F0FEFF164603005CA60200C1
:108DB000002803D001210379014AD1547047C046ED
:108DC0003C2F002010B5FFF7D5FF034B4068C01AB9
:108DD000431E9841C0B210BD918D000070B50500D2
:108DE0000C00FFF7C7FF0C4E030032002832904200
:108DF00004D132001032002094420BD00020A34254
:108E000008D028005B68984701202B79034AA41BEF
:108E1000E410D45470BDC04634AB02003C2F002097
:108E2000F0B587B0002807D1604B614819681DF084
:108E300048FD604807B0F0BD0C685F4B9C4251D1C3
:108E4000002108001DF01EFC0024050003905B4B70
:108E50005A680192944215D30026594A03A9012069
:108E60000AF01EFF039805AA04A91DF022FC049B2A
:108E700003339B080193019B4D4DB34210D1280051
:108E80005049D4E79B680193019AE300995800295F
:108E900004D0042902D028000AF0A4FE0134D6E749
:108EA0003700059ABB009858F7F7A8FE0100280084
:108EB0001DF007FD019BFF18049B9F420CD212235B
:108EC0001C1A002C06DD013CEBD328003E491DF0A6
:108ED000F8FCF8E71234F4E728003C491DF0F1FCF7
:108EE0000136C8E72000F9F7FDFC394B42689A4289
:108EF00000D164682000FFF7E3FB061E99D12C4DDA
:108F0000344928001DF0DDFC31002000F9F71CFD7C
:108F1000200019F003F93049020028001DF097FDE8
:108F2000A30732D123682D4A93422BD120001AF097
:108F300067F81CF008FB00260400B04200D178E777
:108F400063689E4200D374E7A268F300D3181F68D9
:108F5000002F15D05B682249280001931DF0B1FC59
:108F600000213800F9F7F0FC1E4928001DF0A9FC8B
:108F700000210198F9F7E8FC280014491DF0A1FC34
:108F80000136DDE7184A934203D02000F9F7AAFC26
:108F90000400A06B002800D14BE7830700D048E70E
:108FA000124B02689A4200D043E7C2E70800002053
:108FB0002CE6020010B102006614000018AA02009C
:108FC00028AB0200284603007C7F030059600300A1
:108FD0000F0200004C46030054460300ECAA0200B6
:108FE0007B7F0300644603008CB5020010C10200C1
:108FF000014B58687047C046102A0020014B186882
:109000007047C046102A0020F0B5194F87B03B6862
:10901000050000200C0001931CF057FA3860009006
:1090200020681BF01EFB019B06003B60114F022DC8
:1090300003D0A068F9F756FC0700210063680831E7
:10904000A81E039307F0E6FC009B04900593002202
:1090500003AB0321380003F0F9FF074B04009E42E5
:1090600003D0010030001CF023F9200007B0F0BD50
:10907000102A00208CB5020010B102001FB569460D
:1090800004F0D8F80400200004F036F9002802D1DA
:10909000044804B010BDF9F747FE0028F3D1024898
:1090A000F7E7C046DCE30200D4E302001FB56946DF
:1090B00004F0C0F80400200004F01EF9002802D1DA
:1090C000044804B010BDF9F72FFE0028F3D0024881
:1090D000F7E7C046D4E30200DCE3020010B5F9F77D
:1090E00081FC034B002800D1024B180010BDC04684
:1090F000DCE30200D4E3020037B5F9F7D7FC030044
:1091000001A87F2B05D8012103700122F7F736F95A
:109110003EBD80219A0909018B420BD24021494270
:109120000A4302703F221A4080235B42134343707C
:109130004231EAE78024190B6402A3420ED22024B4
:1091400064422143017080215F3449422240234020
:109150000A431943817042700321D6E788246403CF
:10916000A34212D210249D0C64422C4304703F256C
:109170008024294064422A402B4021432243234338
:10918000417082700421C370BFE7014804F078FC8D
:10919000694603007FB50B00012803D10021186840
:1091A000F9F7D2FB102102A81DF0C9FD0C4902A855
:1091B00019F04AFB032804D10A4819F073FE03F0A2
:1091C000F1FD039B0193002B03D1042801D1064834
:1091D000F3E702A90548F7F79BF807B000BDC046C2
:1091E0005581030050A30200ACA10200309A020096
:1091F000F0B589B0019202900D0000222F4901982C
:109200000393FFF7AFFC0090002801D04368009360
:10921000029B012B15D000273C000197029B9F4227
:1092200025D0009B2E68002B04D0310018001BF0C5
:109230001FFA0600002C38D12C680196013704353E
:10924000ECE70024286804A903F0F4FF270002904B
:10925000029804F051F8051E0CD1002C07D1220011
:1092600017490198FFF77EFC00281BD044682000B6
:1092700009B0F0BD009B2E00002B04D0290018007F
:109280001BF0F6F90600002C09D03A0031000398D3
:1092900004F0FEFB0B4B834201D025003E002C0066
:1092A0003700D5E7084804F0EBFB3100019A03983A
:1092B00004F0EEFB034B8342C0D1BDE77613000000
:1092C0003E110000DCE302008A46030037B501A925
:1092D0000500F7F7A9FC1E4B04002B40062B05D018
:1092E000AB072BD11B4B2A689A4227D1200001994A
:1092F00019F053FA0190012823D10023E356207876
:10930000002B04DB012023785B0018433EBD7F2344
:10931000013418403F3B034208D13F222378190013
:109320009143802905D01CF031F8EFE798435B109A
:10933000F1E78001134001341843EFE7019B012B53
:10934000E0D0019A04490548FFF7EAF803F02AFD46
:10935000070080FF309A0200A3460300E4A5020044
:10936000F0B5150087B00022029003912800234930
:10937000FFF7F8FB0022040021492800FFF7F2FB69
:10938000012305001F4E04930593002C07D060684D
:109390001D4B984203D004A9F7F746FC06001B4C6E
:1093A000002D07D06868184B984203D005A9F7F73D
:1093B0003BFC04000025029B154F9D420AD100236F
:1093C00021003800059A019300930BF03FFC0E48F2
:1093D00007B0F0BD002D07D0002331003800049AFB
:1093E000019300930BF032FC0399AB00002238008C
:1093F000C958F9F78FFA0135DDE7C046B615000008
:10940000A61100007C7F030010B102005960030028
:109410002CE6020010B5040086B06A4602A81021AE
:109420000CF080FC012221006846F9F773FA02A9CA
:109430000248F6F76DFF06B010BDC046309A020034
:1094400070B50C68E30726D4A30703D1174B226835
:109450009A4220D0012820D94868F9F727FB060056
:109460002000F9F789FB051C300011F0F5FC011C08
:109470000F4814F09DF8011C041C281C11F0E2F99F
:1094800013F088FE211C11F015F8032302249843E1
:10949000084B0443E418200070BD2000F9F76CFB72
:1094A00013F078FE03F0C0FA0400F4E760B602009F
:1094B000000020410000808030B50B00140085B012
:1094C000012802D9094804F0A1FC09480121C26819
:1094D0000192019D0022A8472200039003A90120C8
:1094E0000AF0DEFB039805B030BDC046DD46030040
:1094F00098E3020013B504000800F6F761FF6A461E
:109500000100200003F018FE009B0248002B00D150
:10951000014816BDDCE30200D4E3020037B50024A5
:10952000022800D98C6848680D68F6F749FF0A4B95
:109530000100002C00D0094B6A4628009847009B88
:10954000002B07D001991C00002903D01800F9F75F
:10955000EFFE040020003EBD9DD1000039D1000087
:1095600070B5040008001500F6F72AFF2A00010074
:10957000200003F03BFE014870BDC04610B1020060
:10958000F8B50327060004003E40022E16D10E4B0C
:109590000340062B12D0FF23DB05C518BD43002175
:1095A000281C10F0BDFC002806D080231B06ED18F7
:1095B000BD43064B3543EC182000F8BD200006F0F3
:1095C000BDFD0400F8E7C046070080FF0000808072
:1095D00010B503F069FE002804D1034819F062FCBD
:1095E00003F0E0FB10BDC04630A5020010B5022814
:1095F00003D0044904481BF080F80B2006C904F08E
:1096000047FA10BD0847030040A402007FB50D4D86
:109610000400A84213D00C4E012201003000F9F7DB
:1096200079F90A4930001DF04CF904230293084BE4
:109630000321DB690748039402AA01939847280095
:1096400004B070BD10B102002CE6020059600300A6
:10965000ECAA0200CCAC0200F8B504000E00002811
:109660000ED1284B1D68002108001DF00BF80027C3
:109670000600BD4232D10025AC423ED13000F8BDDB
:109680000868830714D103681F4A93420DD119F06B
:10969000B7FC05003068F9F725F91C4BC2680024B7
:1096A0009A42E0D134680434DDE7194A934201D08C
:1096B000F9F718F9856B002DECD0164B2A689A4201
:1096C000E8D00025E6E7EA68FB009958002904D0B5
:1096D000042902D030000AF085FA0137AB68BB429A
:1096E000F1D8C8E7A268EB009958002904D00429F2
:1096F00002D030000AF076FA01356368AB42F1D847
:10970000BCE7C046102A0020ECAA020089BC000079
:109710008CB5020010C10200002803D0012807D038
:10972000002070478B680448002BFAD10348F8E703
:109730008B685B001843F4E7DCE30200D4E302002B
:10974000034B48600B60002308008B60CB607047C0
:10975000C4AF02007FB504000122080001A9F9F797
:109760005FFB0022217940200AF0D8FC01000500AF
:10977000029810F00FFA636806001A0A824218D2A3
:10978000A368C1186943E0681CF064FB6368E0608B
:10979000DBB22A00A06863606843E3687243019902
:1097A00018181FF069F9A36804489E19A66004B050
:1097B00070BD121A1202DBB21343EAE710B10200C5
:1097C000F7B5FF27466804000191BE431DD1320062
:1097D000017940200AF0A2FC636805003B40802725
:1097E000A1683F011F43083141436760E0681CF0F6
:1097F00031FB6368E0601A0AA368013A01336A43E7
:109800005D43310040191FF053F92079019BA26894
:10981000E1680AF031FEA36803480133A36063687E
:10982000013BFF3B6360FEBD10B10200F8B50022B2
:1098300006000D00010040200AF070FC0700102017
:109840001CF0EAFA084B0400012E00D0074B280058
:109850002671236063687843DBB2A56063601CF007
:10986000DBFAE0602000F8BD5CB0020020B002002E
:1098700070B50500140086B0002A2ED003230E0018
:1098800080681E4019422DD1214B0A689A4229D185
:1098900003AA08F011F8002802D11E4804F0E4FAE7
:1098A000042C1DD13200297940200AF037FC049B9A
:1098B00006000093039B28790193019A009B991A53
:1098C000FFF7B4FF0399049A0400521A72434E43FF
:1098D000E968C06889191FF0CFF8200006B070BD94
:1098E0003400FAE70A00002301002868F9F7B8F904
:1098F00002002879042C04D1E9680AF07FFC0400F6
:10990000EBE72300E9680AF0B7FD034CE5E7C04642
:109910003C9E020027FA020010B1020070B506005A
:109920000C0015008AB01B2800D172E007D805286A
:1099300026D0122855D0002420000AB070BD1F2860
:10994000F9D10122280007A918F0FFFB00284DD00B
:10995000A30713D1394B22689A420FD1012204A9DF
:10996000200019F0B5FC0123079A00930599089B84
:10997000049817F00DFB324C0028DDD1314CDBE7A9
:1099800004A90122200019F0A3FC280007A9012244
:10999000F9F746FA069B002203936B464020197B99
:1099A0000AF0BCFB06000100089810F0F3F8069BD3
:1099B000A16803936B4605004118187BFFF736FF3B
:1099C000059B04001A000499C06803931FF054F823
:1099D0002A000598E3687243079918181FF04CF89D
:1099E000AAE711002000FFF7B5FEA5E7EB070DD4AD
:1099F00003231D4203D1144A2968914206D02B400B
:109A0000022BBBD1114A1540062DB7D0104804F0E7
:109A10002BFA012204A9200019F05AFC0122280087
:109A200007A918F092FB0028A8D0089B30000093EB
:109A3000059A079B04991BF0A2FE9CE75CB002000C
:109A4000DCE30200D4E3020060B60200070080FFFE
:109A500055810300F0B505000E0087B0012808D03D
:109A60008B0726D10B68264A934202D0254A93429F
:109A70001FD10122300003A918F067FB002818D07D
:109A80000022290040200AF049FB01000700049849
:109A900010F080F8060001002800FFF7C7FE320032
:109AA00004007A430399C0681EF0E6FF200007B067
:109AB000F0BD3000F9F714F9071E00D04710390047
:109AC0002800FFF7B3FE00210400300003F0B2FBD2
:109AD00000260090009803F00FFC031EE6D0002F34
:109AE00004D119002000FFF76BFEF3E7721C01920E
:109AF00028003200E1680AF0BFFC019EEAE7C04698
:109B0000508D02005CB0020070B50E7904000D00AB
:109B1000012E0DD119491CF0D4FE33002000AA6893
:109B2000E968F6F791FB200015491CF0CAFE70BDEC
:109B3000320014491CF08BFFAB68002BF3D02000DF
:109B400011491CF0BEFE0026AB68B34204D82000C9
:109B50000E491CF0B6FEE6E7002E03D020000C49AB
:109B60001CF0AFFE3200E96828790AF047FB0122B9
:109B700001002000F8F7CEFE0136E5E7224703009A
:109B8000660003002E4703003947030085040300E5
:109B9000BFFE020037B50C00110000221D0020009E
:109BA0000123009208F0B4FB002C05D12100012014
:109BB000FFF73CFE040016E02968CB0705D48B07AD
:109BC00013D10C4B0A689A420FD10800F8F76EFFC8
:109BD000010005000120FFF729FE2A0004000021F2
:109BE000C0681EF065FF20003EBD0120FFF732FF78
:109BF000E0E7C04660B6020037B50400A06803F095
:109C00007BFB019000280ED06568074B9D4205D074
:109C100000220121280001AB03F018FAF9F784F8BB
:109C20000028EBD001983EBD10B1020030B58DB0D8
:109C30000500684603F090F8011E10D12A1D01208E
:109C40001AF01EFD0122EB6804005B1001335B007B
:109C50001343EB6003F09EF820000DB030BD019877
:109C6000054A0368934205D0044A00249342F3D086
:109C700003F098F80024EFE730A50200D8A2020014
:109C80000300054A08000A601A684A605B688B6036
:109C90000123CB607047C046D4B0020010B5024922
:109CA0001CF00FFE10BDC046401F030010B504009D
:109CB000034B036040301DF07DF9200010BDC0460D
:109CC00058B3020010B50F4C20001EF077FB00289F
:109CD00008D020001EF043FB0B4B1B68984202D1BA
:109CE000FAF7DAFA10BD3F21084A138801330B4016
:109CF000074909888B42F5D01188064C13806054BF
:109D0000F0E7C046AC2B00200C2A0020242F0020B6
:109D1000262F00205C2F0020002210B5044B05499F
:109D20001A80054B05481A801EF04DFB10BDC04639
:109D3000242F0020C59C0000262F0020AC2B0020E3
:109D4000034B1888034B1B88C01A431E9841704769
:109D5000262F0020242F0020084A094B108819883C
:109D6000884201D130BFF9E713880649C85C3F211A
:109D7000138801330B4013807047C046262F002004
:109D8000242F00205C2F002070B504004518AC4241
:109D900005D0217802481EF0E6FA0134F7E770BDDD
:109DA000AC2B002070B504004518AC420DD02378D0
:109DB000064E0A2B03D10D2130001EF0D4FA217873
:109DC00030001EF0D0FA0134EFE770BDAC2B00205C
:109DD00070B504000825002C08D02100082C00D9FB
:109DE00029000348641AFFF7CFFFF4E770BDC046AF
:109DF0003D47030070B5050004000826002C08D07C
:109E00002100082C00D931000448641AFFF7BCFF78
:109E1000F4E72800FFF7DCFF70BDC04646470300AB
:109E200010B5010001481BF09AF910BD1C0000207C
:109E3000142313B5064C00931922182120000DF0AD
:109E40007BFB2000034A04491EF09CFD13BDC04665
:109E5000AC2B002000000020AD9C000010B5672254
:109E6000014B19F0E9FB10BD633A020010B59722CF
:109E7000014B19F0E1FB10BDD5B00000F8B50F00A3
:109E800011001A000023040085794669837143613B
:109E90000E4B19F0D1FBA368002B15D1E18A0029E4
:109EA00008D0A38A002B05D1206B1AF0EFFF206B9E
:109EB0001AF06CFEA38A39002000E28A19F0E6FA53
:109EC0006B1E9D416661A571F8BDC046F5AC0000F2
:109ED00010B54379C26A012B03D110001CF0BCFA03
:109EE00010BD0B00006B02491CF0E0FAF8E7C04619
:109EF000C8BB02007FB50B7805000E004C1C002B80
:109F00000AD0032B0BD103A930001BF0CCFD039921
:109F10000400286B1AF0DAFD200004B070BD012B9C
:109F200007D18C1C49780429F6D0006B05F02AFB78
:109F3000F2E7042B0BD14B788978006B09021943A7
:109F40001AF00CFE30001BF0E9FD0400E4E7052BDD
:109F500015D14379042B04D02649006B1AF00AFE70
:109F6000F0E788784B780002184303A91BF079FBCF
:109F700003992C6BF6F71AFA01002000EEE71A009D
:109F80000A3A0F2A09D803A9300019F032FA0399C6
:109F900004002800FFF79CFFBEE7082B0CD103A9A3
:109FA00030001BF076FD039B2A6A9B000400995841
:109FB000286B1AF0DFFDAFE703AB02AA01A930005E
:109FC0001BF0DDFD04000299286B05F08FFA019B60
:109FD000094A9B009B5821002800039A9847AB68C8
:109FE000002B04D0EB68002B01D1029BEB60039C9B
:109FF00092E7C04610B1020060B30200F7B5060058
:10A000000192FFF777FF04270400019B9C4200D1D7
:10A01000F7BDA11C30006578FFF76CFF2F3DEDB256
:10A0200004003900082D01D8024B595D306B1AF03D
:10A030000BFFEAE7654B030010B54379C26A012BB9
:10A0400003D110001CF019FA10BD0B00006B02497F
:10A050001CF02CFAF8E7C046D8BB020010B54379D3
:10A06000C26A012B03D110001CF007FA10BD0B00CF
:10A07000006B02491CF01AFAF8E7C046B8BB0200B0
:10A08000836870B50D0004001100002B07D104484F
:10A0900018F015FF2900A060200019F0F7FC70BD32
:10A0A0006CA5020010B5024AFFF7EAFF10BDC046DA
:10A0B0004F470300F0B50D00C162002142712B78BB
:10A0C00091B0059204009F4A0161072B3DD1059B89
:10A0D000012B06D00200836B05991B68406B083288
:10A0E0009847AB68180008931BF018FD6379089037
:10A0F000032B0FD140210D900DA81BF028FDA36B61
:10A1000002009B680D99606B9847A368E882002B5A
:10A1100000D0D5E008981BF001FD08900378002BD3
:10A1200050D00A3B0F2B48D80DA919F062F90D9BAE
:10A13000854A934211D00DD8844A93423BD00225E0
:10A140004A3293420AD0824A08992000FFF798FFCA
:10A1500011B0F0BD03257F4AF3E7002508981BF0F6
:10A16000DDFC1821089008A81BF0F1FC089B079063
:10A170000693069B079A934226D16379012B15D942
:10A18000A36B29005B68606B98476379042B0DD142
:10A190000023E06A03950293C18A626B01910093E8
:10A1A00093680521D268006918F00AFAA368002BA9
:10A1B00000D085E0CCE70125D0E70100664A200009
:10A1C000FFF75EFF0225C9E7069B08931B78222B49
:10A1D00004D106981BF0A2FC0690CAE71F2B01D001
:10A1E0005E4AB1E7069809A91BF0A2FC03780600B5
:10A1F000432BF5D11BF092FC099B8342F0D1300038
:10A2000009A91BF095FC037807000A3B0F2BE7D840
:10A210001BF084FC099B06008342E1D00378472BA6
:10A22000DED11BF07BFC099B8342D9D10AA93800FF
:10A2300019F0DFF830001BF076FC9F210B900BA883
:10A240001BF085FC01000B981BF05CFC9C220A9B18
:10A250000600920093421BD1012804D10B98037889
:10A260000A3B0F2B01D93E4A6EE72669731C236116
:10A27000059B012B21D00DA919F0BBF8A36B310070
:10A28000DB680D9A606B9847002816D1354A5BE76A
:10A29000354A934219D1012803D10B980378032B37
:10A2A00001D0324A50E7059B012B06D0666B1BF0AC
:10A2B00009FC010030001BF040FDA368002B88D092
:10A2C0002000089919F0E2FB42E7294A934222D183
:10A2D000012803D90B980378032B01D0254A33E7D3
:10A2E000059B012BE9D00CA91BF0DDFB01270B908E
:10A2F0000B980378032B01D01F4A25E70DA91BF00B
:10A30000D2FB01370B900D9A0C99606B1BF01CFD72
:10A31000BE42EDD1D1E7059B012BCED0032800D959
:10A320005EE70B9B18000D931BF0F8FB0E901BF0E3
:10A33000F5FBA36B0F901F6932000A99606B0DABA0
:10A34000B847BAE76C470300950200000E02000010
:10A3500090470300E10200009D470300C54703004A
:10A36000E84703000448030001020000144803000A
:10A37000260200003048030055480300F0B51700DE
:10A380000A0087B00493531E9A410C0006000499FA
:10A39000380005921BF0B6FB251E019009D02378EA
:10A3A00000253A2B05D102002900306B1AF0DEFDA2
:10A3B0002500019B0097013B0393059B0293009BA3
:10A3C000049A93421CD1002D38D1019B05999C46DB
:10A3D000306B61441AF0BEFD002C3CD1049B9F42BF
:10A3E0002AD0BD423AD128001BF09DFB002201007B
:10A3F000300000F039F838001BF090FB0700EDE763
:10A40000009B1B783A2B07D1002D10D1039A02999B
:10A41000306B1AF0ABFD009D00981BF07FFB029B98
:10A42000009001330293039B013B0393C7E7300085
:10A430000C4A0099FFF724FE07B0F0BD002CCDD0E8
:10A44000A54208D128001BF06EFB0022010030005D
:10A4500000F00AF8C2E700222100F8E700223900E4
:10A46000C6E7C04677480300F0B517000A78040035
:10A4700013000A3B0D0085B00F2B0ED803A928004E
:10A4800018F0B7FF20000399FB0703D4FFF7D4FDB2
:10A4900005B0F0BDFFF71CFDFAE7192A05D86A4A96
:10A4A00029002000FFF7ECFDF2E713001A3B442AD5
:10A4B00000D183E02A2B05DC062B08D0292B11D0F4
:10A4C000624AEDE72B2B00D194E0972BF8D1002FB7
:10A4D00000D0B7E0280003A91BF02AFB0200039B71
:10A4E00000219BE0280002A91BF022FB0600022F9E
:10A4F00003D001002000FFF7FDFC30001BF00EFB35
:10A500000299060018F06BFF0028D9D13378A22BEE
:10A5100013D1300003A91BF00BFB060030001BF029
:10A52000FDFA039A0190904207D2022F03D0310026
:10A530002000FFF7DFFC019EF0E73378482B21D1A4
:10A54000022F06D1206B1AF0ACFB206B1AF068FBCF
:10A550000EE030001BF0E7FA01002000FFF7CAFC14
:10A56000206B012FF2D11AF070FB206B1AF040FB28
:10A5700030001BF0D3FA029918F031FF002800D008
:10A5800086E79DE7492B9BD130001BF0CCFA03A94D
:10A5900018F02FFF012F07D1206B1AF04CFB039905
:10A5A000206B1AF0FDFAE3E7022F02D1206B1AF0BC
:10A5B00061FB0399206B1AF026FBD9E703A9280059
:10A5C0001BF0B6FA0399060018F009FF002800D026
:10A5D00076E7002F36D1350003A928001BF0A8FA32
:10A5E00006001BF09BFA0378A92B1BD100231A004D
:10A5F000310013E0002F25D1280003A91BF098FAA1
:10A600000399050018F0EBFE021E02D03B003A0051
:10A6100066E72B78A62BDFD0030029002000FFF788
:10A62000ADFE35E7AA2B05D103A91BF081FA039BE8
:10A630000200DDE7C12B00D142E71BF06FFA3200C8
:10A6400003004DE7024A2BE791480300A9480300A5
:10A65000C4480300F0B5170085B0040008000D00E1
:10A660001BF05CFA3900060018F0B9FE01900028D2
:10A670001FD02379002B17D0E36A1E78002E13D148
:10A68000F8212000FF31FFF723FC29002000FFF70D
:10A6900031FC330032000121206B1AF0A5FC206B45
:10A6A0001AF0DDFA05B0F0BD29002000FFF722FC0A
:10A6B000F5E733786D2B1DD1290001222000FFF72B
:10A6C000D3FE30001BF02FFA437818264E3BDBB246
:10A6D000811C0A2B01D8234AD65C2000FFF70AFC14
:10A6E0003100206B1AF0B0FB022229002000FFF796
:10A6F000BBFED7E76E2B2ED1300003A91BF018FA52
:10A7000006000700039BBB421FD101992000FFF701
:10A71000F1FB206B1AF08FFA002229002000FFF7CE
:10A72000A3FE019BB342BDD030001BF0F7F9019BA3
:10A730000500834202D0206B1AF07DFA310000221E
:10A740002000FFF791FE2E00EBE738001BF0E6F942
:10A7500001970700D6E731002000FFF7CBFB019AF5
:10A76000C3E7C0466E4B0300F0B50B788DB00A3BD3
:10A770000400019103920F2B00D9FFE008001BF0A9
:10A78000CDF90378432B00D0F8E001981BF0C6F90F
:10A7900009A91BF0CDF9037842780A3B1B02134349
:10A7A0009B4A934200D0E9E01BF0B8F9037805001A
:10A7B000472B00D0E2E01BF0F6F9002800D0DDE0E6
:10A7C00028001BF0ABF9099B834200D0D6E028009B
:10A7D0001BF0A9F99F210A900AA81BF0B8F90123E0
:10A7E0000A9D060028000B931BF098F907000A90B9
:10A7F000B04200D1B8E01BF091F90A90B0420ED0FF
:10A800000378032B00D0B9E00BA91BF04CF90B9B8C
:10A810000A90002B00D1B1E0B04200D0AEE02B781E
:10A820004533DBB2022B00D8A8E03B784533DBB2DE
:10A83000022B00D8A2E0099B180005931BF06EF9CB
:10A84000039A0290904201D1002302930B9B266948
:10A850000493A36926830793E38B0693731C638396
:10A86000A38BE383331D23613B780393032B03D036
:10A8700039002000FFF73EFB29002000FFF73AFBDC
:10A88000206BF11C1AF022FAB11C206B1AF0EAF8C6
:10A89000206B1AF0D0F9002220000199FFF7E4FDA7
:10A8A00005992000FFF726FB206B711C1AF0DAF8DF
:10A8B0000499206B1AF00AF91221206B1AF0C4FADD
:10A8C000206BF11C1AF0CEF8039B206B032B4ED0AB
:10A8D0001AF0BBF9206B1AF0CDF9049B1921206BFB
:10A8E000002B00DA1A2100251AF0AEFA0121206BA4
:10A8F000B21C1AF0F7F9079BA361069BE383029B46
:10A90000AB421BD0206B1AF0AAF9039B032B02D099
:10A91000206B1AF0A4F902992000FFF7EBFA2569E1
:10A92000206B6B1C290023611AF0D0F9039B206B6C
:10A93000D91E4B1E9941013119F0DBFF3100206B0C
:10A940001AF090F8206B1AF08AF9039B032B02D0BF
:10A95000206B1AF084F9029B002B03D02900206B96
:10A960001AF080F80DB0F0BD2F002A4D57E71AF00D
:10A9700062F939002000FFF7BDFAAEE7A369256947
:10A980000493E38B6F1C0293AB1C0593A38B01987C
:10A99000E383214B67832B432383EB1C23611BF051
:10A9A000BDF801002000FFF7A5FA06000121206B89
:10A9B0001AF0E9F93900206B1AF054F8206BA91C41
:10A9C0001AF0F4F9002220000199FFF74DFD310043
:10A9D0002000FFF78FFA0600206B19F085FF002892
:10A9E00003D13900206B1AF071F9206BA91C1AF001
:10A9F00039F8206B1AF0E6F9049BA361029BE3830C
:10AA0000039BB342AAD031002000FFF773FAA5E7F9
:10AA1000A6020000607D03000080FFFFC36A70B5DE
:10AA20001B780D0004001100072B06D0022B04D068
:10AA30000021164AFFF724FB70BD280018F0CFFC58
:10AA4000061E07D00E21206B04F09CFD206B1AF02F
:10AA5000F9FAF1E72B78C42B12D128001BF063F828
:10AA600001002000FFF746FA3100206B1AF08BF945
:10AA7000206B0E2104F086FD206B1AF0F2FADBE762
:10AA800029002000FFF736FAE0E7C046F04803004F
:10AA9000F0B589B005001F000591049201910029CD
:10AAA00004D09F2105A81BF052F8019000231E003E
:10AAB000059C03930293009316E02378BB2B2ED1C1
:10AAC000BA3B1E4206D0434A21002800FFF7D8FABD
:10AAD00009B0F0BD012320001E431BF024F80290B2
:10AAE00020001BF01BF80400019BA342E5D1002EBF
:10AAF0000BD0029B002B5CD1286B1AF047F8039B0C
:10AB0000002B5BD1286B1AF041F8049B286B002BBB
:10AB100059D033003900009A1AF06FFAD8E7BC2BED
:10AB20000BD1BA3B1E4201D02B4ACDE702232000B5
:10AB30001E431AF0F8FF0390D2E7BD2B29D1200065
:10AB40001AF0F1FF04001AF0E9FF0378C12B09D1D4
:10AB500028000622210018F0FFFD200001371AF01E
:10AB6000DDFFBEE723780A3B0F2B01D91B4AABE779
:10AB7000200007A918F03DFC04000799286B19F084
:10AB8000EDFF21002800FFF7B5F9009B0400013319
:10AB900091E7002E01D0124A96E7009B002B01D0CE
:10ABA000104A91E721002800FFF7A4F901370400BB
:10ABB0009AE728000299FFF79DF9A0E7280003997A
:10ABC000FFF798F9A1E733003900009A1AF00CFA60
:10ABD0007EE7C046094903002049030038490300C5
:10ABE0005949030074490300F0B589B0040003918A
:10ABF00003A83D211AF0ABFFE36A02905F7D0023BA
:10AC000001930398029B984217D118001AF08BFF0A
:10AC1000029B03901B7801003A0020001D2B5BD1A2
:10AC200018F045FD0500019B5A1E019257D22900DC
:10AC30002000FFF701FA09B0F0BD05A91AF078FF6E
:10AC40006821039003A81AF082FF06A90500039863
:10AC500018F0CFFB9823069AFF3306009A4215D0CE
:10AC6000019B2000013303990193FFF743F90390FF
:10AC70000398A84227D12800059918F0B0FB0028B6
:10AC80000BD129002000FFF735F906E0854207D8EF
:10AC900000212000154AFFF7F3F9059B0393B0E765
:10ACA0001AF03CFF8542F3D1300007A918F0A1FB50
:10ACB000079B0F4A934204D00B3A9342E8D10427F2
:10ACC000EBE70127E9E707A918F093FB0799039041
:10ACD000206B19F065FFCBE718F03BFFA2E70023DC
:10ACE00001211A00206B1AF07FF99CE796490300B6
:10ACF00013020000F7B50A780F00130008215D3B2E
:10AD00008B43DBB20400002B02D101338371F7BD0A
:10AD100013005E3B8B43DBB2002BF8D013000A3BE1
:10AD20003E0000250F2B0CD95C2A26D101A9380042
:10AD30001AF0FEFE06001AF0F1FE019B834215D1C7
:10AD40000025300001A918F054FBA379002D02D092
:10AD50002A78002A19D1002BD9D1E38A002BD6D02A
:10AD6000390020001D4AFFF78BF9D0E71AF0D6FE14
:10AD7000019B05008342E4D1E2E738001AF0D3FEDC
:10AD800006001AF0CBFE0500DBE7002B1ED0A38ADD
:10AD900001339BB2A382012B09D1E18A206B0029E8
:10ADA00011D01AF073F80021206B1AF089F82900ED
:10ADB0002000FFF79FF8206B019919F0CFFE206B60
:10ADC0001AF08AF8A3E719F0E1FEECE7E38A29001C
:10ADD00001332000E382FFF78DF898E7B4490300C0
:10ADE000F0B504000F00066987B00293731C03934B
:10ADF000B31C03613100006B150019F0A1FF2000A6
:10AE000018F0FFFA39002000FFF774F8206B19F0F2
:10AE1000DFFF711C206B19F059FF3100206B19F016
:10AE200021FE206B1AF02DF92669731C2361029B09
:10AE30009D4218D1A38B206B013BA38319F098FF8F
:10AE4000206B1AF023F90399206B19F00BFE0C9B71
:10AE5000002B03D019002000FFF74CF83100206BC5
:10AE600019F000FE1BE028001AF05DFE0023059398
:10AE7000236905000193013323610378002B10D16E
:10AE80001AF04CFE1AF04AFE029B834224D029009D
:10AE900020003B4AFFF7F4F8A38B013BA38307B0E4
:10AEA000F0BD07008B2B07D11AF03DFE07001AF00A
:10AEB00035FE05A918F09DFA206B19F0BCFE39008B
:10AEC0002000FFF717F82121206B19F0BDFF0021AA
:10AED000019A206B19F006FF28001AF01FFE059951
:10AEE0000500002947D1206B19F0B9FE059F002FFE
:10AEF00009D02769206B7B1C3900236119F02CFFD6
:10AF0000200018F07EFA29002000FEF7F3FF059BD1
:10AF10000500002B02D0206B19F05AFF206B19F0AE
:10AF20007CFF059B002B19D00E21206B04F02AFB1F
:10AF30003900206B19F096FD0E21206B04F022FBE6
:10AF400020000599FFF778F820000599FFF786F8AB
:10AF5000A38B206B013BA38319F00AFF3100206B08
:10AF600019F0B4FE0199206B19F07CFD0121206BD2
:10AF700019F0BFFC5BE72000FFF75EF8B6E7C046BC
:10AF8000E2490300F0B585B0019143790400012B3B
:10AF900007D1C36A0E001B78002B04D1184AFFF7B3
:10AFA0006FF805B0F0BD692101A81AF0D0FD00903E
:10AFB0000198009B9842F4D003A918F01AFA0B23C9
:10AFC000039F6B441A0001903900E06A17F00EFFEE
:10AFD0006B46DB7A0500002B0DD03A000100E06AD9
:10AFE00017F02FFF2B78074A002BE1D1310020000A
:10AFF000FFF746F8DCE70378042BD9D0024AF5E7DF
:10B00000014A0300264A0300444A0300F0B587B012
:10B01000039145790400012D09D1019103A869210B
:10B020001AF095FD02900398029B984201D107B057
:10B03000F0BD05A90B2718F0DCF902AB059EFF183F
:10B0400003903A003100E06A17F0D0FE3B78002B05
:10B0500008D10378012B05D02000074A0199FFF79A
:10B060000FF8E0E705703100E06A17F0E1FE002814
:10B07000D9D00570D7E7C046654A030010B5084B24
:10B08000428B04009A4202D1064AFEF7F9FFA28BD6
:10B09000E38B618B206BD21A04F090FA10BDC0468E
:10B0A000FFFF0000844A030010B5084B028B040028
:10B0B0009A4202D1064AFEF7E3FFA28BE38B218B73
:10B0C000206BD21A04F07AFA10BDC046FFFF0000D0
:10B0D0009C4A0300F7B506000C0023781A000A3AD0
:10B0E0000F2A08D801A9200018F083F9300001992F
:10B0F000FEF7B4FFF7BD432B44D1694620001AF098
:10B1000017FD01003000FEF7F5FE03780500A22BC5
:10B1100010D101A91AF00CFD050028001AF0FEFC60
:10B12000019B0700834205D029003000FEF7E2FEB4
:10B130003D00F2E72B78482B16D128001AF0F3FCDB
:10B1400001003000FEF7D6FE0500306B19F0B3FDAC
:10B150002800009918F043F90028CBD121003000D5
:10B16000204AFEF78DFFC5E7492BF7D128001AF0DA
:10B17000DAFC01A918F03DF901990500306B19F0CE
:10B1800083FDE5E7442BE9D120001AF00CFD0028EF
:10B19000E4D120001AF0C7FC05001AF0C4FC04003A
:10B1A00001003000FFF796FF20001AF0B7FC03788B
:10B1B0000400A92B9ED0AA2B0ED101A91AF0B8FC2D
:10B1C000019B0400834295D030002100FFF782FFED
:10B1D00020001AF0A3FCF3E7C12B00D07DE72C0080
:10B1E000BCE7C046B14A0300C36A70B51B780D00C6
:10B1F00004001100072B04D000210B4AFEF740FF8A
:10B2000070BD280018F0EBF8002807D00E21206B45
:10B2100004F0B8F9206B19F0FAFEF1E729002000DC
:10B22000FEF768FEF6E7C046C94A0300F0B50D0018
:10B2300004001100280085B018F0D1F8071E05D0D1
:10B240000021206B19F03CFE05B0F0BD2B784E2B91
:10B250000BD1206B012119F033FE29002000FEF7ED
:10B2600049FE206B19F038FEEEE7B32B61D12800C0
:10B270001AF059FC05001AF051FC02900378B62B25
:10B280004DD103A91AF054FC039B0290984203D0BD
:10B290009D2102A81AF05BFC2B784E2B20D103993C
:10B2A0000298266B1AF02EFC411C300019F008FEA3
:10B2B00029002000FEF71EFE206B19F00DFE01276D
:10B2C000029E039B9E4210D1002FBDD131000298F7
:10B2D000246B1AF017FC411C200019F008FEB3E79C
:10B2E00029002000FEF706FEEAE73378310020004F
:10B2F0000193FEF7FFFD019B0600002F0BD04E2BA4
:10B3000005D00F4A29002000FEF7BAFE9CE7206B0B
:10B3100019F0E2FDD5E74E2BD3D10A4AF2E72B789C
:10B3200004224E2B00D005222900200018F014FA28
:10B330008AE729002000FEF7DDFD0121206BCCE724
:10B34000E34A0300064B0300F7B50D00C16A040091
:10B35000097D022608003040314205D0344A2900D8
:10B360002000FEF78DFEF7BD2978019008000A380D
:10B370000F281DD8280001A918F03BF8A279E36A2C
:10B38000002A03D01A8B01321A8302E0DA8A0132D2
:10B39000DA82012601990029E5D06B46DF1C3A00CC
:10B3A000E06A17F023FD3B78002B3CD1214AD6E719
:10B3B0001A32914204D128001AF0B5FB01A9DBE74B
:10B3C0001A33994223D1A379002BC7D10127280032
:10B3D000A7711AF0E8FB03260028DBD128001AF039
:10B3E000A2FB0378E26A0A3B0F2B09D82800137DE1
:10B3F0001F4317751AF097FB01A917F0FAFFC9E769
:10B40000137D28001F4317751AF08DFBF2E7280003
:10B410001AF089FB01A917F0ECFFE36A1A7D1643C5
:10B420001E750526B6E70223467003709BE7C046EB
:10B43000254B0300344B0300F0B585B005000E002A
:10B440000192FEF757FD03780400A22B03D101A956
:10B450001AF06EFB0400EB6A1B78072B00D070E03B
:10B46000337872780A3B1B021343504A934268D1E7
:10B470002378472B65D120001AF095FB002860D077
:10B48000E0212800FF31FEF723FD0121EA6A936ADB
:10B49000928C002A06D121002800454AFEF7F0FDD3
:10B4A00005B0F0BD5878084211D028005968FEF761
:10B4B0000FFD200001991AF025FB02280ADC002369
:10B4C000286B1A00022119F08FFD200036E0013AA6
:10B4D0000833DEE720001AF021FB0378492BEED178
:10B4E00020001AF01BFB1AF019FB0378472BE6D15A
:10B4F00020001AF013FB07001AF010FB06003800BA
:10B500001AF011FB03A917F074FF03990122286BAD
:10B5100019F052FB30001AF046FB0021884203D19B
:10B5200030001AF000FB0100002301222800FFF781
:10B53000AFFA20001AF0F2FA1AF0F0FA1AF0EEFA66
:10B540000400019BA342ABD020001AF0E7FA019B54
:10B550000600834224D02378492B21D10378472B3E
:10B560001ED120001AF0DFFA070030001AF01BFB92
:10B570000024A04203D130001AF0D5FA040003A938
:10B58000380017F036FF00220399286B19F014FBDE
:10B590002800002301222100FFF77AFA3000CDE7CE
:10B5A00021002800FEF7A6FCCAE7C046CD02000035
:10B5B0004D4B0300F0B50D00002604004271110050
:10B5C000C5622A00066187B0006B03F0FDFE627958
:10B5D000012A01D1EE832E84AE683378542B0AD130
:10B5E00030001AF0A0FA01002000FEF783FC206B67
:10B5F00019F00DFD2AE02B78002B08D13100200036
:10B60000FEF778FC0E21206B03F0BCFFEFE7072B61
:10B6100021D130001AF082FA63790500012B07D19D
:10B6200000230100A371402220005F4B18F004F8B2
:10B6300028001AF073FA1AF071FA01002000FEF7E0
:10B6400059FC206B19F050F90028DBD0206B19F061
:10B650001EF907B0F0BD022B17D1012A07D1002334
:10B660003100A3712000514B473217F0E5FF300045
:10B670001AF054FA01002000FEF73CFC2B7D5B071A
:10B68000B5D5206B19F0EBFABCE7033B032B50D880
:10B6900030001AF043FA05A91AF04AFA1AF03EFAF5
:10B6A00067790390012F09D10B2202ABD218390020
:10B6B000E06A17F09BFB02230370EF822B78032BC9
:10B6C00020D10021206B19F0EEFB2B78062B27D11F
:10B6D000206B19F05BFA01212000FEF7F9FB206BCB
:10B6E00019F054FA206B19F051FA0023200000934E
:10B6F000059A3300039918F0D5FC2B78062B00D05F
:10B7000075E77FE7042B04D10021206B19F0D8FBEB
:10B71000DBE7052BD9D10021206B19F0E8FBD4E73A
:10B7200020000121FEF7D4FB0121206B19F02BFB37
:10B73000DBE7012A07D1E021280005AAFF3117F035
:10B7400055FB0223037005A9A86817F052FEF921E2
:10B7500020004900FEF7BCFBF2212000FF31FEF77C
:10B760006BFCE989206B19F0F9F9FB2120004900F5
:10B77000FEF762FCA8681AF0D1F91AF0CFF90100BF
:10B780002000FEF7B7FBE0212800FF3117F01EFB79
:10B790000378022B00D135E7E0214288FF31206B8E
:10B7A00019F0B5F823E7C0461F3E02002B3E020009
:10B7B000F8B5164B0400A8331B681500002B24D1E4
:10B7C000076901227B1C03613B0018F0F0FBC021DC
:10B7D0000600FF31206B19F0C7F82900300017F080
:10B7E000FEFD051E09D131002000FEF783FB2B0072
:10B7F0002A000121206B19F0F7FB0121206B19F0C1
:10B8000013FC3900206B19F02DF9F8BD102A002027
:10B81000F0B59DB00F0015000021382206900EA84B
:10B820001E001DF045F9069B0DAC5B680D97039358
:10B83000236201235B421393069B267118681AF05A
:10B840006DF91AF03FF9606280001AF0F7FA0022F1
:10B85000A06200950025069B11001B68200017F0D0
:10B86000ECFD18F0FEFF01272B00039020630495E8
:10B87000626A0892954202D2A268002A26D0002B62
:10B8800042D101260593089B059A934202D00F9A54
:10B89000002A3CD00499039818F0E8FF0025169A76
:10B8A0000F9B0592954200D31AE1002B00D1D6E000
:10B8B000189B0DA8996818F0E9F8189B109A049342
:10B8C000DB890D990F98FCF799FE0CE1A16AAA009B
:10B8D0005658002E13D03269002A10D116F055FEAA
:10B8E000737D30613A0031002000042B09D1FEF74E
:10B8F000E1FB2369049A9A4200D204933B0001358C
:10B90000B6E7FFF757FEF4E700231D00B0E70599FF
:10B91000179B8900CB58002B1BD09F8C197D781E5C
:10B92000314220D10021E0249983FF348F4231DC61
:10B93000002297424BDC5A680792002A09D0002166
:10B94000928C0A920A000A9881424FDB00218A42B7
:10B950007BD1059B0133059395E7002A02D1012C89
:10B9600000D10A000138411CDCD002259C6AC100CC
:10B9700061184C782C42F0D0002AD3D00D005068CA
:10B9800084461068079011CD11C2079A0A6062467A
:10B990004A60C7E7986ACA0082181878012804D15B
:10B9A0005068A0420BD10131C0E71578012806D9B3
:10B9B000002D04D116705078304203D1F3E710788F
:10B9C0000228F8D1988B451C9D835080EBE7986A3C
:10B9D000D1004418415C032906D16178314203D17A
:10B9E000998B6180013199830132A2E70798CC00DD
:10B9F000806A0519005D09950338012816D80020D2
:10BA000012E09D6AC400AC46A4442C5D042C0AD10B
:10BA1000099C64680B9464460B9D6468A54202D13E
:10BA200064466280013201308742EADC01318AE7F4
:10BA30009C6AC8002518205C042802D1687830422E
:10BA400002D068888018688001318F42F0DCD98A82
:10BA500092B25118D982998B52189A8379E7179B21
:10BA60000593059AAB009C58002C1DD0637D042BD8
:10BA70001CD11A9B0593002B04D10499159816F03C
:10BA800030FE1A90002319932C4B032221000DA89D
:10BA90001B93FEF70FFB0F9B0593002B04D1042291
:10BAA00021000DA8FEF706FB0135F8E6039B0222F4
:10BAB00021000DA81993FFF77DFD0F9B0593002B27
:10BAC000F2D1032221000DA8FFF774FD0F9B05930F
:10BAD000002BE9D1042221000DA8FFF76BFDE3E75D
:10BAE000002B00D0E4E6039818F0C8FE1A9800284E
:10BAF00001D016F00DFE002406981AF05EF8179B90
:10BB00001B681D69169B179803939C4207D31AF074
:10BB1000B2F90F9900290AD0080001F043F9A300F7
:10BB20001858002801D017F048F90134EAE70A0054
:10BB3000280016F05EFD1DB0F0BDC0465496020010
:10BB4000F8B5124A0E00124B124990421AD0C4683E
:10BB50008C4203D0012430602000F8BD406B0028E7
:10BB600012D004689C42F0D10500002447680835D3
:10BB7000BF00EF19BD42EFD2310001CDFFF7E0FF6A
:10BB80002418F7E70024E7E70400E5E7549C0200E7
:10BB900090C1020089BC0000F7B505000C00AB683D
:10BBA000002B0AD0344AE168914206D0E358002BBA
:10BBB00003D00422EB681A60F7BDA06B002820D0E8
:10BBC0006B680022D900062304301943FCF7CAFF32
:10BBD000002816D0297C4268EB682868002904D028
:10BBE0000100002001F050FAE6E7002807D02249C2
:10BBF000E5688D4203D021498C4200D000692100C4
:10BC0000F0E72B68002B16D1646B002CD4D01C4BB2
:10BC100022681A4F9A420BD126006368194A0836E7
:10BC20009B189B00F3180193019B34689E4216D326
:10BC3000BC42B4D1C0E72A7C002AE5D10E4AE168B3
:10BC40009142E1D00D4A9442DED01869EA686968F1
:10BC500001F072FAEB681B68002BD5D0ACE7BC4250
:10BC600001D10436E0E721002800FFF795FFEB68DB
:10BC70001B68002BF5D09FE789BC0000549C020094
:10BC800090C10200FFFFFF3FF0B58FB00F0005A984
:10BC9000019202930500FFF753FF061DB600300026
:10BCA0001AF0BAF80400002120C017F0ABF93200F6
:10BCB00020000021103A10301CF0FAFE012F05D1AF
:10BCC000029B1B680393042B00D189E007AE082276
:10BCD000002130001CF0ECFEF4220023FF320A9217
:10BCE000E83A09A8FF3A290082600374C660099304
:10BCF000FFF752FF079804282FD105983900C6682E
:10BD0000029B019AB04720612000F6F7EBFD8542C7
:10BD100066D1EC220023FF32290009A8089307937B
:10BD20000B9309940A92FFF737FF079B002B57D01C
:10BD30000198384336D1010007AA18F0A1FC05008C
:10BD4000294B9D424CD0280016F0E8F92749020003
:10BD50002748FCF7E5FB01F025F80028D4D0019A2C
:10BD60003A4306D1012106AB069501F06FF90400B4
:10BD7000CAE7019B5C00E4190134A40020001AF01A
:10BD80004BF802990390221F20C01CF075FE039B04
:10BD9000019A3068791C01F059F9040003981AF0EF
:10BDA0006AF8B1E7019B5D00ED190235AD0028008E
:10BDB0001AF032F82A000600079B029903600393E9
:10BDC000089B083A436008301CF056FE32003800E9
:10BDD000019918F055FC050030001AF04CF8AFE757
:10BDE00020000FB0F0BDC04610B10200794B030037
:10BDF000E4A50200F0B51468160089B0002C0ED13D
:10BE0000436882685F6B03AD03922C746960AC6019
:10BE1000EE60002F05D128001049FFF7BDFE09B0E4
:10BE2000F0BD0F4B3A689A4210D17B680193019B99
:10BE30009C42F0D03B00A200083399582800FFF73D
:10BE4000ABFE3368002BEAD10134F0E7390028005B
:10BE5000FFF7A2FE3368002BE1D1DCE7549C02001F
:10BE600090C1020010B54A6801491AF0F0FD10BDFA
:10BE7000A14B030070B58AB005000E00140000212C
:10BE8000082268461CF014FE0021102206A81CF0AF
:10BE90000FFE202307936B46296808930595E2233C
:10BEA000002C02D0042C10D1E823FF3305A8069300
:10BEB000FFF772FE0221009804280ED12200310003
:10BEC0002869F6F77BFF0AB070BDFD2305A85B006B
:10BED0000693FFF761FE0321EDE70028F3D000226F
:10BEE00002AB02950396049401F0B0F8042CEAD05A
:10BEF0000048E8E710B10200F0B5154B89B0150015
:10BF00008200D7580C000C220021060068461CF065
:10BF1000CFFD18230497059300276B4603A82168DB
:10BF20000774C3600394FFF737FE0098042806D116
:10BF30002A003000216901F0ABFD09B0F0BD0028F6
:10BF4000FBD06A4639000120029518F099FBF4E70E
:10BF500040B40200F0B5214B89B08200D4580D00E6
:10BF600008220021070001A81CF0A2FD142305935C
:10BF700001AB0693002303AE30002968746003957B
:10BF80003374FFF709FE019C042C07D1380029699E
:10BF900000F0E8FF0400200009B0F0BD002C0CD038
:10BFA0002000290018F064FB0400022FF3D1F6F7FB
:10BFB000A9FD012440000443EDE7022FEBD1E42367
:10BFC0003000FF3329687360FFF7E6FD019B002B0B
:10BFD000E1D101246D002C43DDE7C046C8B5020065
:10BFE0001300F0B55E425E4103238BB00C0001925A
:10BFF000002108220700764203A81E401CF058FDCD
:10C000000823079303AB0893002305ADF9362800F6
:10C010002168FF362B7405940696FFF7BDFD039B40
:10C02000002B0BD1019B002B08D1F933FF33069372
:10C03000019B280021680793FFF7AEFD03980428B1
:10C040001DD12069F6F74EFC164BC2689A4214D1F6
:10C05000019B002B07D02368586819F0FDFA0100F6
:10C0600038001AF02EFC8022019B13431A0021692C
:10C070003800F6F74FFC0BB0F0BD019AF7E7002847
:10C0800005D0210018F0F4FA00220100F0E72000AA
:10C0900016F044F823000200034938001AF0D7FCD8
:10C0A000E9E7C046DD830000AE4B030070B5040035
:10C0B0000D000B491AF005FC696800222000F6F714
:10C0C00029FC200007491AF0FCFBA9680022200087
:10C0D000F6F720FC200004491AF0F3FB70BDC046BF
:10C0E000C04B0300BFFE0200AC4B030010B5C46898
:10C0F000002C06D1426804490448FCF711FA00F00C
:10C1000051FEA04710BDC046C94B0300E4A5020084
:10C11000F0B51600EF228DB004000393002307A8AA
:10C1200052004260CF3A05AFFF3A0D0021688260AD
:10C13000C7600374059307947B60FFF72DFD059896
:10C14000002809D1200015F0E9FF0C4902000C4835
:10C15000FCF7E6F900F026FE039B042806D1320026
:10C160002900206900F072FF0DB0F0BD00932A0095
:10C170003300796816F0E2F8F6E7C046E64B0300B4
:10C18000E4A50200F0B50D0085B001A90700160076
:10C19000280002AA19F0F9F900230199029899429E
:10C1A0002CD13C2019F04AFE2B4B019A03602B4BFB
:10C1B000040083602A4B4760C3602A4B03612A4B0B
:10C1C00043612A4B83612A4BC3612A4B03622A4B8A
:10C1D00043622A4BC362002A06D0029B1968096B8E
:10C1E0000163012A18D045632000A66303A9FFF765
:10C1F000A7FC012813D9224801F008FE9A008258B2
:10C20000D468002C06D152681E491F48FCF788F9F3
:10C2100000F0C8FD0133C2E71B684363E4E7A36B8A
:10C2200000221A49181DFCF79DFC051E11D0436819
:10C2300003211A000A400B420BD119689223496866
:10C240009B00994205D1031D0121114818F041F9C5
:10C250006860200005B0F0BD8CB50200E1BF0000B1
:10C2600089BC000011C1000055BF0000F9BE0000EC
:10C270004744020075BE0000EF4302001F45020064
:10C280002B4C0300024C0300E4A502009E0F0000AB
:10C2900014B5020037B50D001C00002311000093F7
:10C2A00001222800033306F033F8012D04D0032DBA
:10C2B00006D0074801F0AAFD2068F6F713FB3EBD43
:10C2C0002068F4F77DF8A2686168FFF75BFFF6E786
:10C2D000594C03001FB5064B0A0001934B680293AB
:10C2E0008B68010001A8039300F058FF05B000BD62
:10C2F00050B50200F8B50E0003271449144AB042A5
:10C300001DD003003B4038421BD104688C421AD137
:10C31000406B002814D003689342F0D105004468B4
:10C320000C4B0835E418A4002C192868A542E4D267
:10C330003100FFF7DFFF002802D10435F5E70120C7
:10C34000F8BD0020FCE71800FAE7C0468CB50200F3
:10C3500090C10200FFFFFF3FF0B585B005000191DD
:10C3600008008B0717D10B68134A93420BD10123A6
:10C37000029301AB03930024029E039FA6420DD1BA
:10C380000E4805B0F0BD0E4A934204D103AA02A99B
:10C3900019F0FBF8EFE70B4801F038FDA300F9585E
:10C3A000094B994206D02800FFF7A4FF002801D1CD
:10C3B0000134E3E70548E4E78CB50200D4E302006A
:10C3C00090C10200754C0300549C0200DCE30200A3
:10C3D00010B5830703D1054B02689A4202D0044886
:10C3E00001F014FDFFF7B8FF10BDC0468CB5020088
:10C3F000AE4C0300F0B58BB0089310AB80CB051C9E
:10C400001B780691062A12D8012A08D93F230B70FF
:10C410000B0001330693002306990B7001E0002AFC
:10C42000F9D101249442A44160420BB0F0BD002830
:10C4300029DA069B06995C1C2D230B7080231B06B2
:10C44000C518FF21069BC905E01A131A08000393BB
:10C45000013B05932A0020232840884220D14E2604
:10C46000089AE11C1A40130016436D0212D14922AA
:10C470005A402270462253406670A3700023E37036
:10C48000069BC81AD1E7069C002BDAD021000134A4
:10C490000B70D6E741256B4026706370A670EDE700
:10C4A000002F00DA0627089919430291672941D124
:10C4B000002F00D1F6E1002A6ED0FE239B059A42A0
:10C4C00000D3C9E0B349281C0DF048FD431E984134
:10C4D000002620233030079004930196AE4B291C90
:10C4E000F0580DF031FD00280AD0049A019B9446C3
:10C4F00063440193A94B281CF1580EF0A3F9051CC5
:10C50000049B04365B100493182EE7D1FE232D22E2
:10C510009B0504929D4257D29E49281C0DF01EFD9A
:10C52000019B002849D0002B01D12B330493FE2519
:10C53000AD0549E0002AC0D1029B662B2CD1059A9B
:10C540007B1C934201DB039F033F029B7E1C0393F2
:10C550000023049305930193FB43DB173B400793B0
:10C56000039B652B00D0ECE0079B5E1C059F059BA1
:10C57000DB1B9E4200DDEEE0029B662B00D015E146
:10C58000019B012B00DD5AE18549281C0DF0E6FCDA
:10C59000002800D153E10FE1059A7B1D934201DB96
:10C5A000039F073F029B652B00D0BFE0002603934B
:10C5B0003A3B049305960196CEE70133281C79494E
:10C5C00001930EF03FF9051C029B662B04D0672BEC
:10C5D00034D1019B042B31DC079B2370029B672B1A
:10C5E00002D1019B013BFF18059A7B1C934201DBA2
:10C5F000039F033F002F09D101233E005B420593B7
:10C6000067330134049703930796AFE72E233E0068
:10C6100030226370A31C01991C000139019100298B
:10C6200000D188E0002E05D1049601235B420593DA
:10C63000673354E01A70013E0133ECE7039B063B7D
:10C64000BB427CDC029A672A78D01300039F073F25
:10C650000026039305967FE7002620230196049386
:10C660004E4B291CF0580DF065FC00280AD0049AA6
:10C67000019B944663440193474B281CF1580EF0EC
:10C68000E1F8051C049B04365B100493182EE7D1D7
:10C690004449281C0DF062FC002807D0019B281C8F
:10C6A0000133414901930EF0CDF8051C029B662B26
:10C6B00017D1019B059A93421DDAFB18013393426F
:10C6C00006DB1300019A9B1A9F1E012B00D1002745
:10C6D000019BFE18059300230136049366330393F0
:10C6E0003AE7029B652B06D0672B10D003932B23D0
:10C6F00000260493AEE7039B063BBB4201DC039F8D
:10C70000073F2B230026049305963A33E7E7059A63
:10C710003B1D934201DB039F063F019BBB4201DBB4
:10C72000029BE3E7019B0133FF1AD1E70026029B3E
:10C73000049603933EE7019B049376E71F00029B58
:10C7400086E7039B672B00D010E7079E002F00DDD4
:10C750000CE7012658E7281C0EF05EFB631C0993CA
:10C76000030030332370002F06D1079B002B03D02A
:10C77000A31C09932E2363700EF06EFB011C281C72
:10C780000EF086F907490EF05DF8013F099C051C83
:10C79000EDE6C046F8FF7F3FE4B50200FCB50200BD
:10C7A0000000A04000002041CDCCCC3D3E49281CDB
:10C7B0000DF0D4FB002832D03021631E1A781D0002
:10C7C0002E2A67D01000303809285AD901352B7825
:10C7D000302B24D16A782E2A62D1039966295FD042
:10C7E0006B70049B2A702D2B56D1019B013B01934A
:10C7F000002B01D12B3304930022AC4200D3621BE7
:10C800000021AC4200D3291B01206118AC4201D3A6
:10C810002818001B20181CF038F931232B70029BBC
:10C82000672B0CD1079B002B09D0621E541C137878
:10C83000013A302BFAD02E3B5A425341E41A049B62
:10C84000002B19D02022089B0A2113401A004523EF
:10C8500013432370049B019863700DF025FA0A219D
:10C860000DF008FB3031A17001980A210DF002FB98
:10C87000251D3031E1702C0000232370069BE01A47
:10C88000D3E5392A02D001321A70A0E7069A19704E
:10C890009A429CD0013B91E7019B01330193ABE7A6
:10C8A0000134A9E7012706E60000A040014BD8604B
:10C8B0007047C046102A0020034B82B0D86801ABF5
:10C8C000C01A02B07047C046102A0020014B186100
:10C8D0007047C046102A00204E2110B5024816F0BD
:10C8E000E7FA00F05FFAC046F4A4020007B5054A73
:10C8F00001ABD1681269CB1A9A4201D8FFF7ECFF5D
:10C9000007BDC046102A0020F8B5070008680C00D3
:10C9100015F095FF05006068F6F706FA0600022F8D
:10C920000AD9A068F6F7C2F802003100280017F013
:10C9300049FE18F02BFDF8BD004AF6E740420F0013
:10C94000F0B5486887B00F00F6F7B0F8041E02DAB9
:10C95000002001F095F8BB68164A01939D186B1EE4
:10C960009D41010002A81AF0FAF9049E220000215C
:10C9700030001CF09DF83868EDB2C3070AD43300CC
:10C980002200290018F0CFFC02A90B48F3F7C0FCE5
:10C9900007B0F0BD43102000042C00D90420074943
:10C9A000019F00228F4200D0221A2900B21819F0EC
:10C9B000C0FEE9E73AECFFFF508D0200C61300000D
:10C9C000F0B50C0087B00122606803A9F6F728FAD9
:10C9D000039AA3681249140001268B4204D10499DA
:10C9E000023E4C1E01911419049900200D00002DE7
:10C9F00002D118F0E6FC0BE08027013DFF03B842AE
:10CA000008D308481B18581E8341D8B218F07CFC84
:10CA100007B0F0BD277800023843A419E7E7C04605
:10CA2000C61300003AECFFFF70B546007508041C01
:10CA3000291C281C0EF0DAF9002811D11949281CEC
:10CA40000EF0D4F900280ED11649281C0DF072FA08
:10CA5000002808D11449154816F031FA00F0A2F95F
:10CA6000134801F00DF8002C10DA002E06D0FF2339
:10CA7000DB05E3189C22D20593420AD8201C0EF055
:10CA8000CBF9012540000543280070BDE30DDB050F
:10CA9000F0E703F017FB211C0500043014F032FE10
:10CAA000F2E7C046FFFF7F7FD14C0300B8A402002D
:10CAB000EA4C0300F0B50D00002685B011002800F7
:10CAC0001C0032000223009605F022FC0120B54232
:10CAD0002ED0854234D120680540E9B2B14227D139
:10CAE000032302001A40184203D11C4B01689942EB
:10CAF0001ED01B4B0340062B06D0002A0DD1026826
:10CB0000184B92699A4208D103A9F4F78DF80023D3
:10CB10001A000399F5F736FD0AE0032302001A40D4
:10CB2000022A07D1FF22D20580189843FFF77CFF25
:10CB300005B0F0BDF5F7BAFF012340001843F7E751
:10CB400003A92068F4F770F805006068039FF5F703
:10CB5000ADFF3300020039002800DBE760B60200B9
:10CB6000070080FFD1110000F8B51F000C4B150025
:10CB70005B18013B19780DF00DF800260400B74250
:10CB800004D0032101300DF005F806002B1E03D060
:10CB900028001BF0E1FF0300E01C8019C018F8BD5D
:10CBA000034D0300F0B58DB00A9214AA177815AAA8
:10CBB000127805000C000792DA0744D55A10049247
:10CBC000002B5CDB002306932020079B139A12990D
:10CBD000FFF7CAFF23680590834204D219F01CF9BD
:10CBE000059B2860236000222E68059BF418631EB5
:10CBF0001A70049A002A47D00A3F099308930B97AA
:10CC0000049F129938000DF04BF80B00049030335C
:10CC1000092901D90B9B5B18089A541E2370079BA6
:10CC2000002B4DD0129B9F4231D3A6422FD2099B9D
:10CC30001B1B032B05D1079B013C2370A64226D268
:10CC400009940894DCE79A0712D1274A196891429F
:10CC50000ED1079A21000392139A02970192129A19
:10CC600000920A9A18F026FB040020000DB0F0BDD7
:10CC700000232A6813700A9A2C681360F5E7049B56
:10CC80005B4204932D239EE73023023C2370139BC9
:10CC9000002B05D018001BF05FFF201A864220D31E
:10CCA000069B002B04D0B44202D9069B013C2370A2
:10CCB0002868059BC018001B0A9B01381860D4E740
:10CCC000A642E4D2129B9F42BBD2E0E7C25401339A
:10CCD000139AD25C002AF9D1069B0400002BE4D100
:10CCE000E6E70023F4E7C04660B60200134B10B538
:10CCF000140001229C421CD0114B03229C4218D0EC
:10CD00000023072818D10F48204006280ED0A2077C
:10CD100012D120680C4A904208D00C4A904205D0AB
:10CD20000B4A904202D00B4A904205D10A000720DC
:10CD3000210000F0ADFE0300180010BDD4E3020096
:10CD4000DCE30200070080FF309A0200508D0200F1
:10CD500090C1020098E30200C460056146618761EA
:10CD60004146C1614946016251464162594681626C
:10CD70006946C162714681600049084785CD00005F
:10CD80000020C046024B9A680260986000207047FD
:10CD9000102A0020024B9A6812689A607047C046B9
:10CDA000102A00200E4A9368002B01D115F0BCFA1E
:10CDB000196858609160181CC468056946698769DC
:10CDC000C1698846016A8946416A8A46816A8B46FA
:10CDD000C16A8D4681688E4601207047FEE7C046D5
:10CDE000102A002070B504F0FFFA0F4C0F4B0025FD
:10CDF000A3620F4BE562636323000321A8330D4850
:10CE00001D60A564256303F023FD0B4E0121300056
:10CE100003F01EFD3000094A094918F07FFB266027
:10CE20006660E56570BDC046102A002050A3020070
:10CE300088C10200482A00205C2A0020860F0000DA
:10CE4000960F000070B50624134EC3001C43736890
:10CE5000002205002100181DFBF784FE021E18D1D8
:10CE6000F06D002807D021000430FBF77BFE00287E
:10CE700001D0406870BD002221000848FBF772FE17
:10CE8000021E06D12A0006490648FBF749FBFFF7B8
:10CE900089FF5068EEE7C046102A0020D8AC020097
:10CEA000134D030004A402000A4B10B5040009CB83
:10CEB00098420AD00621E300002219430430FBF710
:10CEC00051FE002801D0406810BD2000FFF7BAFFD6
:10CED000FAE7C046102A0020074B10B5D86D00288D
:10CEE00001D1064810BD002205490430FBF73AFE87
:10CEF0000028F6D04068F5E7102A0020A0AB020019
:10CF0000EE0E00000A00062110B5034BC0000143DD
:10CF1000186818F003FB10BD102A0020062110B578
:10CF2000034BC0000143186818F002FB10BDC04657
:10CF3000102A00200A00062110B5034BC00001434F
:10CF4000586818F0EBFA10BD102A0020062110B521
:10CF5000034BC0000143586818F0EAFA10BDC04600
:10CF6000102A002037B505000C00062806D108005D
:10CF7000F5F7DAFE00281DD02D483EBD0120014204
:10CF80001ED04B10032D08D80800012DF5D8002D18
:10CF90000ED0DB435B00012010E0042DF9D1C0224C
:10CFA0001206934208D18020C00518F0EFF9E4E79B
:10CFB000002BE1D01F48E0E75B425B001843DCE751
:10CFC000022D1AD11C4B0B40062B08D08B0714D115
:10CFD0000A681A4B92699A420FD1486802E0C80861
:10CFE00018F030FB002806D101A92000F3F700FA61
:10CFF000019904F0E7F94300CDE72000F5F772FC52
:10D000004369002B0DD10E4B2000AD00ED5815F0FB
:10D0100085F82A0003000B490B48FBF781FAFFF75C
:10D02000C1FE2100280098470028A6D1EBE7C046A2
:10D03000D4E30200DCE30200070080FFD11100000E
:10D04000C8B502002C4D0300E4A50200F7B50400AA
:10D0500015001E000191F5F745FC0769002F09D165
:10D06000200015F05BF8064902000648FBF758FA65
:10D07000FFF798FE33002A0020000199B847FEBD53
:10D08000E64B0300E4A50200F8B50E0015001C00F5
:10D09000930714D113681F4A934202D16B6823602F
:10D0A000F8BD1D4A934207D1002802D0F5F71AFCBB
:10D0B00006006B6848C4F3E7184A934201D1256023
:10D0C000EEE75A68022117008F43922189008F42B0
:10D0D00002D02C398A42F2D1002817D1104A93424B
:10D0E0000BD0104A934208D00F4A934205D00F4A02
:10D0F000934202D00E4A934208D10C2018F08CFEC5
:10D100000C4B4660036085602060C9E72560606065
:10D11000C6E7C04614B50200D8B402008CB50200C0
:10D1200004E8020040E802007CE80200B8E80200DF
:10D13000F4E80200A4B60200F8B5002313605360BF
:10D1400006000D001400F5F7CDFBFA2307005B0085
:10D150009D4205D1836A002B02D00F4B48C4F8BD15
:10D16000FB69002B04D02200290030009847F6E725
:10D17000B86B0028F3D0E90006251A0029430430D3
:10D18000FBF7F0FC0028EAD04268230039003000A9
:10D19000FFF77AFFE3E7C04668AC020070B51600FF
:10D1A00004000D00FFF7C8FF3368002B15D10B4EAC
:10D1B000A3070BD10A4B22689A4207D12B00626861
:10D1C00008493000FBF7ACF9FFF7ECFD200014F044
:10D1D000A5FF2B0002000449F3E770BD34A1020053
:10D1E0008CB502004A4D0300714D030073B5040075
:10D1F0000D001600F5F776FBC369002B09D0042259
:10D200002900009220006A4601969847009B002B57
:10D210000AD0200014F082FF2B00020003490448CA
:10D22000FBF77EF9FFF7BEFD73BDC046714D0300ED
:10D2300034A1020073B505000C00F5F753FB174B42
:10D24000426A06009A4226D0002C03D1102018F022
:10D25000E3FD0400736A002B12D1E8216A4628001E
:10D26000FF31FFF769FF009B002B0FD1280014F05E
:10D2700055FF0B4902000B48FBF752F9FFF792FDEF
:10D280002100280098470028E7D076BD2100684695
:10D29000FCF7F6FCF9E72800F7E7C0464921020051
:10D2A000934D0300E4A5020037B50400F5F71AFB1F
:10D2B000856A002D02D02000A8473EBDFA216A46AB
:10D2C00020004900FFF738FF009B002B05D06A467D
:10D2D0002900280017F0D4F9EFE7200014F01EFF12
:10D2E000034902000348FBF71BF9FFF75BFDC0464B
:10D2F000AF4D0300E4A5020030B505008FB0FFF785
:10D30000F5FA2800F5F7EEFA846A002C05D028001B
:10D31000A047040020000FB030BDFA216A46280063
:10D320004900FFF709FF009B002B16D002A8FFF76A
:10D3300013FD002807D16A46010017F0A1F9040087
:10D34000FFF728FDE6E7039B08491868FEF7D2FFC0
:10D350000028DFD10398FFF725FD280014F0DEFE3A
:10D36000034902000348FBF7DBF8F4E730A50200AD
:10D37000AF4D0300E4A50200F0B513688FB0041EA2
:10D38000079300D075E0131D0393FF230A00090AD9
:10D3900019401A404B00069313000192069A05911A
:10D3A0009B18039A9B00D2580492039AD3185F6883
:10D3B000381E09D00020BB0706D1954B3A689A4227
:10D3C00002D1380018F0A7F8059B1818049B4500F7
:10D3D000002B53D1019B581C4519A80018F01CFDC7
:10D3E00002940600002C02D0012304600293029BE9
:10D3F00003999800019B30189A001BF03DFB019A9D
:10D40000029B944663440293029B9800059B30184C
:10D41000DA00019B9900039B59181BF02DFB029A1F
:10D42000069B944663440193002F12D003240323E8
:10D430003C401F4200D0AAE0754B3A689A4200D0A7
:10D44000A5E0380018F07FF805006B689C4200D218
:10D4500080E0019B029A02999A1A520833000798B9
:10D46000FFF7F4FD0400300018F005FD20000FB0B8
:10D47000F0BD130008335468039386E7049B9B07B1
:10D4800033D1049B634A1B68934202D0624A9342A1
:10D490002BD104980AAA09A9F5F7ACFB099B581CE3
:10D4A000019BC0184519A80018F0B6FC02940600AC
:10D4B000002C02D0012304600293029B0399980080
:10D4C000019B30189A001BF0D7FA019B029A0A9927
:10D4D0009818099B80009A0030181BF0CDFA099A21
:10D4E000019B9B18029A9B188DE7019B181D4519FB
:10D4F000A80018F091FC02940600002C02D0012331
:10D5000004600293029B03999800019B30189A00D3
:10D510001BF0B2FA019A029B9446049863440AA94C
:10D520000293FFF787FE04900498FFF7E5FE041EC0
:10D5300000D169E7029B9D4205D83000E90018F050
:10D5400089FC06006D00029B9B009C51029B0133ED
:10D550000293E9E7AB68E700D859002815D0042802
:10D5600013D00323184205D12C4B02689A4201D1F3
:10D5700013F064FE019B019A9B00F050023201926D
:10D58000AA68F318D7197A685A6001345DE7380041
:10D5900023490AAAFFF702FE00210AAA080017F091
:10D5A0006FF80021FFF746FE03900398FFF7A4FEF3
:10D5B000041E00D14DE7019B01339D4208D86D0048
:10D5C000042D00D204253000A90018F043FC060009
:10D5D00003231C4207D1114B22689A4203D1200039
:10D5E00013F02CFE0400E82138000AAAFF31FFF7EF
:10D5F000D5FD0AAA002101200C9417F041F8019BE7
:10D60000019A9B00F4500232F31801925860CCE763
:10D6100010C1020090C1020098E30200309A02009B
:10D620006F02000070B50C00150086B083071AD198
:10D6300003681F4A934202D01E4A934213D102AAA2
:10D6400001A9F5F7D7FA019BA34229D319D8029B68
:10D65000A4001C19211FA34201D106B070BD0A68A5
:10D660000C0004C5F6E702A9FFF7E4FD002306005D
:10D670000193019B3000A34206D3FFF73DFE002833
:10D68000EBD022000C490DE0FFF736FE002807D052
:10D69000019AD3431B199B00013258510192E8E7CC
:10D6A000019A06490648FAF73BFFFFF77BFBC046A5
:10D6B00090C1020098E30200F14D0300CE4D03003B
:10D6C0005CA60200F7B5FF260D00090A35401400DC
:10D6D0000E4083072BD10368354A934202D0354A66
:10D6E000934224D1694601AAF5F784FA0098AB1950
:10D6F000834255D801998300B200CB18A218043B8D
:10D7000094420DD1AF00401BC919801B18F0BAFF1D
:10D71000019B2060DF193A1F0434BB4203D1F7BDDF
:10D720001F6880C4EBE7116817002160F3E7002150
:10D73000FFF780FD002307000093009BAB4219D345
:10D740000021080018F09EFF05003800FFF7D4FD07
:10D75000011E1CD1AB68B34222D3B200A418991B9E
:10D7600025608A009B00043C9A4214D1280018F0DE
:10D77000A5FFD4E73800FFF7BFFD002810D0009ABE
:10D78000AB1A9B199B00013218510092D5E7280073
:10D7900006F028FAD9E7E868805804322060E2E70A
:10D7A000009A05490548FAF7BBFEFFF7FBFAC046A9
:10D7B00090C1020098E30200CE4D03005CA6020077
:10D7C000F0B591B01D0006000C001700F5F78AF8BF
:10D7D000334B984207D12B003A002100300003F070
:10D7E000AFFF11B0F0BD826A2E4B002A08D09C42D8
:10D7F00030D13000904728600028F2D00120F0E7B7
:10D800009C4227D1FA21300001AA4900FFF794FC7D
:10D81000019B002B0DD1D821300001AA4900FFF750
:10D82000BDFC03940021012001AA16F029FF286005
:10D83000E4E704A8FFF790FA002807D1010001AA45
:10D8400016F01EFF2860FFF7A5FAD7E7059B2B60AF
:10D850000220C6E7002CDED13800F5F743F8124964
:10D86000FEF748FD01AA00280ED030000F49FFF74F
:10D8700063FC019B002B10D02100200001AA16F0B0
:10D88000FFFE28602000ACE730000949FFF754FC98
:10D89000019B002B01D00397C4E72F60D8E7C04657
:10D8A000C4CE020010B1020024A202001B0200003C
:10D8B000D302000010B50400FAF77AFE002808D061
:10D8C000002320001A001900FFF7C0FB040020000D
:10D8D00010BD200015F0F7FA0028F8D102490348DE
:10D8E00015F0EDFAF2E7C046194E0300E4A5020078
:10D8F0007FB5C30006201843054B01900491052015
:10D9000001A902930393059200F0EEFA07B000BD5F
:10D9100010B102001423F0B58DB000AFFA18050065
:10D920000C00FFF709FCBB69002B06D022002C4934
:10D930002C48FAF7F5FDFFF735FA786900284BD146
:10D94000280016F0F6FE0028F0D01423F921FA186A
:10D9500028004900FFF7F0FB10227869B918F3F7A7
:10D9600063F9B860200017F072FE6A463E69B96834
:10D97000731C7B60C318FB600733DB08DB00D31A22
:10D980009D466D46320028001BF076F82E23AB55DD
:10D990007B682000EE1817F05FFEB860200017F0DB
:10D9A00056FEB968020030001BF066F8F9682800DE
:10D9B00003F05CFDC300062018430B4B10223B62B2
:10D9C0007B620A4BF861BB620123FB620B339B183D
:10D9D0000520D91900F088FABD460DB0F0BDC0464B
:10D9E000434E030060A2020010B10200DCE302001B
:10D9F000F0B5174C0F00616895B0039121680600DF
:10DA000008A8049162602360FFF7A6F9051E06D0FE
:10DA1000039B09986360049B2360FFF7C3F9336895
:10DA20003A00310005A8019304F038F92B002A00D0
:10DA3000019905A8FDF7ECFE16F013FE0500FFF7AF
:10DA4000A9F92800039B6360049B236015B0F0BD17
:10DA5000102A002010B5040000F0FCFD031E05484C
:10DA600002D0054916F049FE22000449FAF758FD94
:10DA7000FFF798F9C8A30200594E0300824E030035
:10DA8000010010B5014816F038FEC0465CA6020041
:10DA9000F0B58BB00F0004900392202803D191427F
:10DAA0000FD0B04DC0E0049B1B2B01D01E2B0DD11D
:10DAB00038000399F4F7A8FF049B002803D01B2B20
:10DAC000EFD1A94DB0E01B2BFBD1EAE7049B212B42
:10DAD00040D10398FAF76CFD002806D0380003996E
:10DAE00015F0F7F90028ECD1DBE70323039D039A37
:10DAF0001D401A4204D112689C4B05929A4223D0D1
:10DB0000049B98009A4BC558380014F007FB04009A
:10DB1000039814F003FB230000902A0095499648CF
:10DB2000FAF7FEFC48E1039BAA0008339C5820004A
:10DB3000FAF73EFD002800D159E12100380015F028
:10DB4000C8F90028BDD10135039B5B680593AB4242
:10DB5000E9D8A6E70123194200D117E1039A4E1034
:10DB60001A4200D1E9E0049B54101D2BC8D81800BC
:10DB70000CF006F81E0028002A002D0045004C007D
:10DB80004E0050005D0066007B008300B6001E0062
:10DB900028002A002D0045004C004E0050005D007A
:10DBA00066007B008300CE00D200C6FFD600DA00FC
:10DBB00026433700780003007B4000D5B8E00125FC
:10DBC000054331E06640F4E734402700F2E7002CDB
:10DBD00002DA6A48FFF754FF1F2C0ADC684B234126
:10DBE000B34206DBC02337001B062341A740B342E4
:10DBF000E0DD3000F11717F0BAFB07004BE0002C16
:10DC0000E7DB1F2C00DD1F242641D2E73719D1E7BF
:10DC1000371BCFE721003000FAF732F90028E8D1AE
:10DC2000012574436400254328000BB0F0BD002C8F
:10DC300000D1DEE02100300015F06FF80700B9E7F1
:10DC4000002C00D1D5E030000DF006F9051C2000B5
:10DC50000DF002F9011C281C0CF02CFC03230225FA
:10DC60009843484B0543ED18DEE7002C00D1C0E097
:10DC70002100300015F042F8E0E701273500059754
:10DC8000002C2ADA30000DF0E7F80323FF1998433F
:10DC90003C4B0743FF183800F4F724FE8369002B40
:10DCA00000D12DE73900039A0498984756E0059B68
:10DCB0001C4206D029003800FAF7E2F8002898D173
:10DCC0006F43012C00D175E7290028006410FAF792
:10DCD000D7F8002800D08CE76D43002CE7D169E726
:10DCE000002C00D185E00021022002F093FE2100EB
:10DCF0000500300015F011F8012740003843A860F6
:10DD00002100300014F0FAFFB8400743EF608BE7C2
:10DD1000A64200DAD5E6C4E6A64200DDD1E6C0E6BA
:10DD2000A64200DCCDE6BCE6A64200DBC9E6B8E6CA
:10DD3000380017F02BFB050076E70323039A134006
:10DD4000022B23D1104B1340062B1FD030000DF0B7
:10DD500083F8039A011C0498FAF774FD051E00D09D
:10DD600062E7CDE6D4E30200DCE3020090C10200EA
:10DD700040B40200C54E0300E4A50200B04E03000B
:10DD8000FFFFFF3F00008080070080FF049B1F2BE8
:10DD900000D080E70398F4F7A5FD83690400002B09
:10DDA0000CD1636A002B11D1039814F0B7F9134911
:10DDB00002001348FAF7B4FBFEF7F4FF3A000399A8
:10DDC00004989847051E00D02EE7EAE7039806A9B5
:10DDD000FFF730FA04002000FFF78EFA002800D188
:10DDE0005FE63900F4F710FE0028F4D069E60394EA
:10DDF00086E60449044816F080FCC046934D0300B3
:10DE0000E4A50200E91F030098A60200010010B576
:10DE1000014816F072FCC046E4A50200F8B5040003
:10DE20000D0017001E00002908D01868F4F75AFDED
:10DE30006368834202D00548FFF7E8FF33003A00E9
:10DE40002900A068FFF702F9F8BDC046EA4E0300BA
:10DE500001214000014310B5024815F029F8FEF7F2
:10DE6000A1FFC0467CA40200010010B5014816F0D5
:10DE700044FCC04640A4020010B5034A03490448CC
:10DE800018F0E5FD034810BD024F0300A61E030075
:10DE90002CE6020010B1020010B5034A0349044801
:10DEA00018F0D5FD034810BD46500300A61E030020
:10DEB0002CE6020010B1020010B5040018F08BFF30
:10DEC00014F025FA01280BD02000064918F0F0FFC5
:10DED000200018F080FF14F01AFA022800D0002069
:10DEE00010BDC0465A510300F0B59DB00C6800AF9C
:10DEF000032836D9CB68FB60042836D00B69002094
:10DF00005D10002B2BDB1C232000F918F2F78CFE90
:10DF10007861002D5AD0964E9649706802F086FCC2
:10DF200004007068002294490430FAF71BFE18239D
:10DF3000DB18D91906002000F2F776FE3B6B0100D2
:10DF4000013DC418002E05D1A14203D2013C237823
:10DF50002E2BF9D1013D0ED2A1420FD18748FFF7F8
:10DF60008FFD874B0025FB60CDE70025CBE7013C0B
:10DF700023782E2BEED0A142F9D3EBE7FE69641A89
:10DF80003C61002E02D0731C1B193B616A463B6941
:10DF90000733DB08DB00D31A9D466D4622002800BC
:10DFA0001AF06AFD002E07D02E23601C320079691A
:10DFB0002B5528181AF060FD2800396903F056FA2D
:10DFC00006243B69C0000443FB617D612000F2F739
:10DFD000F7F9FAF789FD061E15D02E2178691AF097
:10DFE000A3FD00280BD0664BFA689A4207D17B69E3
:10DFF000C11A180003F03AFAFAF776FD060030006D
:10E00000BD461DB0F0BD182318000125DB18DA1934
:10E01000283B1B184021D81918F0A9FEBE603E61AC
:10E02000FB69AB4205D2564BFA689A42E7D0BE680C
:10E03000E5E7AB4204D07B695B5D2E2B00D094E01A
:10E040002900786903F012FA7B6A3860002B17D137
:10E050002A00082479691833E018C01918F053FE13
:10E060001823E318D819FFF727FF78607B68002B87
:10E0700014D13A6843494448FAF752FAFEF792FE3F
:10E0800018230824E2182F21D01918F0BFFE3B698D
:10E090003969EA1A7B6959181823DDE73868FAF7F5
:10E0A00023FD041E4BD13868FAF7ECFCFB69040031
:10E0B000AB4213D1354BFA689A420FD17B68012BE2
:10E0C0000FD0334A2B49406817F028FA182208234A
:10E0D0009B182000D91916F01AFB30E07B68012B41
:10E0E000F4D10022796AB86AF2F748F9F621020001
:10E0F000FF312000FFF77AF87B6A18227B60082343
:10E100009B18D8192F2118F081FE182208239B187C
:10E11000D819204918F0CCFE182208239B18D819CA
:10E1200018F059FE14F0F3F8022806D1082318223B
:10E130009B182000D91916F0EAFA7B687B62BB684D
:10E14000002B0CD03B69E91A18007B699C4660449F
:10E1500003F08CF922000100B868FFF747F8002EA1
:10E1600000D126006B1C3B61BC60013558E7C046FE
:10E17000102A0020960F0000AE0F00001E51030071
:10E1800010B102003D51030060A20200D4E302007E
:10E19000860F000052510300F7B50020234A244E99
:10E1A00012783368111D49005F18C95A5C88490507
:10E1B000490D4C431F49A412096801907D7807203E
:10E1C0002F008743F82F21D00127ED08AF40A02072
:10E1D0003D00A127C005FF000132C551D2B2151D77
:10E1E0006D005F19ED5A6D05680D5D884543AD12F0
:10E1F000281B8446A542E1D00C480270019A002AEF
:10E2000002D00C4A336011606046FEBDA0200A4A6D
:10E210005C68C0058450002902D10A000C00DEE7CA
:10E2200001220B0001920021F7E7C0469C2F00203D
:10E230000C2C0020102C00200C05000010B572B62C
:10E2400000220D4B1C681A6062B6944211D10B4B30
:10E250000B4C1968A14200D10A4C20000A78083002
:10E2600022704B88520063804B68083163601AF05B
:10E270000CFC200010BDC046102C00200C2C0020EF
:10E28000142C0020442C0020044B054A1A60002363
:10E29000044A1360044A13707047C0460C2C0020D7
:10E2A0008CB70200102C00209C2F002010B5782283
:10E2B0000220024900F0CEFE10BDC04699E10000E8
:10E2C000421E084BFF3A10B504009A4207D8FFF7E8
:10E2D000B5FF054B241144801860002010BD0120BB
:10E2E0004042FBE740410F00102C0020044B1B680C
:10E2F000002B01D1034B1B68588800017047C046B2
:10E30000102C00200C2C00208023F7B5DB0004002B
:10E310000D000800994200D333481B1A0193FFF700
:10E320008DFF0122A24046680092164207D12300C9
:10E33000A0210327C133FF339B00C9055F5000278D
:10E3400003789F4206DB002D01D0132B0BD9274BFE
:10E350001860F7BD391D490042185278D20894421E
:10E3600038D00137EDE7009A019932434260E40268
:10E370001A1D52000C430133145203700122851CF4
:10E3800003789A42E3DA2F00131D5B00195A2E8995
:10E390004905490D531E1C1D6400245A6405640D73
:10E3A0008C4204D9FC88023F7C81013BF3D20533C7
:10E3B0005B001E5201320235E2E7009A013BDBB2FC
:10E3C000964303704660BB42D8DD04335B001B5AA2
:10E3D0000B52D3E7002DF0D0019B5A050B5A520D7A
:10E3E000DB0ADB021343F3E7FF030000102C0020DD
:10E3F00070B500210400FFF787FF00210C4B18685F
:10E400000578A94211DA0B1D5B00C3185A78161C57
:10E41000D20894420AD10822524232435A70012350
:10E42000A021A340034AC9058B5070BD0131E8E724
:10E430000C2C00200C05000010B50C0016F0E3FFBA
:10E44000631E184207D00200230003490348FAF76D
:10E4500067F8FEF7A7FC10BD5E5103005CA6020042
:10E4600070B5060014000800002A0FD07168042A55
:10E4700010D1FFF7E1FF7368012B03D0022B07D007
:10E48000006800E0007816F081FF0400200070BDF5
:10E490000088F8E7FFF7D0FF05002000F4F732FB13
:10E4A0007268054C012A03D0022A03D02860EDE7E8
:10E4B0002870EBE72880E9E710B1020010B54A6840
:10E4C0000249D20018F0C3FA10BDC04686510300BD
:10E4D000030010B50548002B03D114F0E3FCFEF750
:10E4E00061FC096814F0E4FCF9E7C046A8A5020045
:10E4F00010B503480968F4F731FA024810BDC04668
:10E500002CE6020010B10200F0B52F4C85B02700B8
:10E51000B43703972200FC32536C2C498B4201D84C
:10E5200005B0F0BD043B53642200AC3216680325ED
:10E5300000221B68013299188808305C2940490084
:10E54000084128400228F5D0032503991B010968DA
:10E550001201CB18D21802921B4A02998B42D9D0D1
:10E560000F20196801422AD119480068884226D82C
:10E570001600B83636688E4221D9091A080901906A
:10E580001000AC30006889094618B446465C019812
:10E590003100284040000141294001290FD12F00BE
:10E5A000874038003043664630701600FC36706C89
:10E5B000084FB84205D2011D71640199016004330E
:10E5C000CBE71000BC30F9E7102A0020D02A002049
:10E5D000C42A0020502B00200F23994370B505005A
:10E5E0000E00081A41210BF0D5FA0F4C020023004F
:10E5F000B033186023002100AC331D608301F31A8F
:10E60000B4310B6023002800B83300211E601AF0DB
:10E610004FFA8023FC345B020122A36400235242A0
:10E62000E3642265636570BD102A0020A2220349BD
:10E6300052008B5A01338B527047C046102A00207B
:10E64000A222034952008B5A013B8B527047C046AD
:10E65000102A0020A223034A5B00D05A431E98418F
:10E66000C0B27047102A0020F7B50024032500909F
:10E670000191019B9C4200D1F7BD009AA300D258A2
:10E680000F231A422AD1194B1900B431096891425B
:10E6900024D81800B830006890421FD9521A1900C7
:10E6A000AC310968100992098E188F5C01003A009C
:10E6B000294049000A41B4462A40012A0ED12E00C1
:10E6C0008E403100664639431F003170FC37796C4B
:10E6D000074EB14206D20B1D7B640860FFF714FFA2
:10E6E0000134C6E7BC331A60F8E7C046102A0020A0
:10E6F000502B0020A22210B508485200835A010076
:10E700000133835203000022FC33BC310A60DA6417
:10E71000034A27215A64FFF7A7FF10BD102A0020E3
:10E72000D02A0020F8B503262E4C00252200BC324A
:10E730001368AB4213D1022219000326944622002B
:10E74000B0321268920091422AD323000022FC3397
:10E750005A654532FF32A35A013BA352F8BD23004C
:10E760001560214AFC335A642300B0331B689B00B8
:10E770009D42D9D22200AC321268AB08D35C2A0089
:10E780003240520013413340032B07D12200FC32A8
:10E79000536C191D51641D60FFF7B6FE0135E3E7A8
:10E7A0002000AC3000688A088718825C08001500D9
:10E7B0003040400005413540022D09D0032D0BD0DB
:10E7C000012D07D1330083409A433A70012301E0C1
:10E7D000002BF7D10131B2E7634683409A433A7088
:10E7E0000023F7E7102A0020D02A0020F7B5354A89
:10E7F00013001100B833B43109681B685B1A1100AB
:10E80000B0321668036003220023AC3109681C0093
:10E8100001919446190043608360C36003614361C2
:10E820008361B600019D8A08AA5C65460D406D00B3
:10E830002A4165462A404568012A2ED0022A2FD057
:10E84000002A04D18468013301348460140001314A
:10E850008E420DD0019D8A08AD5C62460A4052008E
:10E860001541674662462A403D4201D0012AD9D16E
:10E87000012C19D10569013505618569A54200D2D0
:10E8800084618E4201D0012ACCD1C2689A4200D262
:10E89000C3608E420ED00023C4E701354560D5E742
:10E8A000013545600134D2E7022CE6D145690135D6
:10E8B0004561E2E743681B01436083681B01836095
:10E8C000F7BDC046102A0020F7B50F3003090193A9
:10E8D00002D100252800FEBDA223464A5B00D35A80
:10E8E000002BF6D14733FF33D35A5D425D41002BF5
:10E8F00007D0404BFC33DA6C1B6D9A4201D305F014
:10E9000023F9002430213F203A4A3A4BB0321268B2
:10E91000FC339446374A5B6DAC3217689C4505D88A
:10E92000002DD6D105F010F90135EBE70326FA5C8E
:10E9300032422FD1019E0134A6422CD89B001A1BD3
:10E94000501C012C04D12B4D591CFC3589086965DC
:10E9500003218C46014049000E000121B140850889
:10E960007E5D023231437955224FAC37934233D228
:10E97000204B0001B4331D681E4B2D18FC33DA6C9C
:10E98000019894466044D8640021280022011AF0BE
:10E990008FF89FE700240C26324206D1019E0134F5
:10E9A000A64203D89B000133C9E700240A4206D1DE
:10E9B000019E0134A64203D89B000233BFE7002426
:10E9C000824306D1019A0134A24203D89B0003334B
:10E9D000B5E700240133A1E7614602261140490052
:10E9E0008E4031003E689508765D013231433E68C5
:10E9F0007155BBE7102A0020A22270B515495200BC
:10EA00008A5A002A24D1002822D00A00B43212687F
:10EA1000801A0A00FC32536D04098009984200D222
:10EA200050650322AC312300160013405B009E406A
:10EA30000868A508435D0134B34343550868A3083B
:10EA4000C35C20001040400003411340022BEAD079
:10EA500070BDC046102A002003000F2230B51040C0
:10EA6000134225D1134A1100B431096899421ED8C6
:10EA70001400B83424689C4219D95B1A190903247C
:10EA80000D00AC3212689B09D35C25406D002B4110
:10EA90002340012B0BD101300B189D08555D2340FD
:10EAA0005B001D412B002340022BF4D0000130BD40
:10EAB0000020FCE7102A0020F0B585B005000F000B
:10EAC0000192002807D101003800FFF7FDFE060083
:10EAD000300005B0F0BD002903D1FFF78DFF3E00E7
:10EAE000F6E70F220300002613401042F0D15149EF
:10EAF0001E000A00B43212688242E9D80800B83019
:10EB00000068A842E4D9AA1A100984460800AC306B
:10EB100000689209845C0090624603200240520023
:10EB200014410440012CD3D1A22252008A5A002A57
:10EB3000CED1B0310A683E009200029262460F3692
:10EB40003609511C029A914217D200988A08825CB9
:10EB5000032003920A000240039852001041020071
:10EB600003200240022A02D101340131EAE7002ADF
:10EB700003D10133E218B242F7D3B44201D12E00DF
:10EB8000A6E7B44222D931002300AC20634461449B
:10EB900084460A0003260093264B9C44100037004D
:10EBA000304040008740604600689408005D0132B4
:10EBB000B84367463F68385500988242EED1FC332F
:10EBC0005A6D89089142DAD25965D8E71B19B342C8
:10EBD0001DD36346174AE318AC326146891999423E
:10EBE00007D8321B200100211201281819F060FFFC
:10EBF000C5E703210227194049008F4039001768F3
:10EC000098083F5C0133394317683954E5E7019EA2
:10EC1000002E00D15CE700213800FFF755FE061EEC
:10EC200000D155E72900220119F026FF2800FFF73F
:10EC3000E3FE4DE7102A002010B58CB005A8FFF7C1
:10EC4000D5FD079B0A4C059A039300932000069B71
:10EC5000084917F0FCFE089B200001930B9B099AC2
:10EC60000393009304490A9B17F0F1FE0CB010BD0A
:10EC70002CE602009C510300BF510300F8B5434E3F
:10EC8000434F3300B43338001A68424917F0DFFEAF
:10EC900000243300B0331B689B00A34223D93F22DA
:10ECA00014422CD132002500AC3210680321AA088E
:10ECB000825C294049000A4103210A4202D1013500
:10ECC000AB42F3D12A1B7F2A12D93800324992096C
:10ECD00017F0BDFE2C003F239C433300B0331B686C
:10ECE0009B00A34204D838002C4917F0EAFDF8BD78
:10ECF0002B4B220138002B491A4017F0A8FE320096
:10ED0000AC321268A308D35C0322224052001341A4
:10ED1000032213403A32022B31D03032032B2ED053
:10ED20003F3A012B2BD13300B4331B682201D35857
:10ED30001D4954228B4222D01C49083A8B421ED0D6
:10ED40001B49083A8B421AD01A490F328B4216D00F
:10ED500019498B4213D01949123A8B420FD01849E6
:10ED60008B420CD0174905328B4208D01649043A21
:10ED70008B4204D015490B328B4200D01B32380035
:10ED8000134917F064FE013483E7C046102A0020BF
:10ED90002CE60200045203001F52030059600300D6
:10EDA000F0FF0F003B52030090C1020098E3020005
:10EDB00010C10200309A0200508D02005CB00200C7
:10EDC00020B00200DCA90200C8E70200ECAA0200A1
:10EDD000A6F90200C3790248002B00D10148704710
:10EDE000DCE30200D4E3020010B5F4F79FFB014816
:10EDF00010BDC04610B1020010B50868F4F796FBCC
:10EE0000004810BD10B1020073B50E00022837D1C2
:10EE10000124706801A9F1F707FF64422500019BF6
:10EE2000C318834212D163425C416A42554101A931
:10EE30003068F1F7F9FE0199E3B2EAB2F4F7E8FCC1
:10EE4000002821D11149124815F057FC0278722A86
:10EE500001D0772A06D1691C0FD1723A554255412B
:10EE60000130DEE7622A01D0742A06D1611C04D188
:10EE7000743A140062425441F2E70648FEF700FE7D
:10EE8000012464422500CEE776BDC046DA010300C6
:10EE90007CA40200435203008022044B52001A60FB
:10EEA0000123034A1360034A1360704700E100E046
:10EEB0000C8C0040008000408022054B5200DA6735
:10EEC000044BFF3A5A600022034B1A607047C04659
:10EED00004E100E0008000400C8C004070B500258B
:10EEE00001261E4B1E4C1D601E4B18601E4BE6502B
:10EEF000C046FFF7E1FF1D4B1D4AE660E2500222CB
:10EF00001C4BFF20E5500433E25008339218E250C6
:10EF1000C12380229B001203E250053BFF3BE550DA
:10EF2000C2244022144BA400195981430A43802172
:10EF30001A510C341A5909061202120A0A431A51BC
:10EF4000C0220434195981430A431A518022120401
:10EF50001A60802252041A6070BDC046882C0020BE
:10EF600000800040842C0020FC0F00004C050000B5
:10EF7000701700000405000000E100E070B52D4DA1
:10EF80002D4C6B6C002B11D000236B642B4B1B683A
:10EF90009847A8220121D200A3582164A15800015A
:10EFA0001B185E1A360200D54318A350AB6C002B19
:10EFB00010D00023AB64214B5B6898470121204AA5
:10EFC0000001A3586164A1581B185E1A360200D5CF
:10EFD0004318A350EB6C002B11D00023EB64174BAC
:10EFE0009B689847A9220121D200A358A164A15887
:10EFF00000011B185E1A360200D54318A3502B6D72
:10F00000002B15D0002301210E4A2B65A3580E4D6D
:10F01000E164A1585B19581A000200D54B19A3509E
:10F020000A4A1368063313608022094B12045A609F
:10F0300070BDC046FC800040008000400C000020F5
:10F04000440500004C05000070170000882C0020CB
:10F05000FCE100E0F7B50191032823D8134B8000B1
:10F06000C758C223124C9B00E750012301190B64BF
:10F07000A8230F250F4EDB00CB58A659921BD218A0
:10F08000D3172B409B181B110B4A019D01331B0109
:10F0900085509E19C122A82300209200DB00A750B2
:10F0A000CE50FEBD01204042FBE7C04634BA02000C
:10F0B000008000404C0500000C00002003280BD805
:10F0C000074B8000C158C223064A9B00D150064B13
:10F0D000064AC2500020704701204042FBE7C0466C
:10F0E00034BA0200008000400C00002049470200B2
:10F0F00010B5024B1B68984710BDC046842C0020F9
:10F1000070B50025054C2368002B02D00022226038
:10F11000984701350434042DF5D170BD742C0020BE
:10F12000074A890003008858002805D18B508022A7
:10F13000044B52045A60704701204042FBE7C0462E
:10F14000742C0020FCE100E00722436804481B798E
:10F150001340044AD35C002B00D003487047C046DC
:10F16000DCE30200DA000020D4E3020010B5012441
:10F17000037A05499B005A580448224200D10448AA
:10F18000A243CA5010BDC0468C2C0020DCE3020014
:10F19000D4E3020070B5037A064D04009B00585971
:10F1A000400816F0F3F80122237A9B0059590A40CF
:10F1B0005A5170BD8C2C002030B5A222A025D2005F
:10F1C000ED05AA580723CA401100164C0340E0562B
:10F1D000421EC90700D5421C022A0ADC00208242D6
:10F1E0001ADB1149CD5C854201D0C8540230E2548B
:10F1F00030BD072A09DD0C2A10DC0B490320CD5C49
:10F20000002DF4D10238C854F1E707490320C95C46
:10F210000029ECD10800EAE70200E8E703200C220D
:10F22000E5E7C046E2000020DA0000201D4B70B583
:10F2300059791879FFF7C0FF022805D11A490B68E0
:10F240009A1C012313430B60184B59791879FFF767
:10F25000B3FF022805D114494B689A1C01231343BC
:10F260004B60134C2000F9F785FD124D854203D108
:10F2700061792079FFF7A0FF0F4C2000F9F77AFDA4
:10F28000854203D161792079FFF796FF0B4C20006E
:10F29000F9F770FD854203D161792079FFF78CFF82
:10F2A00070BDC0463C9902008C2C0020DC98020006
:10F2B000CC98020074AB0200149902002499020059
:10F2C000072203791340014AD05C7047DA0000201E
:10F2D000004870470148E80110B5F3F7E7FB80F3F9
:10F2E0001088014810BDC04610B10200F0B50400FE
:10F2F00000258BB01A4B1B48E95803F0D9FB03AB30
:10F30000585104351C2DF5D1142300256343019376
:10F310000026154FB30003AA3800D15815F0C3FEDC
:10F320000136200014F03FF8072EF2D1013EB30061
:10F3300003AA3800D15815F0B6FE200014F033F8B7
:10F34000013EF4D20135082D03D100F0C1FD0BB010
:10F35000F0BD01231D42DBD1019814F024F8D7E75A
:10F360008CBB020058B202001C00002010B519200E
:10F37000FFF7BCFF004810BD10B1020070B51500CA
:10F38000040015F038FA2A002000024915F0F2F9BD
:10F3900070BDC046DB47020070B543790D00002404
:10F3A000032B06D9836A074C9200E41AC369D35829
:10F3B000E418032115F011FA4470241205708470CA
:10F3C00070BDC046FD7F00000023F7B583608371E8
:10F3D0000361013304000E0015004171C2604361F6
:10F3E000032906D8012183694942C0699A0019F0AE
:10F3F0005FFB0023A3622362AA8BEB8BD218002A47
:10F4000000D10132384F2000390015F0B3F92A8CB1
:10F410003900200015F0AEF9E3682000197D15F0E1
:10F42000D5F9E3682000997D15F0D0F9E368200054
:10F43000197E15F0CBF9E3682000997E15F0C6F926
:10F44000042E27D1636A226A390020009A1A15F027
:10F4500091F939002000EA8915F08CF93900200073
:10F46000AA8915F087F90027AB8CBB4217DCFF2176
:10F47000200015F0C0F9042E35D1EA8A2B8B06271F
:10F48000D31801930023019A9A422CD0AA8C002110
:10F49000009223E00221200015F08CF9D9E7AA6A36
:10F4A000FB00D118D35C032B03D12000897815F021
:10F4B000A2F90137D8E70126A86ACA008218507855
:10F4C00030420AD05088984207D15268606BD2000F
:10F4D00099003A430A500133D5E70131009A8A4234
:10F4E000E9DC0222F2E7F7BDB5470200F7B5234B8E
:10F4F0000500A8331B680191022B29D847698F4268
:10F5000026D2836A0269CF1B9C1A062F01D90F2CC1
:10F510001FD900941F2C01D91F230093009B0026A4
:10F52000A34203D33E00032F00D903260121280064
:10F5300015F040F9009A730113430370009BBF1B41
:10F54000E41A23003B43E0D1AB6A2B61019B6B6162
:10F55000F7BD80233E001B019F4200D3084E0221CD
:10F56000280015F027F97022330913402343F03A9D
:10F570001343037046700094E0E7C046102A002051
:10F58000FF07000070B50D000121040015F0B1F96E
:10F590000E2D0AD00F2D0DD010210D2D06D01721C4
:10F5A0002000054A15F038F903E01121200015F07C
:10F5B00022F970BD1221F9E758910200F8B5174FF2
:10F5C00005000C0016000F40002A1AD1110015F09A
:10F5D00090F923040FD53221280015F00CF93221BF
:10F5E000280015F008F93221280015F004F932211D
:10F5F000280015F000F93A0035212800FFF7CCFE6D
:10F60000F8BD3A004621FFF7C7FE7F23210A994340
:10F6100031432800C9B215F0EEF8F1E7FF7FFFFF94
:10F62000F0B5124B87B003AD40C901380093019586
:10F63000032302F09DFE68680D4F1E24B84202D0DD
:10F6400013F0FDF844B2A8680023B84202D013F0CA
:10F65000F6F843B2706803994371047109F0F2F946
:10F66000706809F069FD380007B0F0BD5CBC0200AD
:10F6700010B1020030B5124B8BB003AC20C9013879
:10F6800000930194032302F073FE049906A817F077
:10F6900066FB039B089A5900237A00936868079BCE
:10F6A00007F068FD021E05D006490748F8F738FF45
:10F6B000FDF778FB06A90548F0F72AFE0BB030BD30
:10F6C00074BC0200505203007CA40200508D020062
:10F6D00030B5114B89B002AC20C9013800930194B8
:10F6E000032302F045FE0122039805A9F3F798FBD6
:10F6F000029B059A5900237A00936868069B07F0DD
:10F7000049FD021E05D005490548F8F709FFFDF738
:10F7100049FB044809B030BD8CBC020062520300B2
:10F720007CA4020010B102000021F8B5476808006F
:10F7300016F0A8FF08250600B1223B68D2009D50B4
:10F74000802200209200190098500122FC319A601A
:10F7500088605A61104A8868002803D1002A19D0AD
:10F76000013AF8E70024A24204D00C4A9C586342B4
:10F770005C41E4B2380009F0DFFC002C05D0012127
:10F780006B003000194304F02DFA0135782DD3D1E8
:10F790003000F8BD1400EDE710270000C40400009D
:10F7A00010B50400FDF788F8074B02001B690749F4
:10F7B000074817F04CF9FFF73FFA012C01D1FFF78A
:10F7C0005DFA044810BDC046102A0020755203009F
:10F7D0002CE6020010B1020010B5F3F767F9F4F758
:10F7E0004DFD014810BDC04610B1020010B5FEF736
:10F7F00027FF014810BDC04610B1020010B5FEF74A
:10F8000015FF014810BDC04610B1020010B586B00A
:10F81000040005AB04AA03A902A801F093FE059B0E
:10F82000029A0193049B064900930648039B17F034
:10F830000EF9012C01D101F0BFFE034806B010BD46
:10F840008A5203002CE6020010B1020010B5084CE9
:10F85000002805D1A834236801305B00184310BD8F
:10F860000868F3F723F9A83420600248F7E7C04698
:10F87000102A002010B102000200012108400A42B3
:10F880000BD1930709D11368044A0800934204D0AE
:10F8900003481B1A5A425341D8B2704760B602005F
:10F8A000E4E302000023FA21094A89001360094AAF
:10F8B0001370094A1360094A1160094A1370094A12
:10F8C000111D0832D3670122CB67074B1A707047AE
:10F8D000982C00209D2F0020942C00201800002040
:10F8E0009E2F0020102A00209F2F002010B5084BCB
:10F8F000084A1978002907D1916C002902D0FFF736
:10F90000D1FF10BD30BFF4E700221A70F9E7C046FE
:10F910009F2F0020102A0020837F0248002B00D157
:10F9200001487047DCE30200D4E302000023A02278
:10F93000E02110B583770C4BD2050902D1500B485A
:10F94000F9F736FA0A48F9F733FA0A48F9F730FABC
:10F950000948F9F72DFA0948F9F72AFA0848F9F79A
:10F9600027FA084810BDC0460C0500002C9902007B
:10F9700034990200449902004C9902005C990200FB
:10F98000D498020010B10200F8B5164C2368002B81
:10F9900007D1482019F001F80500134907F0DCFCF5
:10F9A00025601248124902680B68D21A0123312AD5
:10F9B00004D9623393429B415B4202330022012609
:10F9C0000C4D2E702F78032FFCD101329342F8D1C9
:10F9D000036820680B6018F0A0F943000120184369
:10F9E000F8BDC0469C2C002074BD0200882C00206D
:10F9F000A02C0020A02F002030B50D4C87B023781C
:10FA0000012B13D10B4B02221D680621002302A8F3
:10FA100017F012FB082204A9684619F02DF8039B81
:10FA20002800029A07F014FC0223237007B030BDAF
:10FA3000A02F00209C2C0020A02010B51049C0054C
:10FA40004B7F5A1C002B09D14C8C0E4BA3430E4C00
:10FA500003510E4B4A775200D05A0FE010335B002F
:10FA6000CB185C88A123DB00C450092AF1D1012006
:10FA7000FFF724FBFFF7C0FF0120404210BDC04646
:10FA80001C000020F01F00000C05000098F402008C
:10FA900073B5041E09D11A4D2B78002B2CD01949AF
:10FAA000194815F000FB2C7073BD184D2B1DDE6F2F
:10FAB000F2F718FF164B2100834214D0154B234058
:10FAC000062B05D0A30712D1134B22689A420ED100
:10FAD000200001A9F1F7A8F8019B012B0CD10078B7
:10FAE00016F0A6FC0100300015F0DDFADCE70B494A
:10FAF0000B4813F0E4F9A864FFF7D4FED4E7C0463E
:10FB00009E2F0020B8E002001C000020102A0020D8
:10FB100018E10200070080FF309A0200D252030071
:10FB2000E4A50200F8B5A021A1231F4AC905DB0006
:10FB3000CA500123C27F1D4D0D3293404B51C37FEC
:10FB400004000133DBB2032B2BD020000426142247
:10FB5000E3770021223018F0ABFFE07F144A430026
:10FB6000D31805211A785F784A43124906338A1858
:10FB7000D2190127B740BC466146127901365200BE
:10FB8000A218578C0F4357840D2EEAD101210D3056
:10FB9000A023A1228140DB05D2009950A28E5A51A8
:10FBA000F8BD0023D1E7C046F01F00000C0500009F
:10FBB000F85203001C00002070B5394B8CB01A7845
:10FBC000022A07D1A0223749D2008A58012A07D039
:10FBD00003221A70344DAB7F002B03D1FFF70CFFCB
:10FBE0000CB070BD2800FFF79DFF304A3049136804
:10FBF0000968063313608B4207D300242D4B146031
:10FC00001B78012B0FD0022B45D000232A8C6B7759
:10FC1000FF33FF331A42E1D0E1222749D20001200D
:10FC2000FFF718FADCE7254E331DDB6F002B04D0FD
:10FC300033000833DB6F002B02D1FFF733FEE4E71C
:10FC4000FEF7F4FC6846FDF787F800280CD11C4B42
:10FC50001868FDF729FB0400FDF79CF8FEF7F0FC9F
:10FC60002000FFF715FFD0E7FEF7EAFC019B1549DE
:10FC70001868FCF73FFB0028F2D10198F2F732FE3A
:10FC8000114B834203D11149114816F0E0FE019B4C
:10FC90000024B364E4E728000E4915F004FACCE729
:10FCA000A02F0020007000401C000020942C002099
:10FCB000180000209D2F002039FA0000102A002093
:10FCC000982C002030A50200C8A30200661A030089
:10FCD0002CE60200B8E00200F0B5002485B0154D16
:10FCE00002930AAB1B782F1D08350190FC670800B2
:10FCF000EC67210016000393FDF79CFA0E4B029A65
:10FD000018600E4BE8671E600D4B1A70019BFB6775
:10FD10000C4B1C70FDF7C8FAFFF7BAFE01220A4B24
:10FD20001C600A4B1A70039BA34201D0FFF7DEFD53
:10FD300005B0F0BD102A0020982C002018000020EB
:10FD40009E2F00209F2F0020942C00209D2F00200C
:10FD5000F0B50024384B8FB01D1D0833DC67374BDE
:10FD6000EC6709AD80C9013801950093052302F0C5
:10FD7000FFFA099C0A9B079404932B7B2E7A059328
:10FD80002B7C20000393FFF777FD2D4D002806D133
:10FD900003232340022B09D12C40062C06D000223D
:10FDA0000121284807ABF0F733FB0790079805407F
:10FDB000062D05D0830730D1224B02689A422CD100
:10FDC00008A9F0F731FF089B002B23D0012B0DD1A0
:10FDD000002E0BD1039B002B08D1007816F028FBD6
:10FDE00007903800079915F05EF913E0079802F0C4
:10FDF00049FF079009AB1B7C002B03D00798F6F74F
:10FE000069F80790059B38000093049A330007991E
:10FE1000FFF762FF0C480FB0F0BDF2F763FD0B4B2C
:10FE20008342E7D1002E02D1039B002BD9D007A932
:10FE3000012000F0EFFDDCE7102A002020BE0200C8
:10FE4000070080FF309A020010B1020018E10200A2
:10FE500070B51B4B8AB005AD40C9013800930195C0
:10FE6000052302F085FA059C20000494FFF704FDA9
:10FE7000002807D103232340022B0AD1114B1C4039
:10FE8000062C06D0002201210F4804ABF0F7C0FA7F
:10FE9000049003A90498F0F7C7FE2A7C2B7B0399F2
:10FEA0000092059A02F0D8FE2B7A010000933000F0
:10FEB00000236A68FFF710FF04480AB070BDC0460F
:10FEC00048BE0200070080FF309A020010B1020015
:10FED0000022074B10B51A70064B02321A70064BFF
:10FEE000064A1B68063B1360FFF700FD10BDC046C5
:10FEF0009F2F00209D2F002018000020942C002010
:10FF000010B5FFF7E5FF014810BDC04610B1020073
:10FF100010B51400042901D8042A02D90848FDF7B5
:10FF2000AFFD092B01D90748F9E705224A4382189A
:10FF30001219137101229A40038C1343038410BDDC
:10FF40002D1A0300DF520300F8B548680C000F6853
:10FF5000F2F7ACFD0500A068F2F7A8FD0600E06826
:10FF6000F2F7A4FD3200030029003800FFF7D0FFAC
:10FF70000048F8BD10B1020010B5042901D8042AC8
:10FF800002D90448FDF77CFD052359434018801829
:10FF9000007910BD2D1A030070B5104C050021002A
:10FFA0000F48F8F71BFF21000E48F8F717FF210054
:10FFB0000D48F8F713FF21000C48F8F70FFF210058
:10FFC0000B48F8F70BFF21000A48F8F707FF15F078
:10FFD000F0F801230848AB7770BDC04654AB02006F
:10FFE0002C99020034990200449902004C990200B5
:10FFF0005C990200D498020010B1020070B50D00A7
:020000040001F9
:10000000F2F7BAFD041C2800F2F7B6FD211C0AF035
:100010003FFD051C15F0DAF8011C281C0AF012FC43
:10002000211C0AF0A9F80323020002209A43024B84
:100030001043C01870BDC0460000808010B515F098
:10004000C5F80323020002209A43024B1043C01854
:1000500010BDC0460000808010B5074C002802D0BB
:100060000868A04203D105F051FF200010BDF2F74F
:1000700049FD05F06BFFF8E710B1020010B5040070
:10008000F2F786FEF2F712FD002803DC0021064895
:1000900014F033FB05F012FF15F078F9042201008B
:1000A0002000F2F78BFE10BDD8A2020010B50400AC
:1000B000082015F0B1FE024B4460036010BDC0463D
:1000C0005CBF020010B5102015F0A6FE0400034B23
:1000D00008C011F0A7FA200010BDC04660B60200AB
:1000E00070B50C00052804D809F040FD06030C0487
:1000F000131C0024200070BD8B680E4C002BF9D11E
:100100000D4CF7E7081D11F0D7FE01244000044311
:10011000F0E7FFF7D7FF211D0500043011F0FCFBCD
:100120002C00E7E7FFF7CEFF211D0500043011F09A
:1001300003FCF5E7DCE30200D4E3020070B5050040
:1001400083070CD1104B02689A4208D1FFF7BAFF1F
:10015000291D0400043011F0D4FB200070BD2800DC
:10016000F2F7A4FCC0231B06984206D18020002190
:10017000C00515F0FCF80400EFE70124C317C01810
:10018000584040000443E8E760B6020007B5C307E3
:1001900001D540100EBD043001A911F0A1FE0028C8
:1001A00001D00198F6E70249024814F0A6FAC046C9
:1001B00064530300B8A40200F0B501230C008BB017
:1001C0000D00170001901C4019422CD04B10022248
:1001D00003A904A811F05DFA04AEFB072ED5022294
:1001E0007B1003A904A811F054FA04AD019B092B5C
:1001F00001D0162B42D16B68002B00D16AE0300091
:1002000011F0CFFE041C280011F0CBFE011C201CB5
:100210000AF050F9032302249843734B0443E41873
:1002200020000BB0F0BD0323080018401942F7D19D
:100230006E4B0A689A421FD10E1DCEE703231F4260
:1002400005D16A4A3968914201D13D1DCEE73B4054
:10025000022B0CD1664B3B40062B08D0300011F02E
:10026000A0FE3A00011C0198F8F7ECFA04E03A000D
:1002700029000198FCF73AFD0400D1E7019B182BF7
:1002800000D98AE0FFF71EFF0400019809F06EFC18
:10029000444A3E50500D13191F72336572444A3E52
:1002A00050500D13191F723365002A003100201DB4
:1002B00011F0DEFBB4E72A003100201D11F00EFC26
:1002C000AEE72A003100201D11F033FDA8E76B686E
:1002D000002B03D14749484814F00FFA07A811F042
:1002E000A1F92B003200201D07A9F1F7CFFF07A8C5
:1002F00011F09DF994E76B68002BEBD007A811F083
:1003000091F92B003200211D07A8EEE72A003100E9
:10031000201D11F020FC83E72A003100201D11F080
:1003200095FC7DE72A003100201DF1F73DFF77E7BE
:100330003800FFF72BFF021E02DA3048FDF7A0FB62
:10034000019B3100201D032B01D0102B02D1F1F7AE
:10035000C1FE65E711F02BFB62E76B68002B03D051
:100360002B78DB0700D579E72A003100201D11F03A
:1003700060FD55E76B68002BACD0FFF7A3FE0700CC
:10038000211D2B0032000430F1F780FF07A9022065
:100390000797089400F03EFB6EE72900300011F04B
:1003A00095FA0300019800241938042800D937E78A
:1003B000134C09F0DBFB0308140C1000002B00DBCE
:1003C0002EE7104C2CE7002B00DC29E7F9E7002B87
:1003D00000DD25E7F5E7002B00DA21E7F1E7002B48
:1003E00000D01DE7EDE7C0460000808060B6020047
:1003F000070080FFE91F030098A60200B04E03002B
:10040000D4E30200DCE30200044B88600B60044B81
:1004100008004B600023CB607047C046689602001E
:10042000675402000300054A08000A601A7A0A713C
:100430005B688B600023CB607047C0468CC00200B5
:100440000B6870B506000D00181D49681400F8F718
:1004500089FB031E02D0406800280FD1022E08D16C
:100460000948022C06D16968084812F021FDFCF702
:1004700099FCA868012C00D1586070BD022CFCD1F9
:1004800000225A60F9E7C04610B1020014A302002E
:1004900010B504000C2015F0BFFC034B4460036052
:1004A0000223037210BDC046C8C0020010B504305C
:1004B00012F0BDFD004810BD10B10200002803D0AD
:1004C000012808D00020704707224B680448934356
:1004D000F9D10448F7E74B68DB085B001843F2E703
:1004E000DCE30200D4E3020070B504000D000B7AD7
:1004F000164A9B0086B0995816F0E3F9200014497B
:1005000016F0DFF9134B02AA02932B7A012613711E
:100510006B68019304930023059302A814F0ADFFC8
:10052000051E05D120000C4916F0CBF906B070BDB0
:10053000002E03D12000094916F0C3F90122290039
:100540002000F2F7E7F90026E7E7C04604C1020001
:10055000915303008CC0020094530300BFFE0200BD
:10056000F0B513681400012287B00F680D000092E7
:10057000D9080223060001F0CBFE022E14D16868D0
:10058000032302001A40184218D101682A4BC96897
:10059000994213D12B68984206D00592686805A944
:1005A00014F04EFF061E01D100253FE00122316804
:1005B000381DF8F7D7FA73684360EFE70021FCF7BE
:1005C00039FE03900398FCF797FE0028ECD0002139
:1005D000FCF730FE0500FCF78FFE06002800FCF754
:1005E0008BFE02902800FCF787FE002E04D0029BB1
:1005F000002B01D0002802D01048FDF741FA01225B
:100600003100381DF8F7AEFA029B4360DAE7A368C1
:10061000EE009E193168002907D0042905D0012277
:10062000381DF8F79FFA7368436001356368AB4281
:10063000EDD8034807B0F0BDAD08010097530300A3
:1006400010B1020030B5002585B001A90400019564
:1006500014F0F6FEA84203D109490A4814F04DF8F7
:10066000636802A9083B63600368029343680393CD
:10067000042328C0022000F0CDF905B030BDC046EB
:10068000BD53030014A30200F7B50C0015001B288E
:100690000CD000221F2807D1081D2900F8F762FAA4
:1006A0002B4A002800D12B4A1000FEBD03222B004C
:1006B0001340114225D1284922688A4221D1002BBA
:1006C000F1D1296891421ED100930193694620001F
:1006D00014F0B6FE01A90700280014F0B1FE0600D0
:1006E000002F31D00028DED031683868F2F78CF95D
:1006F0000028D8D071687868F2F786F90028E5D12B
:10070000D1E7002BCFD1154B2A689A42CBD16A682A
:100710006368534007229343C5D10193200001A988
:1007200014F08EFE061E01D1094ABDE70022316891
:10073000281DF8F717FA0028B5D041687068F2F75D
:1007400063F90028EAD1AEE7014A0028ABD1ABE754
:10075000DCE30200D4E302004CC1020010C102003D
:10076000F7B50B681C4A04000D00934203D05A6889
:100770001A4916F06CF92000194916F0A2F8002366
:1007800001270193280001A914F05AFE061E0CD17E
:100790002000144916F095F82B680F4A934203D0B5
:1007A0002000114916F08DF8F7BD002F03D120006D
:1007B0000E4916F086F8012220003168F2F7AAF8F7
:1007C0000B49200016F07DF8012220007168F2F735
:1007D000A1F80027D6E7C04610C10200DC53030091
:1007E000BDFE02005A04030066000300BFFE0200C3
:1007F000C64B030010B504000C2015F00DFB034B95
:10080000446003600023037210BDC046C8C00200EC
:1008100010B504000C2015F0FFFA034B4460036090
:100820000123037210BDC046C8C0020010B50022EB
:1008300004300C00F8F796F9002805D12100034890
:1008400012F036FBFCF7AEFA406810BD14A30200AC
:1008500010B5024B08C012F0D5FB10BD10C102004C
:10086000F8B50C00070000216068FCF7E3FC0E4EB1
:100870000500022F00D9A6686068F2F731FA002857
:1008800009D114F022FE04002800FCF735FD011EFA
:1008900003D12000F8BD4010F3E70122201DF8F736
:1008A00061F94660F0E7C04610B10200F0B589B0CA
:1008B0000190002017001E000D0014F006FE019BA1
:1008C000019A03600D4B04009A4203D1042302797C
:1008D000134303712B003B430DD03368AA0039004A
:1008E000B21805A80394049312F09AFB681C05AA99
:1008F00003A9FFF735FE200009B0F0BD4CC102008E
:1009000010B50C00002A03D114F012FE0A480EE0C4
:10091000042A0DD100220430F8F724F9002805D16B
:100920002100064812F0C4FAFCF73CFA406810BDFA
:1009300014F0F4FDEAE7C04610B1020014A302006F
:10094000044B88600B60044B08004B600023CB60B5
:100950007047C046689602004B55020070B50E0005
:1009600011490400002515F0ACFF7368AB420AD8AA
:10097000012B03D120000D4915F0A3FF20000C49E5
:1009800015F09FFF70BD002D03D02000094915F020
:1009900098FF3300A9000833012220005958F1F7CD
:1009A000B9FF0135E1E7C046D51F0300015403003C
:1009B00066000300BFFE020070B503000C000128B2
:1009C0001ED0022808D00020834204D14B680E4874
:1009D000002B00D10D4870BD01230D4D62685E1CD7
:1009E000013B9A4203D801206D002843F3E7B3008E
:1009F000E1580220FCF7B6FA401033002D18EDE75D
:100A0000486840001843E6E7DCE30200D4E3020054
:100A100088C1020070B505000E000B48002D12D0F1
:100A2000AC1CA400200015F0F7F9084B45600360EA
:100A3000002E08D002000023083C0832F158D150A3
:100A40000433A342FAD170BD88C1020090C10200F4
:100A5000F0B507000E00140085B0142831D028D856
:100A600007282ED0122802D00025052826D12000E4
:100A7000F1F738FF2E49FBF73DFC051E1ED07368C9
:100A8000626800219818FFF7C5FF070031007368FE
:100A900008379A0005000831380017F0EDFF2100F3
:100AA00070686368800038189A00083117F0E4FF16
:100AB00004E00300193B0025042B1DD9280005B0D4
:100AC000F0BD200003A9F2F72FF8051EF6D0039819
:100AD000184D0028F2DD736800215843FFF79AFF94
:100AE00005002B003000083300930421039B72683B
:100AF000083014F00EFEE1E71000F1F7F3FE0E4BA4
:100B0000426A9A4205D02000094913F04FFD041EA5
:100B10000CD02300310062683800009208337268FC
:100B2000083100F039FF054D0028C7D1044DC5E755
:100B300090C1020088C1020041090100DCE302000B
:100B4000D4E3020030B5040085B0042A2FD103237A
:100B50000D0040681D4019421FD1164B0A689A4289
:100B60001BD101AA00F0A8FE002802D11248FDF70F
:100B70007BF9019B02982900C01AFFF74BFF050083
:100B800021006B6808319A00019B08309C0009190C
:100B900017F072FF280005B030BD0A0000230100E5
:100BA0002068F2F75DF8023080000559F2E7002571
:100BB000F0E7C0463C9E020027FA0200F0B50C00A8
:100BC0001100002285B01E0020000123009201F0D8
:100BD0009FFB184D002C1ED03568AB0703D1164B78
:100BE0002A689A4217D0102015F016F90021040047
:100BF0003068FCF71FFB0025042703900398FCF7DF
:100C00007BFB061E0AD128002100FFF703FF050029
:100C1000200015F030F9280005B0F0BDAF4205D82E
:100C20002000F90015F016F904007F00AB001E51FA
:100C30000135E3E788C1020090C1020005230200EC
:100C400070B5094C094D20682260434308489B1841
:100C50009B0018582B68C0180F2319400901286001
:100C6000F6F702FE70BDC046A42C0020942B002095
:100C700000C20200A83910B50400080006292FD8C8
:100C800008F074FF040A10161B212800E223A218A2
:100C9000DB00D218107810BDC4329200105D8006BF
:100CA000800EF8E7C4329200105BC004400EF2E7F9
:100CB000C432920010590003F8E7C4329200A2181F
:100CC00090780009E7E7C4329200A218D0780007B4
:100CD000000FE0E71300C4339B00E318D878F0E777
:100CE000024B034A00201A60D5E7C04604000020EA
:100CF00003540300A83910B504000800062946D89B
:100D000008F034FF040A131E29333D00E221A21823
:100D1000C9005218137010BD3F20C4329200115DFB
:100D2000034081430B431355F5E7C43291007F2202
:100D300019481A400B5B9201034013430B53EAE737
:100D4000C43291007F2208591A40144B52030340C9
:100D500013430B51DFE70F20C4329200A218190190
:100D6000937803400B439370D5E70F20C432920071
:100D7000A218D178034081430B43D370CBE70F20F7
:100D8000C4329200A218D1781B010140F4E7044B51
:100D9000044A1A60BFE7C0463FE0FFFFFF1FF0FFB5
:100DA000040000200E540300F0B587B0059307231C
:100DB000D4B21A40013AD2B20391042A02D92E4980
:100DC0002E4D0D609C4313020293002C2BD12C4B13
:100DD000C35C1B09DB43DBB20193039B1D78019BC2
:100DE0002C005B1BDBB204930826264B029A1B19CE
:100DF0009F5C3B007F005BB2FFB2002B38DA1A2108
:100E00000320013EF6B2FFF719FF002EF1D1049B3B
:100E10000134E4B2E318DBB2002BE5D1019BED1AFB
:100E2000039B1D701AE0E443174BE4B29F5C082556
:100E3000144B029A1B199E5C330076005BB2F6B22B
:100E4000002B0EDA05210220FFF7F8FE013DEDB27E
:100E5000002DF1D10134E4B2002CE8D1059807B09F
:100E6000F0BD39000120FFF7E9FE002FEAD0EDE7E1
:100E700006210420C5E7C046040000201A540300E0
:100E80001907000099590300F45F0300F0B5002230
:100E90008BB0050001910F20FF2108AB644CDA7183
:100EA0000B00C4339B00EB189A781609A65D02402C
:100EB000360132439A70DA781607360FA65D824300
:100EC000064016431209A75C32003F0102403A4334
:100ED000DA700139E4D2E223DB00EE5CB308F31AE6
:100EE000DBB20593534B1B68002B0BD0E222C421CD
:100EF0008120D20089000001019BAA1869182818D6
:100F0000F6F72EF900244823270004930394029453
:100F100081222B1912019B181B78180006930723B6
:100F2000984322D008A9230007312800069AFFF72A
:100F30003BFF01990230C4B20239CBB20193019B4D
:100F4000002B73D02B780493013EF6B2002E44D1CF
:100F5000E22200272B19D2009B181E780397B308B2
:100F6000F31ADBB205930297D2E7334B029A9C4601
:100F70009A5C2300C4339B00EB18997809090A4353
:100F80002E498A5C039907926246DB78525C190706
:100F9000090F0A4329491B098A5C2949C95D0B438A
:100FA000079952182549C95C01238918FF2A00DCDA
:100FB000031CC918882309061B06C9180020090F3D
:100FC000FFF73CFE049B013BDBB20493002BBBD13B
:100FD00001990134E4B20139AFE7059B013BDBB273
:100FE0000593002B02D1069B002B16D12200C432A0
:100FF0009200535D02999B069B0ECB18DBB20293C5
:10100000535B0399DB045B0ECB18DBB2039353599C
:101010001B035B0EFF18FFB27AE708A92300280024
:10102000069A0731FFF7C0FE040091E70BB0F0BD50
:101030001D550300A82B0020E95E0300F5560300B0
:10104000995803000300074A0800D25C002A05D023
:10105000054AD15C4843C011C0B27047034AD05C16
:10106000FBE7C04645580300BE5603007E5503000B
:101070000300074A0800D25C002A05D0054AD15C6B
:101080004843C011C0B27047034AD05CFBE7C0467A
:1010900045580300F95F0300CE550300F0B5037A0D
:1010A00004008DB07F2B00D137E10300070000253D
:1010B0000933FF330837069301953E787F2E00D021
:1010C00088E000230593019305998B00E3181A7AB1
:1010D0000393481C1B7BC0B205907F2B00D1FBE023
:1010E0008F49CE5C8D5C8F49AE4200D0D4E08D5CE0
:1010F000CB5C039A517A019A5118CAB20192EA184C
:10110000D2B20692023A1206DED4019A9B18DBB2E2
:10111000551B0793EBB2A8250493A82D00D0C3E07C
:10112000039B039A5B7A527B5B08520899180291E1
:10113000019901988A18E221C31AD2B2DBB2C90020
:10114000A218E31852185B1816781878361AF6B2F7
:101150007F22330076B293430893F317F018584078
:101160000299C0B208F086FE3000CBB20299099312
:1011700008F09AFD0026C3B2049F0A93029BDB1974
:10118000DBB20B933A0029002000FFF773FD0A9BA6
:1011900001370B9AC018FFB2C3B2974200D195E055
:1011A000099AB618029AF6B2B2420DD8B61A2021A0
:1011B0006A4652181278F6B252B2002A00DA83E078
:1011C000002B01D00133DBB23A0029002000FFF7E9
:1011D00091FDD7E7012E59D12B003100019A200053
:1011E00014F0DCF9BA78504B30009B185B78A1788A
:1011F0000193FB780593FFF725FFE1780890300015
:10120000FFF736FF494B995D494B9A5D494B9B5D12
:101210000293494B9B5D0393484B9B5D7E780493FF
:10122000AE19F3B27F2607933F233040860108981A
:10123000184030437F263140490308430F21029B69
:101240000A4016050B401B0606431E43039B059AE6
:101250001B071E43019B9C4662442B008121C43323
:101260009B001E5104986319090159180870E22166
:10127000C9005B181A700135079BEDB29D42ECD195
:10128000069B0437BB4200D017E71AE7022EA9D10C
:101290002B00FF21019AA2E72948AE4201D9C55C83
:1012A00026E78D5C835C24E72900079A2000FFF77E
:1012B000E1FC29000600049A2000FFF7DBFC069BF6
:1012C000361AF6B2029343E7013B7CE70135EDB2F3
:1012D000AF2D00D021E7F7E6023189006118019BAC
:1012E000497859186368C9B2002B13D1E2238122CF
:1012F0001448DB001201E318A518001B1A18C432A9
:101300009200125D1E789206D20EB21A1A70013344
:101310009D42F3D12000FFF7B9FD0DB0F0BDC046EE
:101320002E550300F5570300E95F03001E56030026
:101330002D5403007D540300CD540300995E030037
:101340006E560300F0F8FFFF074A030050690028BB
:1013500006D042689A4204D89B1A04339B0018585E
:1013600070470068F3E7C046102A002070B5144D9E
:1013700004006B699868DB68834215D30230C000B3
:1013800014F057FD6B69002803D198684000FCF702
:1013900061FB5A68D96803609B6852185B008360E0
:1013A00000234260C36068616A69D3685068591C51
:1013B00004339B000138D16040189C5070BDC0467A
:1013C000102A0020074B4118884204D3D8B20028C5
:1013D00000D1013070475A01D318027801305340D0
:1013E000F2E7C04605150000034B044A5A6100228B
:1013F0009C331A607047C046102A002064C2020065
:10140000F0B585B007000E00FFF7DCFF164B029029
:101410005C69002C01D1200021E0230010330193EE
:10142000019AE36815009B00D3180393039B9D4228
:1014300001D32468EDE72868029A0378934210D11B
:101440004378B3420DD132003900023017F006FB69
:10145000002806D1019B6068ED1AAD10281805B070
:10146000F0BD0435E2E7C046102A0020F0B585B093
:1014700003900191FFF7C4FF021E56D1304F019B2C
:101480009C373868DC1C002815D02D4D2C4EA43517
:101490002B68A0363168E3188B4229D9611814F003
:1014A000E6FC029000281DD102002968386814F07B
:1014B000DEFC029B3B602600802C00D280263000A0
:1014C00014F0B7FC1E4D2F009C37386000282FD138
:1014D000200014F0AEFC26003860002828D120003F
:1014E000FCF7B8FA33681B1933603B68002BE2D075
:1014F000134A1349A4329C3113680D680398ED1800
:101500000199E3181360FFF75DFF019B03991A002F
:1015100028706B70A81C17F0AFFA019B2800E9181F
:1015200000238B70FFF722FF0200100005B0F0BD12
:101530002B00A0331E600023A4352B60D8E7C046E3
:10154000102A0020F7B51D0000230F0016000360CD
:101550000B6013602B60164B00905C69002C02D06E
:10156000144B9C4204D133682A68D3182B60F7BD12
:10157000009B009A1B68019301331360E2683B688B
:101580009B1822003B60E36810329B00D3189A42FC
:1015900007D32000FDF760FA2B682468181828602C
:1015A000DCE702CA30684978033009183160EEE799
:1015B000102A002064C202000C4B70B55C69002C3C
:1015C00002D00B4B9C4200D170BD2600E368103660
:1015D0009D007519AE4201D32468F0E704CE054999
:1015E0000232054815F033FAF4E7C046102A00200D
:1015F00064C20200306003002CE60200004870471D
:1016000016FCFFFF0048704716FCFFFF82B007B5CD
:10161000049292B20593052A09D01B2A02D104A88C
:1016200004F09CF8002003B008BC02B0184704ABDB
:101630005B88032BF6D106A90822684617F01CFA2E
:101640000349049A059B086805F02EFAEAE7C046AC
:10165000602900200022044B5A60044A08321A60B4
:10166000034A13607047C046A82C002030CE020009
:10167000FC2C0020F7B5CD1CAD00019028000E0019
:10168000170014F0C9FB2A000400064B86600360B3
:10169000019B390043600C3A0C3017F0EDF9200043
:1016A000FEBDC04644CE0200F7B545681600A868E6
:1016B0001F00019111F0AAF80400A86811F0ACF81D
:1016C00011F0A4F80323584307340019800014F0E4
:1016D000A3FB084B040003606B68320043600023E7
:1016E0008560C36001993B000830F3F797FA20004A
:1016F000FEBDC046C4CE020070B5050088680C006F
:1017000015F073FA230002000249280015F09FF932
:1017100070BDC046267C030010B5024811F0C2FB24
:10172000FBF740FB30A5020010B50400082014F0C0
:1017300073FB024B4460036010BDC04600CF020043
:10174000F7B5C5680F00040011001E00002D02D17E
:101750001D602800FEBD020003691832934205D1C6
:10176000174B9F4203D01748FCF750FB1F60200027
:10177000154F08307B68019363687B6001F094FA31
:10178000019B05007B60012807D002280CD00023B4
:10179000E36023691B683360DBE723691B68336000
:1017A000002BD6D1E360D4E7A368986811F02EF837
:1017B000002305308000E36024186368EBE7C0462F
:1017C00010B10200447C0300102A002013B501ABC5
:1017D000FFF7B6FF01280ED0104C02280DD0019B58
:1017E000A34219D0002B17D001210D4801AA11F0F6
:1017F00053FBFBF7D7FA019816BD0198F1F772F881
:101800000749FAF777FD002801D10198F1E701981F
:10181000F6F752FE8442F8D10020EDE710B1020045
:1018200030A502000B0010B5022808D14A6805490E
:101830001868FFF7CBFF002803D1FFF76DFF8A6818
:10184000F5E710BD10B1020010B500220149FFF705
:10185000BDFF10BD10B1020013B5114C114A21009B
:1018600001ABFFF76DFF012803D0022805D020004F
:1018700016BD0D490D4812F040FF0198F1F732F8FE
:101880000B49FAF737FD0028F1D10198F1F72AF852
:101890000849FAF72FFD0028E9D10198FBF782FAF1
:1018A00010B102009CA002007A7C0300F4A40200A4
:1018B00024A2020030A50200F0B585B00500160094
:1018C000080003AB02AA01A911F036FA0398304FC1
:1018D000B84209D0032807D0F1F7E8F8B060002833
:1018E00004D12C48FCF7CCF80123B3600198B8422E
:1018F0001FD10024B368A34200DC6C1E0298B842DA
:101900001BD10023B2689A4200DD2B00B068002C86
:101910001BDA2C1900D5C417002B22DAEB1801D5DD
:1019200001235B4200282FDA01339C4221DA631C39
:101930001FE0F1F7BBF80400E0E7F1F7B7F8031E8A
:10194000E4DBB268D20F8318E0E7002803DDA5428C
:10195000E2D22C00E0E70028DED0A542DCD86C1EE5
:10196000DAE79D4200D22B0000280ADDA34200DA0C
:1019700023000138736043425841C0B2346005B05F
:10198000F0BD0028D1D1F4E70028EFD1F1E7C0463F
:1019900010B102009A7C0300F0B506000C0017009D
:1019A00085B01B2805D10A9A974209D0002005B0BE
:1019B000F0BD19281AD01C281AD00A9A0A971700C5
:1019C0001A00230014000A9A0192BA4200D9019722
:1019D0001D0000230093009B019A93420AD10A9BA9
:1019E000BB4221D00020BB4240411BE01A26EAE75F
:1019F0001D26E8E70295039401CD02CCF1F704F827
:101A0000002802D0009B0133E4E71B2ECED0039BBD
:101A100030001A68029B1968FCF73AF8054BC01AA7
:101A200043425841C0B2C2E730001A38431E9841C1
:101A3000F8E7C046DCE30200F0B51E0085B0039075
:101A400018680D000192F0F74DFF736807000293CC
:101A5000019B0024022B0FD901232900B268F1F762
:101A6000FFF8019B0400032B06D029000123380056
:101A7000F268F1F7F5F80500A54202D80848FBF72F
:101A8000FFFF039AA3000299D058F0F7BDFF00288A
:101A900001D10134F0E701206400204305B0F0BD1E
:101AA000B47C0300002313B5044A046A09050093BB
:101AB000890C8A58A16B13F02CFF13BD3CCF020098
:101AC000F0B587B001931B7805000F0002922A2B16
:101AD00007D183685B5C002B66D0A62B64D007B06F
:101AE000F0BD1A00213A022A2CD88468635C601881
:101AF000032B59D16B6804A9E41813F0D4FF844276
:101B000005D1280004996F6013F031FFE7E70378EF
:101B1000032B49D105A913F0C6FF019B1B78212B8C
:101B200004D1049B059A13430493E8E7222B03D1C5
:101B3000049B059A5340F7E7232BE0D1059B049AB9
:101B40001340F1E71A00243A022A00D989E0836899
:101B50005A5C5818032A27D16A6804A99B18009375
:101B600013F0A1FF0400009BA342CAD0A3786678BB
:101B7000A01C032B18D105A913F095FF0400372EE4
:101B80003AD1059A1F2A0FDC4349049B114199421F
:101B90000ADBC021090611418B4205DB9340049307
:101BA000049A53005340DED56B68029CDE1B002371
:101BB00000930098E409030001330093002CF8D14E
:101BC00033000134DB09FCD1831C1A1939002800C9
:101BD000039315F079F90500019B029A1B7800998F
:101BE0001A330370013013F017FE039B32002100FB
:101BF000E81813F011FE72E7392E08D1059B1F2B50
